:020000041004E6
:1000000000600020052E0410B5160410BF16041061
:1000100000000000000000000000000000000000E0
:10002000000000000000000000000000C7160410DF
:100030000000000000000000D1160410DB160410C0
:10004000692E0410692E0410692E0410692E041004
:10005000000000000000000000000000692E0410F5
:10006000E9160410692E0410692E0410692E04107C
:10007000692E04102517041000000000692E0410DA
:10008000692E0410692E0410591704100000000096
:100090004B17041000000000751704103D170410E2
:1000A000692E041067170410692E0410692E0410BD
:1000B0000000000000000000000000000000000040
:1000C00010B5904216D98AB2030C090C0C4659435C
:1000D00080B25343444350431B191A041B0C10189D
:1000E000594180225203002312184B41520DD8026D
:1000F000104310BD4843802252031218520D10467F
:1001000010BDC0468B0707D0013A22D30B780131CE
:10011000037001308B07F7D1830730D0DB4219D051
:100120000138043A08D308C943701B0A43801B0CEA
:1001300003710430043AF6D2D20707D30B88437018
:1001400001D08A78C2701B0A8370704701D00B7887
:1001500043707047043A06D308C903801B0C4380E0
:100160000430043AF8D2D20705D30B88038005D0B7
:100170008B788370704701D00B780370704770B430
:10018000103A03D378C978C0103AFBD2530701D391
:1001900018C918C001D508C908C0D20704D30B88F4
:1001A000038002300231002A01D50B78037070BC45
:1001B0007047C046EFF31482EFF30981154880F3CE
:1001C0001488BFF36F8FF0B543464C4655465E46E4
:1001D0006746F8B4104CEFF30883636006B4BFF3CE
:1001E0004F8F30BFC046C0460B4C646884F308880C
:1001F00082B003BCF8BC9846A146AA46B346BC46AA
:10020000F0BC04BC80F3098881F31488BFF36F8FBE
:100210001047C046000000000400002003B47146EF
:10022000490840004900095E49008E4403BC7047FC
:10023000002243088B4274D303098B425FD3030A25
:100240008B4244D3030B8B4228D3030C8B420DD338
:10025000FF22090212BA030C8B4202D312120902C6
:1002600065D0030B8B4219D300E0090AC30B8B4204
:1002700001D3CB03C01A5241830B8B4201D38B03B2
:10028000C01A5241430B8B4201D34B03C01A524157
:10029000030B8B4201D30B03C01A5241C30A8B429A
:1002A00001D3CB02C01A5241830A8B4201D38B0285
:1002B000C01A5241430A8B4201D34B02C01A524129
:1002C000030A8B4201D30B02C01A5241CDD2C3099B
:1002D0008B4201D3CB01C01A524183098B4201D317
:1002E0008B01C01A524143098B4201D34B01C01A02
:1002F000524103098B4201D30B01C01A5241C3087A
:100300008B4201D3CB00C01A524183088B4201D3E8
:100310008B00C01A524143088B4201D34B00C01AD4
:100320005241411A00D20146524110467047FFE740
:1003300001B5002000F006F802BDC0460029F7D044
:1003400076E770477047C0469140030090409C4656
:10035000203A9340194352426346D34019437047B1
:10036000F0B5CE469946030C9C46130447461B0C39
:100370001D000E0061460404240C80B50700100C1B
:100380004B436543414360432C0CC01824188C46F2
:10039000A34203D980235B029846C444494679436B
:1003A0005643230C2D042D0C891963442404601931
:1003B000C918C0BCB946B046F0BDC04680B582B0D1
:1003C00000AF0200FB1D1A70FB1D1B787F2B09D8A4
:1003D000FB1D1B781A001F231A40044B012191407A
:1003E0000A001A60C046BD4602B080BD00E100E0D0
:1003F00090B583B000AF02003960FB1D1A70FB1D81
:100400001B787F2B28D82F4AFB1D1B785BB29B08DB
:10041000C0339B009B58FA1D1278110003220A403A
:10042000D200FF2191400A00D2431A4011003B68DC
:100430009B01FF221A40FB1D1B7818000323034079
:10044000DB009A401F48FB1D1B785BB29B080A43E8
:10045000C0339B001A5031E01B4AFB1D1B7819006A
:100460000F230B40083B9B0806339B00D318043333
:100470001B68FA1D1278110003220A40D200FF21E6
:1004800091400A00D2431A4011003B689B01FF22B1
:100490001A40FB1D1B78180003230340DB009A4021
:1004A0000948FB1D1B781C000F232340083B9B08B9
:1004B0000A4306339B00C31804331A60C046BD4686
:1004C00003B090BD00E100E000ED00E080B586B033
:1004D00000AF7860EFF31083BB60BB687B610123E2
:1004E000FB60FB6883F31088C0467B681B68202292
:1004F0001A437B681A607B693B613B6983F3108810
:10050000C046C046BD4606B080BD80B582B000AFD3
:100510007860002002F0A9FC00F014F803F06AF9FA
:10052000031E01D000F0A4FB02F004FD02F0A6FEC1
:1005300001F090FA002002F0A2FC00231800BD4652
:1005400002B080BD80B500AF0A4B1800FFF7BEFFB8
:1005500001210820FFF74CFF0820FFF72FFF064B73
:100560001B6898680023022200210FF069FAC04638
:10057000BD4680BD00400041380D002080B582B0EE
:1005800000AF78600A00BB1C1A80124B1B88FF2B3F
:100590001BD87B681B780D2B0CD100F01FF80D4B7E
:1005A00000221A8080235A000B4B002118000FF004
:1005B00027FC0AE0074B1B885A1C91B2054A1180A0
:1005C0001A007B681978044B9954C046BD4602B0A6
:1005D00080BDC046940200209401002080B500AF89
:1005E000C046BD4680BD80B500AF01235B42180008
:1005F0000AF098FBC046BD4680BD80B500AFC0463E
:10060000BD4680BD80B500AFC046BD4680BD80B54B
:1006100082B000AF78607B681B691800BD4602B0ED
:1006200080BD000080B584B000AF7860074B196DC5
:10063000064B7A680A431A65044B1B6D7A681340AF
:10064000FB60FB68C046BD4604B080BD000040486A
:1006500080B584B000AF7860074B196E064B7A689E
:100660000A431A66044B1B6E7A681340FB60FB68F2
:10067000C046BD4604B080BD0000404880B582B091
:1006800000AF7860064B1B6E7A6813407A689A4216
:1006900001D1012300E000231800BD4602B080BD57
:1006A0000000404880B582B000AF7860044B196C00
:1006B000034B7A680A431A64C046BD4602B080BD47
:1006C0000000404880B582B000AF7860054B1A6CDE
:1006D0007B68D943034B0A401A64C046BD4602B04A
:1006E00080BDC0460000404890B585B000AF04F022
:1006F00049FF00F083F800F0B8F800F037FA00F096
:1007000079F900F095F900F061F900F0CBF800F00C
:100710001DF900F0C1F900F0E3F900F0AFFA802311
:100720009A009023DB051100180005F03AFF002025
:10073000FFF7EBFE0023FB60294B7B600B23FB18CC
:1007400000221A7000F046FA0B243B191B78002B8C
:1007500006D104F089FF0300FB603B1901221A70E7
:100760000B243B191B78002B36D004F07DFF0200D0
:10077000FB68D31A7A689A422ED81A4B1B881A4AF9
:100780001A4820210FF012FA0F210A2000F0F6FB80
:100790001749164B0122180000F08AFC154B1B88E4
:1007A000154A124820210FF001FA23210A2000F0F7
:1007B000E5FB0F490D4B0122180000F079FC00F019
:1007C00021FB084B1A880B4B1B881900100001F005
:1007D000D5F93B1900221A70FFF705FFB2E7C046B2
:1007E0008813000088030020E40905108C03002012
:1007F000EC0C00208A030020F409051090B589B0A4
:1008000000AF08243B19180018231A0000210FF02C
:10081000F7FA3B00180008231A0000210FF0F0FA45
:100820003B1903221A603B19802252025A603B197D
:100830001022DA603B19180009F01AFB031E01D0E0
:1008400000F016FA3B0000221A603B0020225A609A
:100850003B000021180009F055FC031E01D000F0F8
:1008600007FAC046BD4609B090BD80B586B000AF5E
:100870003B00180018231A0000210FF0C1FA3B00BA
:1008800002221A603B00802252015A613B0018008C
:1008900009F05AFD031E01D000F0EAF9C046BD463A
:1008A00006B080BD80B586B000AF3B0018001823AD
:1008B0001A0000210FF0A4FA224B234A1A60214BA0
:1008C00000225A601F4B0122DA601E4B00221A617F
:1008D0001C4B00225A611B4B00221A62194B00224A
:1008E0005A62184B00221A72164B00229A61154B5D
:1008F0000022DA61134B180005F0E2F8031E01D064
:1009000000F0B6F93B0004221A603B0000225A6056
:100910003B0000229A603B000322DA603B00002289
:100920005A613B0000221A613A00064B1100180080
:1009300005F090F9031E01D000F09AF9C046BD46BB
:1009400006B080BD980200200060004180B500AF75
:100950001C4B8222D2051A601A4B1B4A5A60194B53
:1009600000229A60174B0122DA60164B00221A61AE
:10097000144B00225A61134B00229A61114B002242
:10098000DA61104B00221A620E4B180005F024FEAB
:10099000031E01D000F06CF90A4B0021180006F08C
:1009A000E5FC031E01D000F063F9064B002118009E
:1009B00006F028FD031E01D000F05AF9C046BD46DE
:1009C00080BDC046D00200201A06100080B500AFDE
:1009D000064B074A1A60054B180006F05FFD031E20
:1009E00001D000F045F9C046BD4680BD240300207B
:1009F0000000304880B582B000AF00237B6001204A
:100A0000FFF73CFE031E08D10120FFF74BFE01203B
:100A1000FFF758FE0120FFF71BFEC023DB057B60BC
:100A20003B1D180007F0C2F8C046BD4602B080BDAD
:100A300080B582B000AF3B00180008231A000021E7
:100A40000FF0DEF90120FFF719FE031E08D1012087
:100A5000FFF728FE0120FFF735FE0120FFF7F8FD24
:100A6000C0460C4B1800FFF7D2FD03000F2BF8D93E
:100A70003B00A02252001A803B0000229A703B00EB
:100A800000225A603B00180007F084FDC046BD46B6
:100A900002B080BD0018006080B500AF0E4B0F4A59
:100AA0001A600D4B00225A600B4B7F229A600A4B52
:100AB000FF22DA60084B00221A61074B00225A61BC
:100AC000054B180009F07CFC031E01D000F0D0F8A3
:100AD000C046BD4680BDC0463003002000400040F7
:100AE00080B586B000AF3B1D180014231A0000210A
:100AF0000FF086F91B4B1C4A1A601A4B00225A60F1
:100B0000184B00229A60174B01225242DA60154BB3
:100B100000221A61134B00229A61124B180009F04F
:100B200063FD031E01D000F0A3F83B1D07221A60ED
:100B30003B1D70225A603B1D00229A603B1D002223
:100B4000DA603B1D00221A613A1D064B11001800A5
:100B500009F08EFD031E01D000F08AF8C046BD46A4
:100B600006B080BD4C0300200020004080B586B058
:100B700000AF3B1D180014231A0000210FF040F9AC
:100B80000820FFF74FFD0420FFF74CFD02F081F92C
:100B90003B1D8022D2011A603B1D03225A603B1D7F
:100BA00000229A603B1D0A4A1900100005F054FB10
:100BB0008023DB011900012006F0BCFD8023DB014E
:100BC0001900012006F01EFEC046BD4606B080BDDD
:100BD0000000104880B584B002AFFB1DFD221A70E2
:100BE0003B00180006231A0000210FF009F9FA1D36
:100BF0001C4801235B4200930123882105F092FDEC
:100C0000031E28D10A2004F043FD3A0015480123B1
:100C10005B4200930623882105F0AEFE031E1CD123
:100C20003B001B781BB21B021AB23B005B781BB265
:100C300013431BB29AB20C4B1A803B00DB781BB2F9
:100C40001B021AB23B001B791BB213431BB29AB2B0
:100C5000064B1A8002E0C04600E0C046BD4602B026
:100C600080BDC046D0020020880300208A030020F7
:100C700080B500AF72B6C046C046FDE780B582B011
:100C800000AF00F03BFA5B4B5B480122782105F096
:100C90007BFF031E01D00023A8E0584B7B6002E0DD
:100CA0007B68013B7B607B68002BF9D1AE22002181
:100CB000782000F0A3FA20220021782000F09EFA8C
:100CC00010220021782000F099FAB022002178202B
:100CD00000F094FAC0220021782000F08FFA002260
:100CE0000021782000F08AFA10220021782000F0FC
:100CF00085FA40220021782000F080FA812200212C
:100D0000782000F07BFAFF220021782000F076FAAC
:100D1000A0220021782000F071FAA622002178207C
:100D200000F06CFAA8220021782000F067FA3F2238
:100D30000021782000F062FAA4220021782000F03F
:100D40005DFAD3220021782000F058FA0022002119
:100D5000782000F053FAD5220021782000F04EFAD6
:100D6000F0220021782000F049FAD92200217820D1
:100D700000F044FA22220021782000F03FFADA2223
:100D80000021782000F03AFA12220021782000F0A9
:100D900035FADB220021782000F030FA20220021F1
:100DA000782000F02BFA8D220021782000F026FA1E
:100DB00014220021782000F021FAAF2200217820AF
:100DC00000F01CFA2E220021782000F017FA0020F3
:100DD00000F04CF800F016F8094B00221A80084B7E
:100DE00000225A80064B01225A7101231800BD4689
:100DF00002B080BD204E0000D0020020C4090000D7
:100E0000AC07002080B582B000AFFB1D00221A7035
:100E100021E0FB1D1B78503BDBB21A00002178203B
:100E200000F0ECF900220021782000F0E7F9102210
:100E30000021782000F0E2F9FB1D1B78DA010A4B53
:100E4000D21880234021782000F06CF9FB1D1A781D
:100E5000FB1D01321A70FB1D1B78072BD9D9C04628
:100E6000C046BD4602B080BDAC03002080B582B054
:100E700000AF0200FB1D1A70FB1D1B78002B01D177
:100E8000002300E0FF238022D200044819000EF066
:100E9000B7FFC046BD4602B080BDC046AC030020CF
:100EA00090B583B000AF040008001100BB1D221CE8
:100EB0001A803B1D021C1A80FB1C0A1C1A70BB1DE9
:100EC0001B887F2B52D83B1D1B883F2B4ED8294BAC
:100ED0001B79002B06D0FB1C1B785A425341DAB217
:100EE000FB1C1A70FB1C1B78012B1ED1BB1D1A8822
:100EF0003B1D1B88DB0898B20300DB01D3181E4A98
:100F0000D35C5AB23B1D1B8807210B40012199403D
:100F10000B005BB2134359B2BB1D1A880300DB01FF
:100F2000D318C9B2144AD15421E0BB1D1A883B1D05
:100F30001B88DB0898B20300DB01D3180E4AD35C90
:100F40005BB23A1D128807210A40012191400A0034
:100F500052B2D24352B2134059B2BB1D1A88030099
:100F6000DB01D318C9B2044AD15400E0C046BD46E3
:100F700003B090BDAC070020AC03002080B582B068
:100F800000AF0200BB1D1A803B1D0A1C1A80064BD5
:100F9000BA1D12881A80044B3A1D12885A80C04626
:100FA000BD4602B080BDC046AC07002080B586B00B
:100FB00000AF39601100FB1D021C1A70BB1D0A1C1A
:100FC0001A703A4B1B881A003B681B78D3187F2B8A
:100FD00007DC364B5B881A003B685B78D3183F2BE5
:100FE00001DD00235DE000237B614AE03B685A6835
:100FF000FB1D1B78203B396849784B4319007B69FE
:10100000CB185B00D3181B88FB6000233B612FE0EB
:10101000FA683B699A4080231B02134011D0234B8E
:101020001A883B699BB2D31898B2204B5A887B69C7
:101030009BB2D31899B2BB1D1B781A00FFF730FF83
:1010400013E01A4B1A883B699BB2D31898B2174B1E
:101050005A887B699BB2D31899B2BB1D1B785A4240
:101060005341DBB21A00FFF71BFF3B6901333B61C1
:101070003B681B781A003B699342C9D37B690133F3
:101080007B613B685B781A007B699342AED3074B68
:101090001B883A6812789B189AB2044B1A80FB1D81
:1010A0001B781800BD4606B080BDC046AC070020C6
:1010B00080B584B000AFF860B960FB1D1A7013E012
:1010C000FB681878FB1D1A78BB681900FFF76EFFE4
:1010D00003001A00FB681B789A4202D0FB681B7859
:1010E00008E0FB680133FB60FB681B78002BE7D14D
:1010F000FB681B781800BD4604B080BD80B582B087
:1011000000AF074B7B6002E07B68013B7B607B6844
:10111000002BF9D1C046C046BD4602B080BDC046D6
:1011200090D00300B0B5C6B002AF040008003A602A
:1011300019002D4B88256D005B19DB19221C1A70D4
:101140002A4B2C001B19DB19021C1A70284B20009B
:101150001B18DB190A1C1A80264B1B18DB19234AA3
:101160001218D21912781A701023FF33FB180022BC
:101170001A7014E01020FF303B181B783A68D21820
:101180003B181B78013311781A4A8824640012191D
:10119000D219D1543B181A783B1801321A70102317
:1011A000FF33FB181B789BB2114A88214900521863
:1011B000D21912889A42DDD80B4B0A009B18DB1912
:1011C0001B7899B20A4B9B18DB191B8801339BB221
:1011D0000C22BA1808480A24009405F0A3FAC04665
:1011E000BD4644B0B0BDC046F7FEFFFFF6FEFFFFB0
:1011F000F4FEFFFFFCFEFFFFD002002090B587B099
:1012000002AF040008001100FB1D221C1A70BB1D58
:10121000021C1A707B1D0A1C1A700C203B18BA1D88
:1012200012781A703B187A1D12785A70FB1D1B78C1
:1012300099B23A1804480A230093022305F072FA7F
:10124000C046BD4605B090BDD002002080B584B038
:1012500000AF7860074B196D064B7A680A431A6530
:10126000044B1B6D7A681340FB60FB68C046BD46AB
:1012700004B080BD0000404880B584B000AF786005
:10128000074B596D064B7A680A435A65044B5B6DF0
:101290007A681340FB60FB68C046BD4604B080BD61
:1012A0000000404880B584B000AF7860074B996D6E
:1012B000064B7A680A439A65044B9B6D7A68134023
:1012C000FB60FB68C046BD4604B080BD00004048DE
:1012D00080B584B000AF7860074B196E064B7A6812
:1012E0000A431A66044B1B6E7A681340FB60FB6866
:1012F000C046BD4604B080BD0000404880B582B005
:1013000000AF7860064B1B6E7A6813407A689A4289
:1013100001D1012300E000231800BD4602B080BDCA
:101320000000404880B582B000AF7860044B196C73
:10133000034B7A680A431A64C046BD4602B080BDBA
:101340000000404880B582B000AF7860054B1A6C51
:101350007B68D943034B0A401A64C046BD4602B0BD
:1013600080BDC0460000404880B582B000AF00F0AC
:1013700067F93B00180008231A0000210EF040FD19
:1013800080235B001800FFF777FF3B000E221A60F6
:101390003B0000225A603B00180006F059F906F0A5
:1013A00081F9C046BD4602B080BD000090B589B04D
:1013B00000AF78600C243B19180014231A00002198
:1013C0000EF01EFD7B681B68134A93421FD120203C
:1013D000FFF768FF1020FFF765FF0820FFF736FFD3
:1013E0003B1908221A603B1903225A603B1900225C
:1013F0009A603B19094A1900100004F02DFF0821DA
:10140000012006F097F90821012006F0FBF9C046FB
:10141000BD4609B090BDC0460060004100001048C4
:1014200090B589B000AF78600C243B1918001423E4
:101430001A0000210EF0E4FC7B681A688223DB05A9
:101440009A4225D10820FFF701FF21007B18C02216
:101450001A607B1812225A607B1800229A607B184F
:101460000022DA607B1800221A617B180A4A1900F0
:10147000100004F0F1FEC021012006F05BF9C0214C
:10148000012006F0BFF980239B031800FFF70AFF35
:10149000C046BD4609B090BD0000104880B582B07E
:1014A00000AF78607B681B68094A93420CD18023A7
:1014B0005B021800FFF7CAFE002201210D2004F094
:1014C00037FD0D2004F049FDC046BD4602B080BD89
:1014D0000000304890B589B000AF786008243B190F
:1014E000180018231A0000210EF08AFC7B681A6885
:1014F000C023DB059A4235D13B1901221A603B1902
:1015000004221A613B19180008F01EFF031E01D0C7
:10151000FFF7AEFB0120FFF7F1FE031E08D101200B
:10152000FFF700FF0120FFF70DFF0120FFF7D0FEBE
:1015300001F0AFFC00220021122004F0F9FC12207F
:1015400004F00BFD00220021192004F0F1FC192009
:1015500004F003FD00220021162004F0E9FC16200F
:1015600004F0FBFCC046BD4609B090BD90B589B003
:1015700000AF786008243B19180018231A000021D6
:101580000EF03EFC7B681B680D4A934213D13B1959
:1015900020221A603B19802212029A603B1918001F
:1015A00008F0D2FE031E01D0FFF762FB80235B012F
:1015B0001800FFF761FEC046BD4609B090BDC046A9
:1015C0000040004090B589B000AF78600C243B1912
:1015D000180014231A0000210EF012FC7B681B680F
:1015E000154A934223D10120FFF746FE0820FFF75A
:1015F0002DFE21007B1802221A607B1802225A60FD
:101600007B1800229A607B180022DA607B18032284
:101610001A617B18094A1900100004F01DFE02210E
:10162000012006F087F80221012006F0EBF8C04601
:10163000BD4609B090BDC0460020004000001048E3
:1016400080B500AF0F21002006F03AF8F0231B010F
:101650001900002006F09CF8064B1900012006F046
:1016600097F8054B1900012006F02AF8C046BD4640
:1016700080BDC046C930000036C0000080B582B0D1
:1016800000AF78607B68DB6920221340202B01D1FA
:10169000012300E000231800BD4602B080BD80B5E4
:1016A00082B000AF78607B685B6ADBB21800BD4631
:1016B00002B080BD80B500AFC046BD4680BD80B5DC
:1016C00000AFC046FDE780B500AFC046BD4680BD57
:1016D00080B500AFC046BD4680BD80B500AF03F009
:1016E000B1FFC046BD4680BD80B582B000AF0C4B97
:1016F0001800FFF7C3FF0300012B0CD1084B1800A3
:10170000FFF7CDFF03001A00FB1D1A70FB1D01211E
:101710001800FEF733FFC046BD4602B080BDC0468C
:101720000040004180B500AF034B180005F012FFE8
:10173000C046BD4680BDC0462403002080B500AF32
:1017400008F0A0F9C046BD4680BD80B500AF08F0E6
:10175000A2F9C046BD4680BD80B500AF06F074FD5D
:10176000C046BD4680BD80B500AF06F0A5FDC046B1
:10177000BD4680BD80B500AF06F088FDC046BD46C1
:1017800080BD80B586B000AFF860B9607A60002394
:101790007B610AE000E000BF0100BB685A1CBA6030
:1017A000CAB21A707B6901337B617A697B689A429D
:1017B000F0DB7B681800BD4606B080BD80B586B002
:1017C00000AFF860B9607A6000237B6109E0BB6814
:1017D0005A1CBA601B78180003F030FD7B69013396
:1017E0007B617A697B689A42F1DB7B681800BD46B1
:1017F00006B080BD80B582B000AF786001235B4247
:101800001800BD4602B080BD80B582B000AF7860E0
:1018100039603B68802292015A6000231800BD465F
:1018200002B080BD80B582B000AF7860012318009F
:10183000BD4602B080BD80B584B000AFF860B9602D
:101840007A6000231800BD4604B080BD80B586B024
:1018500000AF7860144A154BD31A7B617B693B61FA
:10186000134B1B68002B02D1114B124A1A60104B0C
:101870001A687B68D3183A699A4207D20EF016FBB1
:1018800003000C221A6001235B4209E0084B1B682D
:10189000FB60074B1A687B68D218054B1A60FB681F
:1018A0001800BD4606B080BD00600020000C00009E
:1018B000B4070020EC21002080B500AF00F0A0F9B3
:1018C00003F0D8F90300013301D1FFF7D1F9C04685
:1018D000BD4680BDB0B592B000AF4723FB180022D3
:1018E0001A703C23FB18180006231A0000210EF082
:1018F00087FA3B23FB1806221A703A1D244B10006E
:10190000190034231A000EF0DAFA46257C193B1D23
:10191000180009F0FDFD030023707B191B78002BD4
:1019200001D0FFF7A5F946257C191821002009F000
:1019300073FC030023707C194223FB18190001205B
:1019400003F0D3F90300237045217B1800221A709D
:101950007B187A18127801210A431A707C194723E0
:10196000FB181B780121180009F078FB0300237095
:101970007C193C23FA183B23FB181900802009F03E
:1019800047FC03002370C046BD4612B0B0BDC04640
:10199000000A051080B500AF0121012009F0E6FA28
:1019A000C046BD4680BD80B500AF012001F05DFAA4
:1019B00009F0CEFC012001F062FAC046BD4680BDB0
:1019C00080B500AF06F0D8FEC046BD4680BD80B5EC
:1019D00000AF0021022009F0C9FAC046BD4680BD13
:1019E00080B500AF03F0CCF8C046BD4680BD80B5E1
:1019F00000AF0121042009F0B9FAC046BD4680BD00
:101A000080B500AFFFF7E3FFC046BD4680BD80B59F
:101A100082B000AF78607B6818000CF0A7FCFFF77D
:101A2000D6FFFFF7E4FFC046BD4602B080BD80B5DB
:101A300082B000AF78607B6818000CF092FCC04662
:101A4000BD4602B080BD80B500AFFFF7A3FFC04622
:101A5000BD4680BD80B500AF0C4B1A0000210120AF
:101A600009F060FA0A4B1A000021022009F05AFA24
:101A7000084B1A000021042009F054FAFFF71CFF5C
:101A8000FFF728FFC046BD4680BDC046A719041019
:101A9000C1190410E119041080B582B000AF78605C
:101AA000C046BD4602B080BDB0B590B00CAF0F25AA
:101AB0007B1900221A700C217B18FA2252011A801D
:101AC0007B181A887B181B887C1900210A91002139
:101AD000099101210891002107910121069100211E
:101AE0000591002104910021039101210291072118
:101AF00001910093130010220221022009F0D2FA72
:101B0000030023707B191B78002B02D07B191B78F4
:101B10002DE00F257C19184B19220321022009F012
:101B2000F6FA030023707B191B78002B02D07B1977
:101B30001B781CE03B1D02221A703B1D00225A80BC
:101B40003B1D00221A710F257C193B1D1A00012133
:101B5000012009F0E0FA030023707B191B78002BA9
:101B600002D07B191B7802E00F23FB181B781800AA
:101B7000BD4604B0B0BDC046F40C002080B582B0B4
:101B800000AF0200BB1D1A803B1D0A1C1A80BB1D42
:101B90001B881B0A9BB2DAB2184BDA73BB1D1B8879
:101BA000DAB2164B1A743B1D1B881B0A9BB2DAB2C1
:101BB000124B5A733B1D1B88DAB2104B9A730F4BB2
:101BC00000225A740D4B2D229A740C4BC622DA74E3
:101BD0000A4BC0221A75094B00225A75074B1E2268
:101BE0009A75064B8422DA75044B80221A76FFF729
:101BF0005BFFC046BD4602B080BDC046F40C00206D
:101C000080B500AF02F026FD074B1900002002F05E
:101C10007FFE064B1900012002F07AFE044B024AB7
:101C20001A60C046BD4680BDB8070020C807002026
:101C3000D8070020F0B589B002AFB96011007B6011
:101C40000F243B19021C1A700C23FB180A1C1A8063
:101C50003B191B78022B03D11A4B1B4A1A6002E076
:101C6000184B1A4A1A60174B18681726BC19BD681A
:101C70000C23FB181B889C460F23FB1819787B68E4
:101C80000193282308229B18DB191B8800932B0043
:101C9000624602F0DFFE03002370BB191B78002BA5
:101CA00001D1002309E01723FB181B78022B02D176
:101CB00001235B4201E002235B421800BD4607B0EE
:101CC000F0BDC046D8070020C8070020B807002094
:101CD000B0B586B002AF0400080011003B60FB1DE8
:101CE000221C1A70BB1D021C1A703B1D0A1C1A8094
:101CF000BB1D1B78022B07D12E4B2F4A1A600E23D7
:101D0000FB1801221A7006E02A4B2C4A1A600E2397
:101D1000FB1800221A70FB1D1B78022B12D1254BD9
:101D200018680F23FC182023FB181D883A683B1DF8
:101D300019880C23FB1800932B0002F057FE0300B8
:101D4000237021E0FB1D1B78002B08D1194B1A686A
:101D50000E23FB181B781100180002F0D9FD154B5B
:101D600018680F23FC183D683B1D1A88BB1D1978A5
:101D70000C23FB1801932023FB181B8800932B00D6
:101D800002F0FAFD030023700F23FB181B78002BD1
:101D900001D1002309E00F23FB181B78042B02D18B
:101DA00003235B4201E002235B421800BD4604B0FE
:101DB000B0BDC046D8070020C8070020B8070020E3
:101DC00080B584B000AFF860B9607A607A68B968AD
:101DD000FB681800FEF796F9C046BD4604B080BD0A
:101DE00080B584B000AFF860B9607A607A68B9688D
:101DF000FB6818000EF004F8C046BD4604B080BD74
:101E000090B589B000AFF860B9607A6010243B19D2
:101E1000180003F0D3F921007B181A78FB681A70B8
:101E20007B185A78BB681A707B189A787B681A708E
:101E3000C046BD4609B090BD80B584B000AFF86023
:101E4000B9607A607A68B968FB68180001F086F8B2
:101E5000C046BD4604B080BD80B582B000AF78609A
:101E60007B68180001F0E6FCC046BD4602B080BDAC
:101E700080B582B000AF78607B68180001F0F4FC98
:101E8000C046BD4602B080BD80B500AF03F0BAF8D1
:101E900003001800BD4680BD80B500AF03F0B8F860
:101EA00003001800BD4680BD80B582B000AF0200BF
:101EB000FB1D1A70FB1D1B78180003F0AFF8C0461D
:101EC000BD4602B080BD80B500AF06F09BFE0200AB
:101ED0000B0010001900BD4680BD80B584B000AF76
:101EE000F8603A607B603A687B68F968080006F041
:101EF00097FE03001800BD4604B080BD80B582B0D7
:101F000000AF78607B68180006F0A4FEC046BD46AE
:101F100002B080BD80B582B000AF786008001100CB
:101F2000FB1C021C1A70BB1C0A1C1A70BB1C1A7802
:101F3000FB1C19787B68180006F022FD0300DBB259
:101F40001800BD4602B080BD80B500AF06F08CFD24
:101F50000300DBB21800BD4680BD80B582B000AF83
:101F600078607B68180006F0F7FC02000B00100098
:101F70001900BD4602B080BD80B500AF06F0E8FD97
:101F8000C046BD4680BD000080B582B000AF78601D
:101F9000074B5B687F22934319007B687F221A40BE
:101FA000034B0A435A60C046BD4602B080BDC046DE
:101FB000C000002080B500AF044B5A68034B80215D
:101FC0000A435A60C046BD4680BDC046C0000020DE
:101FD00080B500AF044B5A68034B80218A435A6096
:101FE000C046BD4680BDC046C000002080B582B05E
:101FF00000AF7860074B1B69074A134019007B68E4
:102000001B02064A1A40034B0A431A61C046BD46EA
:1020100002B080BDC0000020FF0000F000FFFF0FF5
:1020200080B582B000AF0200FB1D1A70FB1D1B784B
:102030005C225343084A944663441A68FB1D1B788C
:102040005C214B4304498C46634440210A431A6097
:10205000C046BD4602B080BDDC00002080B582B025
:1020600000AF0200FB1D1A70FB1D1B785C2253435E
:10207000084A944663441A68FB1D1B785C214B4355
:1020800004498C46634440218A431A60C046BD46D9
:1020900002B080BDDC00002080B582B000AF02003D
:1020A000FB1D1A70FB1D1B785C225343084A9446A3
:1020B00063441A68FB1D1B785C214B4304498C4622
:1020C000634480210A431A60C046BD4602B080BD09
:1020D000DC00002080B582B000AF0200FB1D1A704A
:1020E000FB1D1B785C225343084A944663441A68DC
:1020F000FB1D1B785C214B4304498C4663448021C3
:102100008A431A60C046BD4602B080BDDC00002094
:1021100080B582B000AF02003960FB1D1A70FB1D54
:102120001B785C2253430C4A944663441B680B4A59
:10213000134019003B681A02FC239B011A40FB1D47
:102140001B785C2043430448844663440A431A6076
:10215000C046BD4602B080BDDC000020FFC0FFFFCE
:1021600080B582B000AF02003960FB1D1A70FB1D04
:102170001B785C2253430C4A944663441B680B4A09
:10218000134019003B681A06E023DB041A40FB1DCC
:102190001B785C2043430448844663440A431A6026
:1021A000C046BD4602B080BDDC000020FFFFFFF846
:1021B00080B582B000AF02003960FB1D1A70FB1DB4
:1021C0001B785C2253430C4A944663441B680B4AB9
:1021D000134019003B681A07E023DB051A40FB1D7A
:1021E0001B785C2043430448844663440A431A60D6
:1021F000C046BD4602B080BDDC000020FFFFFF8F5F
:1022000080B582B000AF02003960FB1D1A70FB1D63
:102210001B785C225343084A944663445B68FB1D69
:102220001B785C225343044A944663443A685A60DC
:10223000C046BD4602B080BDDC00002080B582B043
:1022400000AF02003960FB1D1A70FB1D1B785C2279
:102250005343084A944663449B68FB1D1B785C22E9
:102260005343044A944663443A689A60C046BD4664
:1022700002B080BDDC00002080B582B000AF02005B
:102280003960FB1D1A70FB1D1B785C225343084A02
:10229000944663445B6AFB1D1B785C225343044AEB
:1022A000944663443A685A62C046BD4602B080BD57
:1022B000DC00002080B582B000AF02003960FB1D59
:1022C0001A70FB1D1B785C2253430B4A94466344EF
:1022D0009B6A1B0E19063B681B021A0AFB1D1B7822
:1022E0005C2043430448844663440A439A62C046E0
:1022F000BD4602B080BDC046DC00002080B582B083
:1023000000AF02003960FB1D1A70FB1D1B785C22B8
:1023100053430A4A944663449B6A1B02190A3B686A
:102320001A06FB1D1B785C20434304488446634423
:102330000A439A62C046BD4602B080BDDC00002060
:1023400080B582B000AF02003960FB1D1A70FB1D22
:102350001B785C2253430B4A94466344DB6A1F227A
:10236000934319003B681F221A40FB1D1B785C2019
:1023700043430448844663440A43DA62C046BD4688
:1023800002B080BDDC00002080B582B000AF02004A
:102390003960FB1D1A70FB1D1B785C2253430C4AED
:1023A00094466344DB6A0B4A134019003B681A02E7
:1023B000FC239B011A40FB1D1B785C20434304480F
:1023C000844663440A43DA62C046BD4602B080BD1B
:1023D000DC000020FFC0FFFF80B582B000AF786056
:1023E00039607B681B687B683A681A60C046BD46E6
:1023F00002B080BD80B582B000AF786039607B6884
:102400005B68012293431A003B6801210B401A4389
:102410007B685A60C046BD4602B080BD80B582B0C0
:1024200000AF786039607B685B68042293431A00D0
:102430003B689B0004210B401A437B685A60C046EE
:10244000BD4602B080BD80B582B000AF7860396013
:102450007B685B68202293431A003B685B01202164
:102460000B401A437B685A60C046BD4602B080BD2F
:1024700080B582B000AF78607B685B688022934350
:102480001A007B685A60C046BD4602B080BD00009D
:1024900080B582B000AF786039607B685B68074ABE
:1024A0001A403B68190280235B000B401A437B688B
:1024B0005A60C046BD4602B080BDC046FFFEFFFF69
:1024C00080B582B000AF786039607B685B68074A8E
:1024D0001A403B68590280239B000B401A437B68DB
:1024E0005A60C046BD4602B080BDC046FFFDFFFF3A
:1024F00080B582B000AF786039607B685B68074A5E
:102500001A403B6899028023DB000B401A437B682A
:102510005A60C046BD4602B080BDC046FFFBFFFF0B
:1025200080B582B000AF786039607B689B687B685B
:102530003A689A60C046BD4602B080BD80B582B0A0
:1025400000AF786039607B68DB681B0D1A053B685B
:102550001B031B0B1A437B68DA60C046BD4602B002
:1025600080BD80B582B000AF78607B68DB68802278
:1025700052031A437B68DA60C046BD4602B080BD94
:1025800080B582B000AF786039607B68DB68074A4D
:102590001A403B6899058023DB030B401A437B6894
:1025A000DA60C046BD4602B080BDC046FFFFBFFF37
:1025B00080B582B000AF786039607B68DB68074A1D
:1025C0001A403B68D90580231B040B401A437B68E3
:1025D000DA60C046BD4602B080BDC046FFFF7FFF47
:1025E00080B582B000AF78607B68DB68802292049F
:1025F0001A437B68DA60C046BD4602B080BD80B534
:1026000082B000AF78607B68DB68802212061A43D4
:102610007B68DA60C046BD4602B080BD80B582B03E
:1026200000AF7860C023DB055B68074A13401900E0
:102630007B68064A1A40C023DB050A435A60C0463D
:10264000BD4602B080BDC0464F000200B0FFFDFF96
:1026500080B582B000AF7860C023DB059B6908229B
:10266000934319007B68DB0008221A40C023DB0576
:102670000A439A61C046BD4602B080BD80B582B0B3
:1026800000AF7860C023DB059B69012293431900EA
:102690007B6801221A40C023DB050A439A61C046C9
:1026A000BD4602B080BD90B589B000AF78600C0027
:1026B00010001900FB1C221C1A70BB1C021C1A7093
:1026C0007B1C0A1C1A707B683B610023BB61FB1CEE
:1026D0001B78012B00D079E0BB1C1B78002B06D1A6
:1026E0007B1C1B78002B02D104237B616AE0BB1C9E
:1026F0001B78002B06D17B1C1B78012B02D10323F6
:102700007B615FE0BB1C1B78002B0AD17B1C1B7814
:10271000062B03D07B1C1B78042B02D104237B6186
:1027200050E0BB1C1B78012B0ED17B1C1B78002BAF
:1027300007D07B1C1B78062B03D07B1C1B78042B3B
:1027400002D106237B613DE0BB1C1B78012B06D127
:102750007B1C1B78012B02D104237B6132E0BB1C64
:102760001B78062B03D0BB1C1B78042B06D17B1CCB
:102770001B78002B02D105237B6123E0BB1C1B7857
:10278000062B03D0BB1C1B78042B06D17B1C1B78AB
:10279000012B02D104237B6114E0BB1C1B78062BA8
:1027A00003D0BB1C1B78042B0AD17B1C1B78062B87
:1027B00003D07B1C1B78042B02D105237B6101E035
:1027C00006237B617B690233FB6115E0FB1C1B78F0
:1027D000002B05D10423BB60BB680333FB610BE016
:1027E000FB1C1B78022B05D10223FB60FB68053321
:1027F000FB6101E00023FB61FB1C1B78012B03D074
:10280000FB1C1B78022B0AD13023FB181B78012BF1
:1028100002D19B23BB6114E03D23BB6111E0FB1C93
:102820001B78002B03D0FB1C1B78032B09D1302312
:10283000FB181B78012B02D19923BB6101E03B23DC
:10284000BB61BA69FB69D3183A69D31A3B613B692A
:102850001800BD4609B090BD80B582B000AF786069
:102860007B681800FFF7DAFEC046BD4602B080BDA7
:1028700080B500AF0120FFF7EBFEC046BD4680BD2E
:1028800080B500AF0120FFF7F9FEC046BD4680BD10
:1028900080B500AFFFF79CFBC046BD4680BD80B54C
:1028A00000AFFFF787FBC046BD4680BD80B582B054
:1028B00000AF0200FB1D1A70FB1D1B781800FFF70C
:1028C00063FBC046BD4602B080BD000080B582B04B
:1028D00000AF78607B68034A13401800BD4602B021
:1028E00080BDC04630DFC90080B582B000AF7860DF
:1028F0007A688023DB0313401800BD4602B080BD18
:1029000080B582B000AF786000231800BD4602B0E9
:1029100080BD80B582B000AF78607A6880239B0468
:1029200013401800BD4602B080BD80B582B000AF34
:1029300078607A6880235B0213401800BD4602B0BD
:1029400080BD80B582B000AF78607A6880239B0339
:1029500013401800BD4602B080BD80B582B000AF04
:1029600078607A6880239B0013401800BD4602B04F
:1029700080BD80B582B000AF78607A6880231B018B
:1029800013401800BD4602B080BD80B582B000AFD4
:1029900078607B68DB0FDB071800BD4602B080BDA6
:1029A00080B582B000AF78607B6840221340180089
:1029B000BD4602B080BD80B582B000AF78607B6854
:1029C0001800FFF755FDC046BD4602B080BD80B57A
:1029D00082B000AF78607B6800211800FFF70AFD25
:1029E000C046BD4602B080BD80B582B000AF786001
:1029F0007B681022002118000DF002FAC046BD4687
:102A000002B080BD80B582B000AF78607B680121E4
:102A10001800FFF718FDC046BD4602B080BD80B566
:102A200082B000AF786039603A687B6811001800A6
:102A3000FFF776FDC046BD4602B080BD80B582B0CE
:102A400000AF78607B681800FFF7CAFDC046BD463E
:102A500002B080BD80B582B000AF78607B6818009E
:102A6000FFF7CDFDC046BD4602B080BD80B582B047
:102A700000AF78607B6801211800FFF7CFFCC046EB
:102A8000BD4602B080BD80B582B000AF78603960CD
:102A90003A687B6811001800FFF79EFCC046BD46EF
:102AA00002B080BD80B582B000AF78607B68002145
:102AB0001800FFF7EDFCC046BD4602B080BD80B5F2
:102AC00082B000AF78600A00FB1C1A70C046BD4699
:102AD00002B080BD80B582B000AF78607B68012114
:102AE0001800FFF7D5FCC046BD4602B080BD80B5DA
:102AF00082B000AF78607B6801211800FFF77AFC94
:102B0000C046BD4602B080BD80B582B000AF7860DF
:102B10007B6801211800FFF7D3FCC046BD4602B018
:102B200080BD80B582B000AF786039603A687B685C
:102B300011001800FFF702FDC046BD4602B080BD7F
:102B400080B582B000AF78607B681800FFF709FDA0
:102B5000C046BD4602B080BD80B582B000AF78608F
:102B60007B6801211800FFF723FDC046BD4602B077
:102B700080BD80B582B000AF78607B68012118000D
:102B8000FFF7FEFCC046BD4602B080BD80B582B0F6
:102B900000AF78607B6801211800FFF7A9FC7B6813
:102BA00001211800FFF78CFCC046BD4602B080BD75
:102BB00080B582B000AF786039603B681B031B0BA7
:102BC0001800FFF713FAC046BD4602B080BD80B5BD
:102BD00082B000AF02003960FB1D1A703B68002B09
:102BE00005D0FB1D1B781800FFF71AFA04E0FB1D47
:102BF0001B781800FFF732FAC046BD4602B080BD10
:102C000080B582B000AF0200FB1D1A70FB1D1B785F
:102C10005C225343084A944663445C220021180016
:102C20000DF0EEF8FB1D1B7801211800FFF7CFFF18
:102C3000C046BD4602B080BDDC00002080B582B039
:102C400000AF02003960FB1D1A703A68FB1D1B784B
:102C500011001800FFF710FBC046BD4602B080BD52
:102C600080B582B000AF02003960FB1D1A703A686F
:102C7000FB1D1B7811001800FFF71CFBC046BD466A
:102C800002B080BD80B582B000AF0200FB1D1A709B
:102C9000BB1D0A1C1A70BB1D1A78FB1D1B78110086
:102CA0001800FFF72BFBC046BD4602B080BD80B5C3
:102CB00082B000AF0200FB1D1A70BB1D0A1C1A7007
:102CC000BB1D1A78FB1D1B7811001800FFF75CFB79
:102CD000C046BD4602B080BD80B582B000AF0200E4
:102CE000FB1D1A70BB1D0A1C1A70BB1D1A78FB1D38
:102CF0001B7811001800FFF70BFAC046BD4602B062
:102D000080BD80B582B000AF0200FB1D1A70FB1DB4
:102D10001B781800FFF7DEF9C046BD4602B080BD43
:102D200080B582B000AF02003960FB1D1A703A68AE
:102D3000FB1D1B7811001800FFF780FAC046BD4646
:102D400002B080BD80B582B000AF0200FB1D1A70DA
:102D5000BB1D0A1C1A70BB1D1A78FB1D1B781100C5
:102D60001800FFF725FAC046BD4602B080BD80B509
:102D700082B000AF0200FB1D1A70FB1D1B7818000B
:102D8000FFF78AF9C046BD4602B080BD80B582B06B
:102D900000AF02003960FB1D1A703A68FB1D1B78FA
:102DA00011001800FFF72CFAC046BD4602B080BDE6
:102DB00080B582B000AF0200FB1D1A70BB1D0A1C5B
:102DC0001A70BB1D1A78FB1D1B7811001800FFF745
:102DD000C7F9C046BD4602B080BD80B582B000AF25
:102DE0000200FB1D1A70BB1D0A1C1A70BB1D1A784D
:102DF000FB1D1B7811001800FFF7A2FAC046BD4664
:102E000002B080BD1048854602F0B2FA002103E00E
:102E10000E4B5B58435004310D480E4B42189A42FA
:102E2000F6D30D4A02E00023136004320B4B9A42A2
:102E3000F9D30B4A02E0002313600432094B9A4293
:102E4000F9D3FDF751FCFEE700600020BC1305102C
:102E5000EC0C0020880D002094010020EC0C0020D8
:102E6000C000002094010020FEE780B582B000AFD2
:102E70000200FB1D1A70C046BD4602B080BD80B581
:102E800082B000AF0200FB1D1A70C046BD4602B002
:102E900080BD80B500AFC046BD4680BD80B584B062
:102EA00000AF7860074B196E064B7A680A431A66C2
:102EB000044B1B6E7A681340FB60FB68C046BD463E
:102EC00004B080BD0000404880B582B000AF78609B
:102ED000064B1B6E7A6813407A689A4201D101232F
:102EE00000E000231800BD4602B080BD000040484D
:102EF00080B582B000AF7860044B196C034B7A68E0
:102F00000A431A64C046BD4602B080BD0000404876
:102F100080B582B000AF7860054B1A6C7B68D943EE
:102F2000034B0A401A64C046BD4602B080BDC0468D
:102F30000000404880B500AF0120FFF7C5FF031E29
:102F400008D10120FFF7D4FF0120FFF7E1FF0120A6
:102F5000FFF7A4FF00231800BD4680BD90B587B0E1
:102F600000AFF860B9607A60314B1B78DBB2013397
:102F7000DAB22F4B1A7017243B192D4A12781A70A7
:102F8000C023DB05BA6812689A62BB681A1DC023A9
:102F9000DB051268DA62BB6808331A00C023DB0560
:102FA00012681A63BB680C331A00C023DB05126871
:102FB0005A63C023DB05FA6812689A63FB681A1D1E
:102FC000C023DB051268DA63FB6808331A00C023EC
:102FD000DB0512681A64FB680C331A00C023DB059A
:102FE00012685A6400F026F8C023DB059A6C7B68EF
:102FF0001A60C023DA057B680433D26C1A60C023E0
:10300000DA057B680833126D1A60C023DA057B6825
:103010000C33526D1A60064B1B78DBB23A191278EA
:103020009A42A8D100231800BD4607B090BDC04603
:10303000DC07002080B582B000AFFB1D64221A704F
:10304000C023DB05180000F01CF8FB1D1B78DBB269
:10305000013BDAB2FB1D1A70C023DB05180000F03B
:103060001EF8031E05D0FB1D1B78DBB2002BECD134
:1030700000E0C046FB1D1B78DBB21800BD4602B065
:1030800080BD80B582B000AF78607B689B6D012207
:103090001A437B689A65C046BD4602B080BD80B5C4
:1030A00082B000AF78607B68DB6D01221340012B9A
:1030B00001D1012300E000231800BD4602B080BD0D
:1030C00080B582B000AF786039607B681B68054AC4
:1030D0001A403B681B021A437B681A60C046BD4613
:1030E00002B080BDFFC0FFFF80B582B000AF786046
:1030F00039607B681B68054A1A403B681B021A430B
:103100007B681A60C046BD4602B080BDFFC0FFFFAD
:1031100080B582B000AF78607B681B6802221A43DA
:103120007B681A60C046BD4602B080BD80B582B0E3
:1031300000AF78607B681B68802252031A437B686B
:103140001A60C046BD4602B080BD80B582B000AFF7
:1031500078607B681B68802212031A437B681A60C0
:10316000C046BD4602B080BD80B582B000AF786079
:103170007B681B68802292021A437B681A60C046F3
:10318000BD4602B080BD80B582B000AF78607B687C
:103190005A6880235B021A4080235B029A4201D165
:1031A000012300E000231800BD4602B080BD0000EE
:1031B00080B582B000AF7860396005497B68013323
:1031C000FF339B003A685A50C046BD4602B080BDEE
:1031D0000000304880B586B000AFF860B9607A6012
:1031E000FB689B000C4A944663447B610AE07A6862
:1031F000131D7B607B69191D796112681A60BB68B9
:10320000013BBB60BB68002BF1DC7B6900221A60CC
:10321000C046BD4606B080BD0004304880B586B0CB
:1032200000AFF860B9607A60FB689B000B4A944677
:1032300063447B610AE07A69131D7B617B68191D19
:10324000796012681A60BB68013BBB60BB68002BE9
:10325000F1DCC046C046BD4606B080BD0004304823
:1032600080B582B000AF7860034A7B689B009B58B2
:103270001800BD4602B080BD0004304880B500AFE4
:1032800001F0F8FC074B1800FFF750FF054B180042
:10329000FFF75BFF034B1800FFF766FFC046BD4614
:1032A00080BDC0460000304880B584B000AF786073
:1032B000144B00221A60144B00221A6001F0E6FC45
:1032C000124B7A681A600023FB600CE0FB68103335
:1032D0001A000F4BF9688900C9580C4B9200D15065
:1032E000FB680133FB60FB68072BEFDD094B1B68B4
:1032F00006490122524210009847C046BD4604B01C
:1033000080BDC046C0080020C4080020E00700209F
:10331000C8080020E808002080B582B000AFA74BA5
:103320001B68012B00D044E1A54B1B680E2B00D974
:103330003BE19A00A34BD3181B689F46A04B012288
:103340001A6036E19E4B02221A6032E19C4B032246
:103350001A602EE100237B600AE09B4B7A689200A2
:10336000D1589A4B7A689200D1507B6801337B60C8
:103370007B68072BF1DD964A964B1100180000F090
:10338000CBF98F4B04221A60904B93481A00082106
:10339000FFF744FF914B8D4A8C498020400000F09C
:1033A00083F906E18E4AFA235B0008211800FFF733
:1033B00035FF834B05221A60844B8A481A00082186
:1033C000FFF72CFF854B864A80498020400000F0A3
:1033D0006BF9EEE0844AFA235B0008211800FFF73E
:1033E0001DFF774B06221A60784AA9239B0008210B
:1033F0001800FFF713FF794B744A7449802040008E
:1034000000F052F9D5E0794AFA235B000821180050
:10341000FFF704FF6A4B07221A606C4B74481A00CE
:103420000821FFF7FBFE6D4B704A68498020400081
:1034300000F03AF9BDE06F4AFA235B00082118005A
:10344000FFF7ECFE5E4B08221A606A4A66496A4B37
:10345000180000F0F9F8ACE0594B09221A60FA2381
:103460005B001800FFF7FCFE031E04D0634B18003E
:10347000FFF71AFF9DE0554B57481A000821FFF748
:10348000CDFE564B564A51498020400000F00CF9C1
:103490008FE0584AFA235B0008211800FFF7BEFEB0
:1034A000474B0A221A60494B55481A000821FFF77A
:1034B000B5FE4A4B4F4A45498020400000F0F4F8E1
:1034C00077E0474AFA235B0008211800FFF7A6FEC1
:1034D0003B4B0B221A603D4AA9239B000821180090
:1034E000FFF79CFE3D4B414A38498020400000F0E8
:1034F000DBF85EE03C4AFA235B0008211800FFF786
:103500008DFE2F4B0C221A60304B3E481A000821CA
:10351000FFF784FE314B344A2C498020400000F0F4
:10352000C3F846E0314AFA235B0008211800FFF790
:1035300075FE234B0D221A602C4A29492E4B180088
:1035400000F082F835E0FA235B001800FFF788FEF0
:10355000031E04D02C4B1800FFF7A6FE29E0184BE1
:103560000E221A60FFF7D8FE23E0144B00221A60E7
:10357000134B00221A6001F089FB00233B600AE034
:10358000114B3A689200D158104B3A689200D150D2
:103590003B6801333B603B68072BF1DD1B4B1B682D
:1035A0000A4A11000020984703E0A020FFF77CFEA4
:1035B000FFE7C046BD4602B080BDC046C00800203F
:1035C000C4080020EC110510C8080020E007002006
:1035D0002008002000080020E3020000CC110510A4
:1035E000400800207A0200006008002080080020C7
:1035F000B9020000A0080020C411051008FF000057
:103600008F020000CE0200000DFF0000E80800203D
:1036100080B582B000AF7860FFF77EFE01F060FBFE
:10362000C046BD4602B080BD80B582B000AF7860B4
:103630007B689B681800FFF737FE01F051FBC0461E
:10364000BD4602B080BD000080B584B000AFF86018
:10365000B9607A60134B0C211800FFF745FDFB6839
:103660001B6819000120FFF7A3FDBA682E23FF3362
:1036700008211800FFF7AEFD7A689223FF33082176
:103680001800FFF7A7FDC046064B1800FFF77BFDAB
:10369000031EF9D1034B1800FFF73AFDC046BD46A3
:1036A00004B080BD0000304880B584B000AFF86041
:1036B000B9607A603B60164B10211800FFF700FDDF
:1036C000FB6819000120FFF773FDBA682E23FF3352
:1036D00008211800FFF77EFD7A689223FF33082146
:1036E0001800FFF777FD3B680A481A000821FFF72A
:1036F00071FDC046064B1800FFF745FD031EF9D1CA
:10370000034B1800FFF704FDC046BD4604B080BD62
:10371000000030485702000080B582B000AF7860EA
:1037200039607B68002B05D07B681A000821572080
:10373000FFF774FD3B68002B05D03B681A00082199
:103740006C20FFF76BFDC046BD4602B080BD000097
:1037500080B584B000AF7860074B196D064B7A686E
:103760000A431A65044B1B6D7A681340FB60FB68C3
:10377000C046BD4604B080BD0000404880B582B060
:1037800000AF78607B681B68042293431A007B6853
:103790001A60C046BD4602B080BD80B582B000AFA1
:1037A00078607B685B6801221340012B01D1012303
:1037B00000E000231800BD4602B080BD80B582B095
:1037C00000AF78607B685B6804221340042B01D152
:1037D000012300E000231800BD4602B080BD80B583
:1037E00082B000AF78607B689B689BB21800BD46D2
:1037F00002B080BD80B500AF8023DB021800FFF768
:10380000A7FF0B4B1800FFF7B9FFC046084B180085
:10381000FFF7C3FF031EF9D0054B1800FFF7CEFFDB
:10382000031E01D0012300E000231800BD4680BD27
:103830000000604880B582B000AF7860C046094B98
:103840001800FFF7AAFF031EF9D0064B1800FFF778
:10385000C6FF03001A007B681A8000231800BD46CB
:1038600002B080BD0000604890B585B000AF7860C0
:103870007B68FB60C046114B1800FFF78EFF031EEC
:10388000F9D00E4B1800FFF7AAFF03001A00FB68DF
:103890001A80C046094B1800FFF77FFF031EF9D0BE
:1038A000FB689C1C054B1800FFF799FF0300238061
:1038B00000231800BD4605B090BDC046000060481A
:1038C00080B584B000AF78607B681B68FB607B6864
:1038D00000221A817B6800225A817B6800229A812B
:1038E0007B6800229A73FB68BB60BB681B78FF2B68
:1038F0000CD17B685B689AB2FB689BB2D31A9BB20F
:10390000043B9AB27B689A81002328E0BB681B784D
:10391000FE2B06D17B681B8901339AB27B681A8122
:103920000CE0BB681B78002B06D17B685B890133F8
:103930009AB27B685A8101E0032310E0BB685B8880
:103940000333032213431A00FB68D3180133FB60CF
:10395000FB685A1D7B685B689A42C4D30023180039
:10396000BD4604B080BD80B586B000AFF8607A6017
:103970003B600B23FB180A1C1A7020203B181B8885
:10398000002B0AD010217A183B181B8853807B1813
:10399000FE221A707B187B6102E0FB685B687B612A
:1039A000FB685A68FB689B689A4203D27B691B7864
:1039B000FF2B01D104234BE0FB681B7B002B03D0C2
:1039C000FB6800221A7319E0FB685B687A69528809
:1039D000033203210A439B185A1CFB685A60FB6898
:1039E0005B687B61FB685A68FB689B689A4203D2FC
:1039F0007B691B78FF2B01D1042329E07B691B78AD
:103A0000002B23D07B691B78FE2B01D003231FE002
:103A10000B22BB181B78FF2B05D07B695B78BA188B
:103A200012789A42C8D1FB685B6804331A007B683D
:103A30001A607B695A883B681A807B6A002B03D026
:103A40007B695A787B6A1A70002301E0C046B3E7AD
:103A50001800BD4606B080BDF0B58BB002AFF8606F
:103A6000080011007B600B23FB18021C1A7008224F
:103A70001000BB180A1C1A80FB6B00221A801F263C
:103A8000BC191622BD181822BA180B23FB18197876
:103A9000FB689C467B6C019338231B18DB191B8841
:103AA00000932B006046FFF75EFF03002370BB19F5
:103AB0001B78002B02D0BB191B7827E01623FB18BC
:103AC0001B880822BA1812889A4201D306231DE0E7
:103AD000BA6908243B191B88D118302308229B1887
:103AE000DB191A881623FB181B8818003B191B8842
:103AF000C31A9A4200DD1A007B6818000CF0DFF947
:103B00001623FB181A88FB6B1A8000231800BD4689
:103B100009B0F0BD90B589B000AFF8607A600A20B6
:103B20003B180A1C1A807B68BB6101007B181B884C
:103B30009B089AB216203B1892001A807B181B88AB
:103B4000D9B23B181B88DAB21523FB188A1A1A70EF
:103B50000023FB6113E0FB69BA69D1181023FB183D
:103B6000042218000CF0ABF9FA69FB68D3183A6923
:103B70001900002002F00EFAFB690433FB611624E1
:103B80003B191B88FA699A42E5DB01235B423B61E2
:103B90003B191B88BA69D1181523FB181A78102312
:103BA000FB1818000CF08BF93B191A88FB68D31826
:103BB0003A691900002002F0EDF9C046BD4609B08F
:103BC00090BDF0B587B000AFF860080011007B60D1
:103BD0000B257B19021C1A7008243B190A1C1A8039
:103BE00000233B611023FB187B613B191B88013BC1
:103BF0009BB21BB2032213431BB29AB23B19013290
:103C00001A807B69FE221A707B697A1912785A70C1
:103C10003A1920250826AB1908218C46BC44634478
:103C200012881B88D3189AB27B695A803A69FB685C
:103C30001900002002F0AEF9FB68181D7A683B19E4
:103C40001B881900FFF766FF3B191A88FB68D31819
:103C5000181D7A6BAB1908218C46BC4463441B8841
:103C60001900FFF757FF00231800BD4607B0F0BD4D
:103C700090B587B000AFF86008007A6019000A2399
:103C8000FB18021C1A8008231800FB180A1C1A8053
:103C9000BB6A00221A8024221318DB191B88002B10
:103CA0000BD010217B181218D21912885A807B1859
:103CB000FE221A707B187B6102E0FB685B687B6107
:103CC000FB685A68FB689B689A4203D27B691B7841
:103CD000FF2B01D1042333E0FB681B7B002B03D1B6
:103CE0007B691B78FE2B01D0052329E07B695B886B
:103CF0000A22BA1812889A4201D3062320E0FB68F0
:103D000000221A730A243B191A88FB685B68D318CF
:103D1000043318000823FB181A887B695B88190094
:103D20003B191B88CB1A9A4200DD1A007B68010000
:103D300018000CF0C4F87B695A88BB6A1A8000230B
:103D40001800BD4607B090BD80B588B000AF786060
:103D50000A00FB1C1A707B680D4A94466344DB0A18
:103D6000FB6110217B1800221A60FA697B185A60E7
:103D7000FB1C1A787B189A600C23FA187B18110028
:103D8000180002F0E5F9C046BD4608B080BDC04647
:103D90000000FCEF80B586B000AFF860B9607A60D3
:103DA0007B685B055B0D07D1FB687A68B968180012
:103DB0000CF018F8031E26D07B68013B144A13430D
:103DC0000133DB0ADAB2FB6811001800FFF7BCFF11
:103DD00000237B6112E07A69FB68D1187B69002BB4
:103DE00000DA03339B109B00BA68D3181B681A00D3
:103DF000002002F0CFF87B6904337B617B697A682D
:103E00009A42E8D800E0C046BD4606B080BDC04634
:103E1000FF07000080B582B000AF78607B680122A8
:103E20001A707B6800225A807B6800229A80C04604
:103E3000BD4602B080BDF0B58DB004AFF860B9608A
:103E40003B60BB1D1A801E23FB1800221A80BB1D7D
:103E50001A88BB68FF2118000BF0D2FF1023FB1853
:103E6000FE221A70BA1D1E257B1912881B88D31AD0
:103E70009AB21C23FB18043A1A80BB6B1B78002BE8
:103E80004ED07B191B880433BA68D118BB6B9B8852
:103E90001B26BC19F8681022BA180132039202934B
:103EA0001622BB1801931C23FB181B8800930B00E0
:103EB0000022FF21FFF7D0FD030023701622BB185C
:103EC0001A88BB6B9A80BB191B78002B06D03B6805
:103ED0007A1912881A80BB191B78A1E01623FB18E7
:103EE0001A8810217B185A801E257B191B88BA68F6
:103EF000D3180C007918042218000BF0E0FF3B19CE
:103F00005B8803339BB21BB2032213431BB29AB2EA
:103F10007B191B88D3189AB27B1901321A8031E0C1
:103F2000BB6B59881E23FB181B88BA68D518BB6B5E
:103F30009B881B26BC191C22BA181288F8680193AA
:103F40001623FB18009313002A00FFF791FE0300CD
:103F50002370BB191B78002B02D0BB191B785FE0C4
:103F60001623FB181A88BB6B5B88D31A9BB2013BE4
:103F70009BB21BB2032213431BB29AB21E23FB183F
:103F800001321A801623FB181A88BB6B5B88D31A80
:103F90009BB2013B9BB21BB2032213431BB29AB2EA
:103FA00018217B1801321A807A181C217B1812887C
:103FB0001B889A4210D9BB6B00221A70BB6B5A88BF
:103FC0007B181B88D3189AB2BB6B5A803B68BA1D0A
:103FD00012881A80002323E01823FA181C23FB18E8
:103FE00012881B889A420BD1BB6B01221A70BB6BE3
:103FF00000225A803B68BA1D12881A8000230FE005
:104000001823FA181C23FB1812881B889A4200D325
:1040100028E7BB6B01221A70BB6B00225A8021E794
:104020001800BD4609B0F0BDF0B5604CA54402AF24
:1040300002005F4B842109015B18DB191A705C4B8D
:104040005B18DB191A785B4913009B009B189B00D7
:10405000CB180A331B88002B01D10023A0E0564B5C
:10406000FC18564D7A19524B842109015B18DB1953
:104070001B781100180000F04BFC030023707B1923
:104080005B684F4ABA1813604E4BFB181800FFF7D5
:10409000C1FE494EBC194C4BFD1880231A010C235C
:1040A000F918464BF818474BFB1800932B00FFF705
:1040B000C2FE03002370BB191B78042B06D0BB196A
:1040C0001B78002B02D0BB191B7869E03E4BFB1814
:1040D0001A8880231B019A4204D0374BFB181B78A7
:1040E000002BD6D0384ABB181B88002B19D0BB1820
:1040F0001B881A000C23F918314C3B191B68180057
:10410000FFF748FE2200BB181B68802109018C467E
:104110006344BA181360284BFB181B78002B02D19C
:10412000B7E7C04600E0C046244BFB189B68013B44
:10413000264A1A4322497B181B68D31A0133DA0A2C
:1041400023483B181A707B181B68224A9446634424
:10415000DA0A214C3B191A70812109017B180022CF
:104160001A603B191A787B185A603B181A787B182A
:104170009A601A4BFA187B181100180001F0E8FF3A
:104180000B4B842212019B18DB191A7813009B0039
:104190009B189B00074A9B181800FFF791FB030030
:1041A0001800BD460E4B9D44F0BDC046B4F7FFFF5E
:1041B000C7F7FFFFEC0800203B08000024080000C0
:1041C0003C0800001C08000036080000FF07000043
:1041D0003A0800000000FCEF390800000C0800005D
:1041E00044080000F0B57A4CA54402AF7860794BE2
:1041F000FB1800221A70784BFB1800221A7000235B
:10420000764ABA18136023E07B689968734BFB18F1
:104210001A6813005B009B189B00CA1870497B1832
:1042200012781A707B181A786E4913009B009B183D
:104230009B00CB180A331B88002B03D0664BFB185E
:1042400001221A70654ABB181B680133BA18136043
:104250007B681B791A00614BFB181B689342D3DB08
:104260005D4BFB181B78002B01D10023ABE08023B2
:104270001A010823FB18FF2118000BF0C1FD0023D1
:10428000564ABA18136051E07B68996853483B1846
:104290001A6813005B009B189B00CA18504D7B19CD
:1042A00012781A707B6899683B181A6813005B00D3
:1042B0009B189B00CB185B6882221201BA1813600E
:1042C000494EBC1981231B01FA187B191B78110078
:1042D000180000F01DFB03002370BB191B78002B96
:1042E00001D000236FE0414D7B191800FFF792FDCC
:1042F0000823FA18822000013B181B68D1183B18CC
:104300001B689BB280221201D31A9AB2384BFC1858
:1043100081231B01F8187B1900932300FFF78BFD05
:104320002E4ABB181B680133BA1813607B681B79CF
:104330001A002A4C3B191B689342A5DB7B681B685B
:1043400080221201082179181800FFF723FD0023AD
:104350003A1913602CE07B689968204BFB181A68A7
:1043600013005B009B189B00CA181D497B1812782C
:104370001A707B181A7813009B009B189B00194A2F
:104380009B18194D7C191800FFF79AFA0300237047
:104390002A00BB181B78002B04D00E4BFB18BA1850
:1043A00012781A700D4ABB181B680133BA181360D3
:1043B0007B681B791A00094BFB181B689342CADB08
:1043C000044BFB181B781800BD460A4B9D44F0BDFA
:1043D000C4F7FFFF2F08000027080000280800008E
:1043E00026080000EC08002025080000080800004E
:1043F0000E0800003408000090B587B000AF02003E
:104400003960FB1D1A7000237B6116E00B243919FB
:104410002E487A6913005B009B189B00C318063373
:104420001B780B703A19FB1D12781B789A4201D148
:10443000022346E07B6901337B617B69012BE5DD6B
:1044400000233B6139E00023FB6026E020493A6904
:1044500013005B009B189B00CB1808331968FA689F
:1044600013005B009B189B00CA180B217B18127865
:104470001A707A18FB1D12781B789A420AD13A6991
:1044800013005B009B189B00114A9A183B681A6046
:10449000012316E0FB680133FB600D493A69130004
:1044A0005B009B189B00CB1804331B781A00FB6839
:1044B0009342CBDB3B6901333B613B69002BC2DBA1
:1044C00000231800BD4607B090BDC0462812051055
:1044D00018090020F0B589B002AFF860080011009B
:1044E0007B600B23FB18021C1A7008203B180A1C67
:1044F0001A8001007B181B88013B9BB21BB2032270
:1045000013431BB29AB27B1801321A80FB685B68B6
:104510005A1DFB689B689A4210D3FB681B781900F0
:104520004A4A0B009B005B189B00D3180A331B8878
:10453000002B01D00B2384E0022382E0FB685B6840
:104540007B617B691B78FF2B1CD1FB689A68FB6839
:104550005B68D31A80225202934200D33C4B122153
:104560007A181380C04608231800FB181A882823DD
:104570001B18DB191B88D318DA1C7B181B889A427E
:1045800027DB15E07B691B78FE2B05D07B691B7848
:10459000002B01D0032354E0FB685B687A695288E2
:1045A000033203210A439B185A1CFB685A60ADE78B
:1045B000FB681B781900254A0B009B005B189B00C9
:1045C000D3180A331B88002B01D00B2339E00223B8
:1045D00037E0FB6858681126BC197D6808231A006B
:1045E000FB181B889C460B23FB1819787B6B0193E7
:1045F00028239B18DB191B8800932B006246FFF7CA
:10460000E0FA03002370BB191B78002B02D0BB1902
:104610001B7816E0FB681B781A000C4913009B00FE
:104620009B189B00CB1808331B88013398B20749AD
:1046300013009B009B189B00CB180833021C1A80A8
:1046400000231800BD4607B0F0BDC046EC080020AE
:10465000FFFF0000B0B588B000AF0023FB61CDE0E4
:10466000A849FA6913005B009B189B005B58FB602C
:104670000023BB61B1E0A349FA6913005B009B18FA
:104680009B00CB1808331968BA6913005B009B18AC
:104690009B00CA1813203B1812781A709949FA69BE
:1046A00013005B009B189B00CB1808331968BA698C
:1046B00013005B009B189B00CB185B68BB609149A3
:1046C000FA6913005B009B189B00CB18083319682C
:1046D000BA6913005B009B189B00CA18BB1D1289A6
:1046E0001A803B181A78884913009B009B189B007E
:1046F0005B58002B03D13B181B78012B01D90123F8
:10470000FCE013243B191A78F968BB68C8187E4985
:1047100013009B009B189B0058507A49FA691300BC
:104720005B009B189B00CB1804331B78013BBA69D4
:104730009A420ED13B191A78FB6880210901591859
:10474000714813009B009B189B00C3180433196029
:104750001DE06C49FA6913005B009B189B00CB18A5
:1047600008331968BB695A1C13005B009B189B0037
:10477000CB1859681323FB181A78FB68C9186248CC
:1047800013009B009B189B00C3180433196013206F
:104790003B181A785C4913009B009B189B00CB18B0
:1047A0001033BA1D12881A803B181A7813009B0028
:1047B0009B189B00544A9B1812257C191800FFF780
:1047C0007FF8030023707B191B78002B02D07B1924
:1047D0001B7893E0BB690133BB614A49FA69130056
:1047E0005B009B189B00CB1804331B781A00BB6935
:1047F000934200DA3FE7FB690133FB61FB69002B61
:1048000000DA2DE700237B6174E0132439193F4857
:104810007A6913005B009B189B00C31806331B7852
:104820000B703B191A78384913009B009B189B00AA
:104830005B58002B03D13B191B78012B01D90123B5
:104840005CE013243B191A78304879690B005B004F
:104850005B189B0018582C4913009B009B189B0069
:1048600058502A497A6913005B009B189B005958DD
:1048700026487A6913005B009B189B00C318043319
:104880001B8818003B191A7809181F4813009B0051
:104890009B189B00C318043319603B191A781B48F6
:1048A00079690B005B005B189B00C31808331888FC
:1048B000154913009B009B189B00CB181033021C5A
:1048C0001A803B191A7813009B009B189B000E4A14
:1048D0009B1812257C191800FEF7F2FF03002370C5
:1048E0007B191B78002B02D07B191B7806E07B69B3
:1048F00001337B617B69012B87DD00231800BD46F6
:1049000008B0B0BD18090020EC08002028120510DE
:1049100080B582B000AF02003960FB1D1A70FB1D2C
:104920001B78012B01D9012320E0FB1D1A781149C6
:1049300013009B009B189B005A583B685A60FB1D54
:104940001A780C4913009B009B189B00CB1804336A
:104950001A683B689A603B6801221A733B68FA1D2B
:1049600012781A703B6800225A7300231800BD4663
:1049700002B080BDEC08002090B589B004AFF860AB
:10498000080011007B600B23FB18021C1A7008231F
:10499000FB180A1C1A80FB681B781900124A0B00CE
:1049A0009B005B189B00D3180E331B78002B01D0A3
:1049B0000A2315E07C680823FB181A880B23FB18D0
:1049C0001978F86800230393002302937B6A01930C
:1049D0002023FB181B8800932300FFF73DF80300FA
:1049E0001800BD4605B090BDEC08002090B587B01A
:1049F00002AFF86008007A6019000A23FB18021C55
:104A00001A800823FB180A1C1A80FB681B781900FF
:104A10000F4A0B009B005B189B00D3180E331B78CA
:104A2000002B01D00A230FE00823FB181C887A68AA
:104A30000A23FB181988F868002301933B6A009346
:104A40002300FFF715F903001800BD4605B090BD1F
:104A5000EC080020F0B5C64600B588B002AFF8609B
:104A6000080011007B600B231C00FB18021C1A704D
:104A700008203B180A1C1A801726B046B8447D68E7
:104A80003B181A882300FB181978F8687B6B019390
:104A9000282308241B19DB191B8800932B00FFF720
:104AA00019FD030042461370BB191B78002B02D07E
:104AB000BB191B782CE0FB681B781900174A0B0008
:104AC0009B005B189B00D3180C331A88082318002E
:104AD000F91828231B18DB1909881B88CB189BB2EF
:104AE000013B9BB21BB203210B431BB29BB2D31AF7
:104AF0009BB2FA6812781100053B98B2074A0B0086
:104B00009B005B189B00D3180C33021C1A800023F7
:104B10001800BD4606B080BCB846F0BDEC080020C9
:104B2000B0B584B000AF0200FB1D1A700023BB605B
:104B30000F257C190823FA18FB1D1B78110018009B
:104B4000FFF75AFC030023707B191B78022B06D158
:104B5000FB1D1B781800FFF767FA03000BE00F231B
:104B6000FB181B78012B05D1BB681800FFF73AFB37
:104B7000030000E001231800BD4604B0B0BD0000F2
:104B800090B583B000AFFC1D00F016F80300237051
:104B9000FB1D1B787F2B08D8FB1D1B781800FFF727
:104BA000BFFF044B18000AF041FF00231800BD4668
:104BB00003B090BD340A051080B582B000AF2B4B16
:104BC00000229A56FB1D1A70FB1D1A782849130003
:104BD0009B009B189B00CB180A331B88002B28D006
:104BE000FB1D1A78224913009B009B189B00CB18D1
:104BF0000C331988FB1D1A781D4813009B009B1865
:104C00009B00C31810331B88994212D2FB1D1B78DE
:104C10000133DBB25AB2154B1A70144B1B785BB2DE
:104C2000022B02D1114B00221A70FB1D1B785BB2C4
:104C300017E0FB1D1A78FB1D01321A70FB1D1B7853
:104C4000022B02D1FB1D00221A70FB1D1B78074AA4
:104C5000127852B29342B7D1044B00221A7001234A
:104C60005B421800BD4602B080BDC046140900205A
:104C7000EC08002080B500AF034B01221A6000232E
:104C80001800BD4680BDC046100D002080B584B020
:104C900000AF0F217B1800221A70EFF310837B60A6
:104CA0007B68BB6072B6C0460C4B1B68032B03D0FD
:104CB0007B18FE221A7002E0084B01221A60BB68C2
:104CC0003B603B6883F31088C0460F23FB181B78BA
:104CD0005BB21800BD4604B080BDC046100D002078
:104CE00080B500AFC046BD4680BD80B582B000AF84
:104CF00002003960FB1D1A7011231800BD4602B076
:104D000080BD000080B582B000AF0200FB1D1A70AC
:104D1000FB1D1B787F2B09D8FB1D1B781A001F2356
:104D20001A40044B012191400A001A60C046BD465A
:104D300002B080BD00E100E080B582B000AF0200AB
:104D4000FB1D1A70FB1D1B787F2B10D8FB1D1B78D9
:104D50001A001F231340084901229A4013008022A1
:104D60008B50BFF34F8FC046BFF36F8FC046C04616
:104D7000BD4602B080BDC04600E100E080B500AF96
:104D8000054B5B6904221340042B01D1012300E091
:104D900000231800BD4680BD0000504880B500AF1C
:104DA000034BDA698023DB0013401800BD4680BD49
:104DB0000000504880B582B000AF7860064BDB69D8
:104DC000064A13401900044B7A680A43DA61C04668
:104DD000BD4602B080BDC04600005048FFFDFFFF49
:104DE00080B500AF074BDA6980239B001A4080230F
:104DF0009B009A4201D1012300E000231800BD4628
:104E000080BDC0460000504880B582B000AF7860D9
:104E1000064BDB690F2293431900044B7A680A435F
:104E2000DA61C046BD4602B080BDC04600005048B1
:104E300080B582B000AF78608023DB05996B80235A
:104E4000DB057A680A439A63C046BD4602B080BD5E
:104E500080B582B000AF78608023DB059A6B7B68F9
:104E6000D9438023DB050A409A63C046BD4602B0A1
:104E700080BD80B582B000AF02003960FB1D1A70A2
:104E8000FB1D1B78002B09D18023DB05DA6A3B6808
:104E9000D9438023DB050A40DA6207E08023DB0583
:104EA000D96A8023DB053A680A43DA62C046BD4608
:104EB00002B080BD80B582B000AF02003960FB1D3A
:104EC0001A70FB1D1B78042B60D89A00314BD31845
:104ED0001B689F468023DB05196B8023DB053A683E
:104EE0000A431A638023DB055A6B3B68D94380234E
:104EF000DB050A405A6349E08023DB051A6B3B68F7
:104F0000D9438023DB050A401A638023DB05596BF4
:104F10008023DB053A680A435A6337E08023DB05C8
:104F20001A6B3B68D9438023DB050A401A63802350
:104F3000DB055A6B3B68D9438023DB050A405A6383
:104F400024E08023DB051A6B3B68D9438023DB0513
:104F50000A401A638023DB055A6B3B68D9438023E0
:104F6000DB050A405A6311E08023DB051A6B3B68BE
:104F7000D9438023DB050A401A638023DB05596B84
:104F80008023DB053A680A435A63FFE7C046BD4603
:104F900002B080BD4012051080B582B000AF7860CD
:104FA0008023DB05DB6B7A6813407A689A4201D173
:104FB000012300E000231800BD4602B080BD80B58B
:104FC00082B000AF78608023DB057A68DA63C04680
:104FD000BD4602B080BD000080B584B000AF7860EF
:104FE000074B596D064B7A680A435A65044B5B6D53
:104FF0007A681340FB60FB68C046BD4604B080BDC4
:105000000000404880B500AF1F231800BD4680BD9A
:1050100080B500AF1F231800BD4680BD80B582B0AB
:1050200000AF0200FB1D1A70FB1D1B78002B1DD06A
:105030002D4B1B78002B29D12B4B01221A7080237A
:105040005B001800FFF7C8FF01210220FFF732FFC5
:1050500001210020FFF70DFF0120FFF7E9FE0120ED
:10506000FFF7ADFF1920FFF74DFE0FE01E4B1B7839
:10507000012B0BD11C4B00221A700120FFF7E8FE18
:105080001920FFF759FE0120FFF799FFFFF7A8FE4F
:10509000031E24D1FFF782FE02008023DB009A4228
:1050A0001DD080239B001800FFF784FEC046FFF749
:1050B00065FE031EFBD1FB1D1B78002B03D00E20C9
:1050C000FFF7A2FE02E00420FFF79EFE0020FFF79C
:1050D00071FEC046FFF752FE031EFBD000E0C04643
:1050E000BD4602B080BDC0461C09002080B500AF9F
:1050F000164B1B78002B25D00120FFF74DFF031E18
:1051000021D0134AA6239B00D358102213400AD063
:105110000F4A95239B00D3580D4902221A43952329
:105120009B00CA500AE00A4A95239B00D3580849BD
:10513000022293431A0095239B00CA500120FFF7D7
:105140003EFF00E0C046BD4680BDC0461C090020B1
:105150000014006080B500AF8023DB051B680F22C0
:1051600013401800BD4680BD80B500AF8023DB052D
:105170001B681B090F2213401800BD4680BD80B577
:1051800000AF8023DB055B681800BD4680BD0000D2
:1051900080B500AF034B1B681B041B0C1800BD46F9
:1051A00080BDC0461410004080B582B000AF00231F
:1051B0007B607B681800BD4602B080BD80B584B0BE
:1051C00000AF78607B68FF221A70FFF7D8FF0300FA
:1051D000FB60FB68184A934202D17B6805221A7073
:1051E000FFF7C2FF0300DAB27B685A70FFF7B2FF25
:1051F0000300DAB27B689A70FFF7C1FF02007B6898
:105200005A60FFF7C5FF030001339A007B689A607C
:10521000FFF7CAFF031E07D0FFF7C6FF03000133E5
:105220009A037B68DA6003E07B68C022D201DA600F
:10523000C046BD4604B080BD4180020280B582B048
:1052400000AF7860084B1B781A0094235A43074B31
:10525000D018FA239B00391D012205F0A7FB7B68BB
:105260001800BD4602B080BDB4090020200900200E
:1052700090B583B000AF02003960FB1D1A70FB1DB2
:105280001B787F2B28D82F4AFB1D1B785BB29B080D
:10529000C0339B009B58FA1D1278110003220A406C
:1052A000D200FF2191400A00D2431A4011003B680E
:1052B0009B01FF221A40FB1D1B78180003230340AB
:1052C000DB009A401F48FB1D1B785BB29B080A431A
:1052D000C0339B001A5031E01B4AFB1D1B7819009C
:1052E0000F230B40083B9B0806339B00D318043365
:1052F0001B68FA1D1278110003220A40D200FF2118
:1053000091400A00D2431A4011003B689B01FF22E2
:105310001A40FB1D1B78180003230340DB009A4052
:105320000948FB1D1B781C000F232340083B9B08EA
:105330000A4306339B00C31804331A60C046BD46B7
:1053400003B090BD00E100E000ED00E080B500AFEB
:10535000BFF34F8FC046044B044ADA60BFF34F8F50
:10536000C046C046FDE7C04600ED00E00400FA0577
:1053700090B587B000AF5E4A9423D358002B0ED16E
:105380005C4B1B69002B03D15A4B9B6B002B06D047
:10539000594B01229A60FAF727FFFFF7D7FF574BC7
:1053A000574A9A60554B9A68534B1A61514B5A6849
:1053B000504B20210A435A604E4B5A684D4B51497D
:1053C0000A405A60C0464B4B5B6904221340042BD1
:1053D000F9D1484BDB69302293431A00454B202119
:1053E0000A43DA61434BDA69424B47490A40DA61C2
:1053F000404BDA693F4B802149000A43DA61434B55
:105400001B68434A934255D01F233B610823FB602E
:105410000A23BB6003237B60354BDB681E2293436A
:105420001900FB685A00324B0A43DA60304BDA68E5
:105430002F4B01210A43DA602D4BDB68354A1340BC
:1054400019003B691A062A4B0A43DA60284BDA68CE
:10545000274B802109040A43DA60264A9423D35853
:105460002D4A1A40BB689901F0239B000B4021494B
:10547000134394228B501F4A9423D3581D49202252
:10548000134394228B501B4A9423D358234A1A4027
:105490007B68D902E0239B010B40164913439422F9
:1054A0008B50144A9423D35812498022D2001343BC
:1054B00094228B501723FB1800221A700DE017243A
:1054C0003B191B785BB203211800FFF7D1FE2100C6
:1054D0007B181A787B1801321A701723FB181B7877
:1054E0001F2BECD962B6C046C046BD4607B090BD82
:1054F00000004048000050480400002000ED00E09B
:1055000000000410FFFEFFFFFFFBFFFFF81E00106E
:10551000CCECBCFCFFFFFFC03FFCFFFFFFC7FFFF61
:1055200080B582B000AF134B9B685B08DAB2FB1DFD
:1055300001210A401A700F4B9B681B0ADAB2BB1D8F
:1055400007210A401A70FB1D1B78002B07D0BB1DDA
:105550001B78013B084ADA40084B1A6005E0BB1D86
:105560001B78074ADA40054B1A60C046BD4602B0B8
:1055700080BDC046000040480048E801140D0020EE
:105580000090D00380B582B000AFFB1D00221A70DE
:10559000032000F00FF8031E03D0FB1D01221A7038
:1055A00001E0FBF7E1FEFB1D1B781800BD4602B0D1
:1055B00080BD000090B585B000AF78600F23FB1868
:1055C00000221A701D4B1B78002B2CD004F046FED5
:1055D00004001A4B1B781900FA239800FAF728FEEA
:1055E000030019002000FAF723FE0300180000F062
:1055F000C4FC031E12D17B68032B0AD879680123EF
:105600005B420022180000F093FC0D4B7A681A6090
:105610000DE00F23FB1801221A7008E00F23FB187E
:1056200001221A7003E00F23FB1801221A700F23C6
:10563000FB181B781800BD4605B090BD1C0D00205E
:10564000180D002080B500AF054B1B781A00054BE4
:105650001B68D218034B1A60C046BD4680BDC046C9
:105660001C0D0020B809002080B500AF024B1B685C
:105670001800BD4680BDC046B809002080B500AF07
:10568000024B1B681800BD4680BDC046180D0020A7
:1056900080B584B000AF7860FFF7E6FF0300BB6021
:1056A0007B68FB60FB68013305D00A4B1B781A004E
:1056B000FB689B18FB60C046FFF7D6FF0200BB6883
:1056C000D31AFA689A42F7D8C046C046BD4604B01D
:1056D00080BDC0461C0D002080B582B000AF786050
:1056E00039607B685B68054A1A403B681A437B68EF
:1056F0005A60C046BD4602B080BDC046FFFFF7FFFE
:1057000080B582B000AF78607B685B688022D2028F
:105710001A437B685A60C046BD4602B080BD000097
:1057200080B582B000AF78607B685B68034A1A403E
:105730007B685A60C046BD4602B080BDFFFFFBFFDC
:1057400080B582B000AF78607B685B68802292028F
:105750001A437B685A60C046BD4602B080BD000057
:1057600080B582B000AF78607B685B68034A1A40FE
:105770007B685A60C046BD4602B080BDFFFFFDFF9A
:1057800080B582B000AF786039607B685B68054A9D
:105790001A403B681A437B685A60C046BD4602B057
:1057A00080BDC046FF7FFFFF80B582B000AF78604C
:1057B00039607B685B68054A1A403B681A437B681E
:1057C0005A60C046BD4602B080BDC046FFE71FFF1D
:1057D00080B582B000AF786039607B685B683C223E
:1057E00093431A003B68013B9B001A437B685A6055
:1057F000C046BD4602B080BD80B582B000AF7860C3
:105800007B685B6801221A437B685A60C046BD46CC
:1058100002B080BD80B582B000AF78607B685B6805
:10582000012293431A007B685A60C046BD4602B00D
:1058300080BD80B582B000AF78607B689B68202215
:105840001A437B689A60C046BD4602B080BD80B5F1
:1058500082B000AF78607B689B6820221340202BC9
:1058600001D1012300E000231800BD4602B080BD35
:1058700080B582B000AF78607B689B6801221340DE
:10588000012B01D1012300E000231800BD4602B026
:1058900080BD000080B584B000AFF860B9607A6068
:1058A000FB685B690B49BA688A18127811000322F9
:1058B0008A40D2431A400749BB68CB181B781900AD
:1058C0007B688B401A43FB685A61C046BD4604B0F2
:1058D00080BDC0465412051080B584B000AFF8609A
:1058E000B9607A60FB68DB693F2293431A00BB68AA
:1058F000D9007B680B431A43FB68DA61C046BD469A
:1059000004B080BD80B586B000AFF860B9607A6041
:10591000FB6820331900BB681B0A9B00042213405C
:10592000CB187B617B691B68BA68FF210A400F2195
:1059300091400A00D2431A40BB68FF210B407968AE
:1059400099400B001A437B691A60C046BD4606B0F9
:1059500080BD80B586B000AFF860B9607A603B600A
:10596000FB6828331A00BB689B00D3187B617B69F6
:105970001B681B0D1A057B681B05190D3B68180376
:10598000FF231B0303400B431A437B691A60C04685
:10599000BD4606B080BD000080B584B000AFF860A1
:1059A000B9607A607B68002B0AD1FB689B6B302260
:1059B00093431A00BB681B011A43FB689A6315E006
:1059C0007B68022B09D1FB689B6B0A4A1A40BB68B3
:1059D0009B021A43FB689A6308E0FB689B6B064ACC
:1059E0001A40BB681B041A43FB689A63C046BD4655
:1059F00004B080BDFFF3FFFFFFFFFCFF80B584B064
:105A000000AFF860B9607A607B68002B0AD1FB6850
:105A10009B6B0C2293431A00BB689B001A43FB68E4
:105A20009A6315E07B68022B09D1FB689B6B0A4ADD
:105A30001A40BB681B021A43FB689A6308E0FB68C4
:105A40009B6B064A1A40BB689B031A43FB689A6328
:105A5000C046BD4604B080BDFFFCFFFFFF3FFFFF17
:105A600080B584B000AFF860B9607A607B68002BC5
:105A700009D1FB689B6B032293431A00BB681A434E
:105A8000FB689A6316E07B68022B0AD1FB689B6B6C
:105A9000C02293431A00BB689B011A43FB689A63B8
:105AA00008E0FB689B6B054A1A40BB681B031A435E
:105AB000FB689A63C046BD4604B080BDFFCFFFFFC0
:105AC00080B584B000AF78600F23FB1800221A70F5
:105AD0007B68002B01D10123B5E07B681B6B002B99
