:020000040800F2
:1000000000000320ED5400083D3900084B3900087A
:10001000533900085B39000863390008000000000C
:100020000000000000000000000000006B39000824
:100030007939000800000000873900089539000868
:10004000415500084155000841550008A1390008F4
:100050004155000841550008073A0008153A0008C4
:100060004155000841550008F9390008415500087C
:100070004155000841550008415500084155000808
:1000800041550008415500084155000841550008F8
:1000900041550008415500084155000841550008E8
:1000A00041550008415500084155000841550008D8
:1000B00041550008415500084155000841550008C8
:1000C00041550008415500084155000841550008B8
:1000D000AD39000841550008415500084155000858
:1000E0004155000841550008415500084155000898
:1000F000C1390008CD390008D93900084155000838
:100100004155000841550008415500084155000877
:100110004155000841550008415500084155000867
:100120004155000841550008E539000841550008CF
:0C013000415500084155000841550008E9
:1001400010B5054C237833B9044B13B10448AFF311
:1001500000800123237010BD540200200000000025
:10016000D417010808B5034B1BB103490348AFF38B
:10017000008008BD0000000058020020D4170108CC
:1001800010F8012B11F8013B012A28BF9A42F7D041
:10019000D01A7047000000000000000000000000BE
:1001A00001F0FF01102A2BDB10F0070F08D010F828
:1001B000013B013A8B422DD010F0070F42B3F6D12C
:1001C000F0B441EA012141EA014122F007047FF045
:1001D00000070023F0E80256083C85EA010586EA9C
:1001E000010685FA47F5A3FA87F586FA47F6A5FAD8
:1001F00087F68EB9EED1F0BC01F0FF0102F00702E4
:1002000032B110F8013B013A83EA010313B1F8D18E
:100210000020704701387047002D06BF354603386F
:10022000073815F0010F07D1013015F4807F02BFA8
:10023000013015F4C03F0130F0BC0138704700BFF9
:10024000034613F8012B002AFBD1181A0138704716
:1002500081F0004102E000BF83F0004330B54FEA77
:1002600041044FEA430594EA050F08BF90EA020FE4
:100270001FBF54EA000C55EA020C7FEA645C7FEA77
:10028000655C00F0E2804FEA5454D4EB5555B8BF9A
:100290006D420CDD2C4480EA020281EA030382EA0B
:1002A000000083EA010180EA020281EA0303362D9D
:1002B00088BF30BD11F0004F4FEA01314FF4801C70
:1002C0004CEA113102D0404261EB410113F0004F82
:1002D0004FEA03334CEA133302D0524263EB430339
:1002E00094EA050F00F0A780A4F10104D5F1200ED7
:1002F0000DDB02FA0EFC22FA05F2801841F1000132
:1003000003FA0EF2801843FA05F359410EE0A5F105
:1003100020050EF1200E012A03FA0EFC28BF4CF036
:10032000020C43FA05F3C01851EBE37101F00045EC
:1003300007D54FF0000EDCF1000C7EEB00006EEBF9
:100340000101B1F5801F1BD3B1F5001F0CD3490883
:100350005FEA30004FEA3C0C04F101044FEA4452DA
:1003600012F5800F80F09A80BCF1004F08BF5FEA61
:10037000500C50F1000041EB045141EA050130BD41
:100380005FEA4C0C404141EB0101013C28BFB1F553
:10039000801FE9D291F0000F04BF01460020B1FA9E
:1003A00081F308BF2033A3F10B03B3F120020CDA71
:1003B0000C3208DD02F1140CC2F10C0201FA0CF04F
:1003C00021FA02F10CE002F11402D8BFC2F1200CB4
:1003D00001FA02F120FA0CFCDCBF41EA0C0190406A
:1003E000E41AA2BF01EB0451294330BD6FEA0404B3
:1003F0001F3C1CDA0C340EDC04F11404C4F120029E
:1004000020FA04F001FA02F340EA030021FA04F3AF
:1004100045EA030130BDC4F10C04C4F1200220FA06
:1004200002F001FA04F340EA0300294630BD21FA44
:1004300004F0294630BD94F0000F83F4801306BF0A
:1004400081F480110134013D4EE77FEA645C18BFFE
:100450007FEA655C29D094EA050F08BF90EA020F95
:1004600005D054EA000C04BF1946104630BD91EA8D
:10047000030F1EBF0021002030BD5FEA545C05D190
:100480004000494128BF41F0004130BD14F58004CF
:100490003CBF01F5801130BD01F0004545F0FE4143
:1004A00041F470014FF0000030BD7FEA645C1ABF78
:1004B000194610467FEA655C1CBF0B46024650EAAF
:1004C000013406BF52EA033591EA030F41F40021DB
:1004D00030BD00BF90F0000F04BF0021704730B561
:1004E0004FF4806404F132044FF000054FF0000136
:1004F00050E700BF90F0000F04BF0021704730B5F7
:100500004FF4806404F1320410F0004548BF4042CB
:100510004FF000013EE700BF42004FEAE2014FEA20
:1005200031014FEA02701FBF12F07F4393F07F4FFB
:1005300081F06051704732F07F4208BF704793F0FE
:100540007F4F04BF41F40021704730B54FF4607411
:1005500001F0004521F000411CE700BF50EA010214
:1005600008BF704730B54FF000050AE050EA0102BD
:1005700008BF704730B511F0004502D5404261EB2D
:1005800041014FF4806404F132045FEA915C3FF46E
:10059000D8AE4FF003025FEADC0C18BF03325FEA0B
:1005A000DC0C18BF033202EBDC02C2F1200300FABC
:1005B00003FC20FA02F001FA03FE40EA0E0021FAE1
:1005C00002F11444BDE600BF70B54FF0FF0C4CF4CF
:1005D000E06C1CEA11541DBF1CEA135594EA0C0F81
:1005E00095EA0C0F00F0DEF82C4481EA030621EABC
:1005F0004C5123EA4C5350EA013518BF52EA0335F7
:1006000041F4801143F4801338D0A0FB02CE4FF0A8
:100610000005E1FB02E506F00042E0FB03E54FF0D8
:100620000006E1FB03569CF0000F18BF4EF0010ED0
:10063000A4F1FF04B6F5007F64F5407404D25FEACC
:100640004E0E6D4146EB060642EAC62141EA55517F
:100650004FEAC52040EA5E504FEACE2EB4F1FD0CC1
:1006600088BFBCF5E06F1ED8BEF1004F08BF5FEA3F
:10067000500E50F1000041EB045170BD06F00046F1
:1006800046EA010140EA020081EA0301B4EB5C049E
:10069000C2BFD4EB0C0541EA045170BD41F4801196
:1006A0004FF0000E013C00F3AB8014F1360FDEBFBB
:1006B000002001F0004170BDC4F10004203C35DA97
:1006C0000C341BDC04F11404C4F1200500FA05F31A
:1006D00020FA04F001FA05F240EA020001F00042BB
:1006E00021F0004110EBD37021FA04F642EB060131
:1006F0005EEA430E08BF20EAD37070BDC4F10C045B
:10070000C4F1200500FA04F320FA05F001FA04F21E
:1007100040EA020001F0004110EBD37041F100010A
:100720005EEA430E08BF20EAD37070BDC4F1200515
:1007300000FA05F24EEA020E20FA04F301FA05F27D
:1007400043EA020321FA04F001F0004121FA04F225
:1007500020EA020000EBD3705EEA430E08BF20EAF5
:10076000D37070BD94F0000F0FD101F0004640002F
:1007700041EB010111F4801F08BF013CF7D041EAB1
:10078000060195F0000F18BF704703F000465200B5
:1007900043EB030313F4801F08BF013DF7D043EA86
:1007A0000603704794EA0C0F0CEA135518BF95EA3C
:1007B0000C0F0CD050EA410618BF52EA4306D1D1C3
:1007C00081EA030101F000414FF0000070BD50EAE2
:1007D000410606BF1046194652EA430619D094EA6C
:1007E0000C0F02D150EA013613D195EA0C0F05D156
:1007F00052EA03361CBF104619460AD181EA0301AA
:1008000001F0004141F0FE4141F470014FF0000061
:1008100070BD41F0FE4141F4780170BD70B54FF0FC
:10082000FF0C4CF4E06C1CEA11541DBF1CEA13557C
:1008300094EA0C0F95EA0C0F00F0A7F8A4EB05045E
:1008400081EA030E52EA03354FEA013100F0888055
:100850004FEA03334FF0805545EA131343EA12631E
:100860004FEA022245EA111545EA10654FEA0026D3
:100870000EF000419D4208BF964244F1FD0404F58C
:10088000407402D25B084FEA3202B61A65EB0305E8
:100890005B084FEA32024FF480104FF4002CB6EBA5
:1008A000020E75EB030E22BFB61A754640EA0C0025
:1008B0005B084FEA3202B6EB020E75EB030E22BF65
:1008C000B61A754640EA5C005B084FEA3202B6EBA6
:1008D000020E75EB030E22BFB61A754640EA9C0065
:1008E0005B084FEA3202B6EB020E75EB030E22BF35
:1008F000B61A754640EADC0055EA060E18D04FEAF3
:10090000051545EA16754FEA06164FEAC30343EA92
:1009100052734FEAC2025FEA1C1CC0D111F4801F5F
:100920000BD141EA00014FF000004FF0004CB6E758
:1009300011F4801F04BF01430020B4F1FD0C88BFF7
:10094000BCF5E06F3FF6AFAEB5EB030C04BFB6EB02
:10095000020C5FEA500C50F1000041EB045170BDF5
:100960000EF0004E4EEA113114EB5C04C2BFD4EB22
:100970000C0541EA045170BD41F480114FF0000EA6
:10098000013C90E645EA060E8DE60CEA135594EA22
:100990000C0F08BF95EA0C0F3FF43BAF94EA0C0F25
:1009A0000AD150EA01347FF434AF95EA0C0F7FF49A
:1009B00025AF104619462CE795EA0C0F06D152EAEE
:1009C00003353FF4FDAE1046194622E750EA4106D2
:1009D00018BF52EA43067FF4C5AE50EA41047FF4E3
:1009E0000DAF52EA43057FF4EBAE12E74FF0FF3C48
:1009F00006E000BF4FF0010C02E000BF4FF0010C19
:100A00004DF804CD4FEA410C7FEA6C5C4FEA430C91
:100A100018BF7FEA6C5C1BD001B050EA410C0CBFE0
:100A200052EA430C91EA030F02BF90EA020F002042
:100A3000704710F1000F91EA030F58BF994208BFA9
:100A400090422CBFD8176FEAE37040F00100704766
:100A50004FEA410C7FEA6C5C02D150EA013C07D1BD
:100A60004FEA430C7FEA6C5CD6D152EA033CD3D008
:100A70005DF8040B704700BF8446104662468C4602
:100A80001946634600E000BF01B5FFF7B7FF002835
:100A900048BF10F1000F01BD4DF808EDFFF7F4FF5E
:100AA0000CBF012000205DF808FB00BF4DF808EDE9
:100AB000FFF7EAFF34BF012000205DF808FB00BF0C
:100AC0004DF808EDFFF7E0FF94BF012000205DF82E
:100AD00008FB00BF4DF808EDFFF7CEFF94BF0120E3
:100AE00000205DF808FB00BF4DF808EDFFF7C4FFDC
:100AF00034BF012000205DF808FB00BF4FEA410C25
:100B00007FEA6C5C02D150EA013C0AD14FEA430C07
:100B10007FEA6C5C02D152EA033C02D14FF0000044
:100B200070474FF0010070474FEA410212F5001282
:100B300015D211D56FF47873B3EB625212D94FEA24
:100B4000C12343F0004343EA505311F0004F23FA0E
:100B500002F018BF404270474FF00000704750EA63
:100B6000013005D111F0004008BF6FF00040704720
:100B70004FF00000704700BF53B94AB9002908BFC1
:100B800000281CBF4FF0FF314FF0FF3000F088B954
:100B9000ADF1080C6DE904CE00F006F8DDF804E0D4
:100BA000DDE9022304B070472DE9F047089D0F46A8
:100BB00004468C46002B48D18A42164661D9B2FAC7
:100BC00082F34BB1C3F1200201FA03FC20FA02F2D6
:100BD0009E4042EA0C0C9C404FEA164EB7B2BCFB5A
:100BE000FEF1220C0EFB11CC42EA0C4201FB07F095
:100BF000904209D9B21801F1FF3C80F0EE8090429A
:100C000040F2EB8002393244121AA4B2B2FBFEF079
:100C10000EFB102244EA024400FB07F7A74209D961
:100C2000341900F1FF3280F0DA80A74240F2D78019
:100C30003444023840EA0140E41B00211DB1DC408D
:100C40000023C5E90043BDE8F0878B4206D90DB10A
:100C5000C5E9000100210846BDE8F087B3FA83F139
:100C6000002948D1BB4202D3824200F20781841A94
:100C700067EB030201209446002DE4D0C5E9004C47
:100C8000E1E7002A00F09280B2FA82F3002B40F0F4
:100C9000A8808A1A4FEA164E1FFA86FC0121200C02
:100CA000B2FBFEF70EFB172240EA02420CFB07F0F4
:100CB000904207D9B21807F1FF3802D2904200F2F1
:100CC000E2804746121AA4B2B2FBFEF00EFB1022DD
:100CD00044EA02440CFB00FCA44507D9341900F196
:100CE000FF3202D2A44500F2CB801046A4EB0C04E4
:100CF00040EA0740A2E7C1F120068B4022FA06FC39
:100D00004CEA030C07FA01F420FA06F3F7404FEA25
:100D10001C49234300FA01F81FFA8CFEB7FBF9F0D7
:100D20001C0C09FB107744EA074400FB0EF7A742AE
:100D300002FA01F20AD91CEB040400F1FF3A80F038
:100D40009B80A74240F2988002386444E41B9FB223
:100D5000B4FBF9F309FB134447EA044403FB0EFE1A
:100D6000A64509D91CEB040403F1FF3780F082800B
:100D7000A6457FD9023B644443EA0040A4EB0E043D
:100D8000A0FB02E7BC427346B94663D360D05DB1B5
:100D9000B8EB030264EB090404FA06F622FA01F345
:100DA0001E43CC40C5E9006400214CE762084808B6
:100DB00042EAC1710B0C43EA00438AB242EA0342A1
:100DC000B3FBF6F1E407B4463746B6461F23B0FB43
:100DD000F6F0D21B41EA004161E7614614E7104694
:100DE00028E7C3F1200120FA01F29E4027FA01F121
:100DF0009F403A434FEA164E1FFA86FCB1FBFEF7BE
:100E00000EFB1710110C41EA004107FB0CF8884556
:100E100004FA03F43AD9711807F1FF3001D288457A
:100E20001FD8A1EB0801B1FBFEF808FB0CF70EFB85
:100E3000181192B242EA0142BA422FD2B21808F116
:100E4000FF31C6D2BA42C4D2A8F102013244C0E78F
:100E5000F0459CD2BEEB020367EB0C070138B946A4
:100E600095E7A6EB08084144B81EB1FBFEF808FB65
:100E70000CF7DCE73B467FE7504667E70846FBE6B2
:100E80003444023832E7023F32441BE7A1EB080149
:100E90003846B1FBFEF808FB0CF7C8E7414698E777
:100EA000704700BF80B483B000AF7860064BD3F8C2
:100EB000902005497B681343C1F8903000BF0C3780
:100EC000BD465DF8047B70470008005880B485B0CB
:100ED00000AF78604FF0B043DA6C4FF0B0417B6800
:100EE0001343CB644FF0B043DA6C7B681340FB6074
:100EF000FB6800BF1437BD465DF8047B704780B4C3
:100F000085B000AF78604FF0B043D3F84C214FF07C
:100F1000B0417B681343C1F84C314FF0B043D3F874
:100F20004C217B681340FB60FB6800BF1437BD4653
:100F30005DF8047B704780B500AF04F001FD04F05C
:100F400005FD4FF48030FFF7ADFF0BF039FD00F0E9
:100F500021F800F0C1F800BF80BD0000B0B588B036
:100F600000AF0B4B3C1D1D460FCD0FC495E807008D
:100F700003C422800234130C23700DF067F93B1D6B
:100F800018460BF096FF00BF2037BD46B0BD00BF2E
:100F9000F017010880B588B000AF3B1D00221A6031
:100FA0005A609A60DA601A610023BB8300237B8356
:100FB00000233B830023FB7736E0FB7F434ADB00C3
:100FC00013449B79002B2CD0FB7F404A52F83330DE
:100FD0003F4A93421BD03E4A934221D8B3F1904FEF
:100FE00003D03C4A934209D01AE0FB7F374ADB002A
:100FF00013449A88BB8B1343BB8312E0FB7F334AB5
:10100000DB0013449A887B8B13437B8309E0FB7FCF
:101010002E4ADB0013449A883B8B13433B8300E04A
:1010200000BFFB7F0133FB77FB7F252BC5D9002356
:10103000FB600123BB6003233B61BB8B002B14D0FF
:10104000BB8B7B600120FFF741FF0120FFF757FFBB
:101050003B1D19464FF0904005F06CF9BB8B002208
:1010600019464FF0904005F0D5FA7B8B002B12D03B
:101070007B8B7B600220FFF729FF0220FFF73FFFF9
:101080003B1D1946134805F055F97B8B0022194684
:10109000104805F0BFFA3B8B002B13D03B8B7B60D5
:1010A0000420FFF713FF0420FFF729FF3B1D19461B
:1010B000074805F03FF93B8B00221946044805F02C
:1010C000A9FA00BF00BF2037BD4680BD78270108C0
:1010D000000800480004004880B400AF00BFBD46CF
:1010E0005DF8047B704780B500AF01F0DBFD00BF09
:1010F00080BD80B584B000AFF8600B467A607B811C
:101100007A897B68F968002001F0E0FA00BF1037A7
:10111000BD4680BD80B483B000AF7860074BD3F884
:10112000803023F0070205497B681343C1F8803003
:1011300000BF0C37BD465DF8047B704700040058C3
:1011400080B483B000AF7860064BD3F89020054997
:101150007B681343C1F8903000BF0C37BD465DF883
:10116000047B70470008005880B483B000AF7860FB
:101170004FF0B0430A4AC3F89C204FF0B043D3F875
:101180009C3023F47C527B681B024FF0B041134328
:10119000C1F89C3000BF0C37BD465DF8047B70473A
:1011A000FECAFECA80B483B000AF78604FF0B0438F
:1011B0009B6823F400424FF0B0417B6813438B607F
:1011C00000BF0C37BD465DF8047B704780B400AFAC
:1011D0004FF0B043D3F890304FF0B04243F4803337
:1011E000C2F8903000BFBD465DF8047B704780B404
:1011F00000AF4FF0B043D3F890304FF0B04223F43B
:101200008033C2F8903000BFBD465DF8047B704764
:1012100080B400AF4FF0B043D3F8943003F0806354
:10122000B3F1806F01D1012300E000231846BD46D1
:101230005DF8047B704780B400AF4FF0B043D3F843
:10124000943003F08053B3F1805F01D1012300E0BB
:1012500000231846BD465DF8047B704780B485B016
:1012600000AF78604FF0B0431A6D4FF0B0417B682B
:1012700013430B654FF0B0431A6D7B681340FB605E
:10128000FB6800BF1437BD465DF8047B7047000063
:1012900080B400AF044B1B68C3F30B031846BD4674
:1012A0005DF8047B704700BF002004E080B400AF0D
:1012B000044B1B681B0C9BB21846BD465DF8047BB3
:1012C000704700BF002004E080B483B000AF7860B6
:1012D00039607B685A683B681B041A437B685A6014
:1012E00000BF0C37BD465DF8047B704780B483B007
:1012F00000AF786039607B685A683B681A437B6846
:101300005A6000BF0C37BD465DF8047B704780B45F
:1013100083B000AF786039607B685A693B681B0412
:101320001A437B685A6100BF0C37BD465DF8047BE9
:10133000704780B483B000AF786039607B685A69C9
:101340003B681A437B685A6100BF0C37BD465DF8A5
:10135000047B704780B483B000AF786039607B68ED
:101360003A689A6000BF0C37BD465DF8047B704751
:1013700080B483B000AF786039607B683A689A6166
:1013800000BF0C37BD465DF8047B704780B400AFEA
:10139000054B1B69044A23F00403136100BFBD46DB
:1013A0005DF8047B704700BF00ED00E080B483B0BF
:1013B00000AF78607B68FF225A6200BF0C37BD46E1
:1013C0005DF8047B704780B483B000AF78607B68C1
:1013D000CA225A627B6853225A6200BF0C37BD464C
:1013E0005DF8047B704780B483B000AF78603960EB
:1013F0007B689B6823F007023B681A437B689A600E
:1014000000BF0C37BD465DF8047B704780B500AF68
:10141000044B4FF400421A6100F030F800F070F80D
:1014200000BF80BD0040005880B500AF00F07CF8E0
:1014300000F094F80949002000F032FFFFF77BFD2F
:10144000012101200CF0A8FF00F0EAF900F0F8F902
:1014500000F07AFA00F090F800BF80BDBC040020D4
:1014600080B400AF00BFBD465DF8047B704780B517
:1014700000AF5020FFF764FE00BF80BD80B500AF15
:1014800000F004F800F01AF800BF80BD80B500AF8E
:10149000FFF7BEFE0346002B0DD0FFF7CCFE034640
:1014A000002B08D105F0FAFE05F0F8FEFFF78EFEDE
:1014B000FFF79DFE00BF00BF80BD000080B500AFFC
:1014C0004FF48010FFF7CAFE3F210C48FFF742FFA0
:1014D0003F210A48FFF74CFF3F210848FFF7F4FE81
:1014E0003F210648FFF713FF3F210448FFF7FEFEA8
:1014F0003F210248FFF71DFF00BF80BD000C0058D0
:1015000080B582B000AF00200BF094FC78607B685F
:10151000002B05D07B689B791846FFF725FE00BF9E
:1015200000BF0837BD4680BD80B500AFFFF798FF0C
:10153000FFF79DFF00F002F800BF80BD80B500AF4F
:101540000548FFF740FF00210348FFF74CFF024822
:10155000FFF72CFF00BF80BD0028004080B500AF22
:101560004FF40040FFF71EFE0CF004FF0420FFF7CD
:10157000D1FD00BF80BD000080B588B000AF0CF089
:10158000ABFC114A00214FF480700DF0B7F80F4BFF
:101590003B600F4B7B603B4619460E480BF064FDE9
:1015A0000D4BBB600D4BFB600D4B3B6140F23C5360
:1015B0007B6107F1080318460CF0D4FD0CF086FCA3
:1015C00000BF2037BD4680BDA1D0000834070320EE
:1015D000E5150008FD1500084C090320400803200C
:1015E000F801032080B483B000AF0346FB7100BF55
:1015F0000C37BD465DF8047B7047000080B588B0AD
:1016000000AF78607B685B680B33FB61FB691B880C
:101610009BB2A3F51243072B60D801A252F823F026
:10162000411600088316000891160008DD16000810
:10163000AD160008BD160008C5160008D51600082E
:1016400007F10C0318460BF061FC3B7B19467B7BD2
:101650001A46BB7B24480DF0BBFE3B7C1946234851
:101660000DF0B6FEBB7D1946FB7D1A463B7E204839
:101670000DF0AEFE1F480DF0ABFE786800F070F87C
:101680002DE01D480DF0A4FE786800F043F826E038
:101690001A480DF00DFFFB6902331968FB6902332C
:1016A0005B681A4616480DF093FE18E0FB6902339A
:1016B0001B68194613480DF08BFE10E012480DF020
:1016C00087FE0CE0FB6902331B6819460F480DF0DA
:1016D0007FFE04E00E480DF07BFE00E000BF00BF7F
:1016E0002037BD4680BD00BF0C1801083018010826
:1016F0004C1801086418010884180108A81801088A
:10170000F8180108201901085C190108801901085E
:10171000BC19010880B584B000AF78607B685B6855
:101720000B33FB60FB680233BB60BB681B78194658
:1017300008480DF04DFEBB681B78002B03D106480E
:101740000DF0B6FE03E005480DF0B2FE00BF103705
:10175000BD4680BDE0190108101A01084C1A0108A5
:1017600080B58AB000AF786007F1080300221A60E4
:101770005A609A60DA6000237B6200233B627B68D8
:101780005B680B33FB61FB690233BB61BB691B7890
:10179000002B28D11D480DF08BFEFFF7DFFB0F2338
:1017A0003B727F23BB72FFF781FD7862796A18482C
:1017B0000DF00EFE7B6A9BB2BB82FFF769FD3862BB
:1017C000396A14480DF004FE3B6A9BB2FB8207F1B4
:1017D000080318460BF084FB02F0F2F90021012007
:1017E0000CF0DAFD0EE0BB691B78012B06D10A482C
:1017F0000DF0EEFD7B6800221A7003E007480DF043
:10180000E7FD00BF2837BD4680BD00BF841A010830
:10181000A01A0108C41A0108E41A0108181B0108DB
:1018200080B500AF002003F0A5FE012003F0A2FE6A
:10183000022003F09FFE012003F0D6FE00BF80BD12
:1018400080B500AF0121002003F002FF012101203B
:1018500003F0FEFE0121022003F0FAFE00BF80BD6E
:1018600080B584B000AF786004F046F8B8607B685B
:10187000FB60FB68B3F1FF3F0AD004F055F8034664
:101880001A46FB681344FB6002E0FFF77FFD30BFA0
:1018900004F032F80246BB68D31AFA689A42F4D8C8
:1018A00000BF00BF1037BD4680BD80B500AF4FF010
:1018B000FF300CF0A1FD00BF80BD80B400AF00BFC1
:1018C000BD465DF8047B704780B582B000AF78609C
:1018D00000214FF480700CF033FF00BF0837BD4685
:1018E00080BD80B582B000AF786002200CF094FF1C
:1018F00000BF0837BD4680BD80B582B000AF7860BC
:1019000002200CF0A9FF00BF0837BD4680BD80B59E
:1019100082B000AF0346FB80FB88102B06D0102B53
:101920000DDC012B05D0022B06D008E002F0E0FA16
:1019300006E002F009FB03E002F00DFB00E000BF4F
:1019400000BF0837BD4680BD80B500AF034B012204
:101950000349002000F096FE00BF80BD6519000815
:101960007802002080B500AF154B1B88FF2B1ED8D6
:10197000144B1B780D2B0FD1134914480DF028FD83
:1019800000F028F80E4B00221A804FF480720021DC
:101990000D480DF0A1FE0AE0094B1B885A1C91B2BC
:1019A000074A11801A46074B1978074B9954084B80
:1019B00001220449002000F065FE00BF80BD00BF89
:1019C0008003002078020020800200204C1B0108C8
:1019D0006519000880B500AF1C491D48FEF7D0FB13
:1019E0000346002B09D11B480DF062FD1A4B1B4A20
:1019F0001A60194804F07CFC26E019491448FEF7E7
:101A0000BFFB0346002B0AD116480DF051FD124BC7
:101A10004FF0B0521A60104804F06AFC14E012490A
:101A20000B48FEF7ADFB0346002B09D10F480DF024
:101A30003FFD094B0E4A1A60074804F059FC03E0C9
:101A400003490C480DF0C4FC00BF80BD5C1B0108BD
:101A500080020020601B01087002002004000016B4
:101A6000681B01086C1B0108741B0108781B010826
:101A700001000016801B010880B483B000AF7860BD
:101A8000064BD3F8802005497B681343C1F88030AA
:101A900000BF0C37BD465DF8047B70470008005856
:101AA00080B483B000AF7860054B1A6804497B6846
:101AB00013430B6000BF0C37BD465DF8047B7047D5
:101AC0000008005880B483B000AF0D4B9B6A9BB2F6
:101AD0007B600B4B9B6A9BB23B6005E03B687B6085
:101AE000074B9B6A9BB23B607A683B689A42F5D190
:101AF0003B6818460C37BD465DF8047B704700BF55
:101B00000028004080B485B000AF03460A46FB7150
:101B10001346BB71BA791D4913465B001344DB00C1
:101B20000B4415331B78FB73FB7B062B09D0FA7B28
:101B3000164913465B001344DB000B441433FA7957
:101B40001A70FA79114913465B001344DB000B4409
:101B50001533FA7B1A70FA790C4913465B0013446B
:101B6000DB000B441433BA791A70BA79074913466B
:101B70005B001344DB000B441533FA791A7000BF85
:101B80001437BD465DF8047B704700BF8403002016
:101B900080B485B000AF03460A46FB711346BB71A3
:101BA000294B1B78DBB2BA799A4232D0BA792749ED
:101BB00013465B001344DB000B4414331B78FB73A8
:101BC000FA7B224913465B001344DB000B441533B8
:101BD000FA791A70FA791D4913465B001344DB0049
:101BE0000B441533BA791A70FA79184913465B0019
:101BF0001344DB000B441433FA7B1A70BA7913498F
:101C000013465B001344DB000B441433FA791A705B
:101C100014E0FA790D4913465B001344DB000B44D2
:101C20001533BA791A70BA79084913465B00134420
:101C3000DB000B441433FA791A7000BF1437BD4629
:101C40005DF8047B704700BF14040020840300206B
:101C500080B584B000AF0346FB714E4B1B78DBB2FE
:101C6000062B18D14B4B1B78DAB24B4B1A70494AF2
:101C7000FB791370FA79494913465B001344DB0082
:101C80000B44153306221A70454B4FF0FF321A6091
:101C90000023FB8178E000F009F90346FB81FA7923
:101CA0003E4913465B001344DB000B4408331968BC
:101CB000FB89FA791944394813465B001344DB0069
:101CC000034408331960FA79344913465B0013441E
:101CD000DB000B4408331B68BB602E4B1B78DBB268
:101CE00019462E4A0B465B000B44DB0013440833B5
:101CF0001B68BA689A4237D3264B1B787B737A7B72
:101D0000264913465B001344DB000B4415331B7854
:101D10003B7313E07A7B214913465B001344DB00DD
:101D20000B4415331B787B737A7B1C4913465B008D
:101D30001344DB000B4415331B783B733B7B062BB2
:101D40000BD03A7B154913465B001344DB000B4470
:101D500008331B68BA689A42DCD27A7BFB79114659
:101D60001846FFF7CFFE0FE00A4B1B78DAB2FB797B
:101D700011461846FFF70CFF064B1B78DAB2064BEC
:101D80001A70044AFB791370FB8918461037BD4658
:101D900080BD00BF1404002015040020840300202F
:101DA0001804002080B485B000AF03460A46FB71DA
:101DB0001346BB71394B1B78DBB2FA799A4211D1C9
:101DC000364B1B78DAB2364B1A70FA79354913461E
:101DD0005B001344DB000B4415331B78DAB22F4B46
:101DE0001A703EE0FA792F4913465B001344DB007A
:101DF0000B4414331B78FB73FA792A4913465B00B2
:101E00001344DB000B4415331B78BB73F979FA7B61
:101E100024480B465B000B44DB00034415331B785E
:101E2000D8B2204913465B001344DB000B44153342
:101E300002461A70BB7B062B13D0F979BA7B19487E
:101E40000B465B000B44DB00034414331B78D8B211
:101E5000144913465B001344DB000B441433024661
:101E60001A70FA790F4913465B001344DB000B44E8
:101E70000C3301221A70094B1B78DBB2062B07D1F9
:101E8000BB79002B04D1084B4FF0FF321A6000BF22
:101E900000BF1437BD465DF8047B70471404002072
:101EA00015040020840300201804002080B582B0AF
:101EB00000AF1A4B1B68B3F1FF3F26D0FFF702FEBD
:101EC0007860164B1B687A689A4205D8134B1A68DB
:101ED0007B68D31A7B600AE0114B1B881A467B682B
:101EE000D31A3B600D4B1B683A6813447B600D4B63
:101EF0001B781A467B6802FB03F37B600A4B1B7856
:101F00001A467B68D3407B6001E000237B607B68DE
:101F10009BB218460837BD4680BD00BF180400209C
:101F2000200400201E0400201D04002080B582B083
:101F300000AF0346FB80FB88002B08D1FFF7C2FDF2
:101F40000346214A1360032003F083FE39E0FB8837
:101F5000012B03D81D4B1B78012B02D0FB88013BC2
:101F6000FB8000BF1A4B1B68DB6803F00403002BE7
:101F7000F8D0174B1B68DB68DAB2154B1B6862F4AC
:101F80009062DA60134B4FF40022DA60032003F012
:101F90006EFE114B5B691B0C1B04FA880E49134340
:101FA0004B61FFF78FFD0346074A1360084B1B6820
:101FB0009A68074B1B6842F480629A60AFF3008016
:101FC00000BF0837BD4680BD180400201D04002056
:101FD000BC040020000800580028004080B584B0F0
:101FE00000AF454B9B6803F48063B3F5806F07D166
:101FF00000BF424B1B68DB6803F00403002BF8D1E1
:102000003E4B1B689A683D4B1B6822F480629A60C5
:102010003B4B1B78FB73FA7B3A4913465B00134436
:10202000DB000B4408331B68BB60FFF73FFF034630
:10203000FB80FB88BA689A4205D20023BB81324BF1
:1020400001221A704DE0FB88304A128892B2134484
:102050001A46BB68934206D92C4B1B88BB812A4B7E
:1020600000221A703DE0BB689AB2FB88D31ABB818C
:10207000254B01221A7034E0FA7B224913465B009B
:102080001344DB000B4408331A68FB889A420AD2D7
:10209000FA7B1C4913465B001344DB000B440833F6
:1020A00000221A6013E0FA7B164913465B001344C2
:1020B000DB000B4408331968FB88FA7BC91A114806
:1020C00013465B001344DB00034408331960FA7BBA
:1020D0000C4913465B001344DB000B4415331B789B
:1020E000FB73FB7B062BC7D1BB891846FFF71EFF8E
:1020F00000BF1037BD4680BD00280040BC04002052
:1021000014040020840300201C040020220400206A
:1021100080B58AB000AFEFF310837B617B697B628F
:1021200072B600BF594B1B68CA225A62574B1B68D4
:1021300053225A62554B1B689A68544B1B6822F411
:1021400080629A60524B1B7887F8233097F82320DF
:10215000504913465B001344DB000B440C331B78DF
:10216000DBB2022B6ED197F823204A4913465B005D
:102170001344DB000B441B68FB6197F8232045499F
:1021800013465B001344DB000B4410331B68BB6138
:10219000414B1B78DBB2002B4CD097F823203D49F4
:1021A00013465B001344DB000B440D331B78DBB29A
:1021B000012B24D197F8233001211846FFF7F2FDB7
:1021C0007B6A3B613B6983F3108800BF97F823204B
:1021D000304913465B001344DB000B4404331A6898
:1021E00097F823301146184600F0B8F9274B1B68C2
:1021F000CA225A62254B1B6853225A6212E07B6A3C
:10220000FB60FB6883F3108800BF97F82330184603
:1022100000F020F91D4B1B68CA225A621B4B1B6839
:1022200053225A6297F82330FA691946B86900F0C8
:102230001BFA22E0FFF7D2FE7B6ABB60BB6883F328
:1022400010881AE000BF114B1B68DB6803F0040321
:10225000002BF8D00D4B1B68DB68DAB20B4B1B6808
:1022600062F49062DA600D4B4FF40022DA607B6A10
:102270007B607B6883F3108800BF044B1B68FF22E0
:102280005A6200BF2837BD4680BD00BFBC04002095
:1022900014040020840300201C04002000080058BF
:1022A00080B588B000AF03463960FB715E4B1B6898
:1022B000CA225A625C4B1B6853225A625B4B9B6872
:1022C0005A4A43F020039360584B9B68DBB203F0FB
:1022D0000703DBB2C3F10403DAB2554B1A70534B58
:1022E0001B6903F4FE034FF4FE023A613A6992FA65
:1022F000A2F2FA60FA687A617A69002A01D1202292
:1023000003E07A69B2FA82F2D2B2D340DBB201338F
:10231000DAB2484B1A70454B1B699BB2C3F30E03EC
:102320009BB201339AB2444B1A80434B1B88013B4A
:10233000404A127802FB03F3A3F5A0733C4A1278DB
:10234000D340BB61BB694FF6FE72934204D93B4B4D
:102350004FF6FF721A8003E0BB699AB2374B1A80BE
:102360004FF40020FFF79CFB4FF40020FFF784FBA5
:10237000FB79002B3DD1324B01221A70314B4FF0CB
:10238000FF321A600023FB770CE0FA7F2E491346D8
:102390005B001344DB000B440C3300221A70FB7FFC
:1023A0000133FB77FB7F052BEFD9284B06221A70F0
:1023B0001D4B1B689A681C4B1B6822F480629A6054
:1023C000194B1B68DB68DAB2174B1B6862F490622A
:1023D000DA601F4B4FF40022DA60032003F047FC61
:1023E000114B1B689A68104B1B6842F480429A603C
:1023F00009E00D4B1B68DB6803F48063002B02D0FF
:10240000032003F026FC084B1B68FF225A620022BF
:102410000321032003F0DBFB032003F0F2FB00BFEA
:102420002037BD4680BD00BFBC040020002800400E
:102430001D0400201E04002020040020220400208F
:102440001C04002018040020840300201404002031
:102450000008005880B586B000AF0346FB71EFF36B
:102460001083FB60FB687B6172B600BF032003F042
:10247000D6FB344B1B68CA225A62324B1B6853226C
:102480005A62FA79304913465B001344DB000B446F
:102490000C331B78DBB2022B42D1FB7900211846AA
:1024A000FFF780FC294B1B78FB74FB7C062B2FD19C
:1024B000274B9B6803F48063B3F5806F07D100BF9F
:1024C000204B1B68DB6803F00403002BF8D11D4B85
:1024D0001B689A681B4B1B6822F480629A6000BFDD
:1024E000184B1B68DB6803F00403002BF8D0154B76
:1024F0001B68DB68DAB2134B1B6862F49062DA6027
:10250000144B4FF40022DA60032003F0B0FB07E025
:10251000114B1B78DBB2FA7C9A4201D0FFF75EFDCB
:10252000084B1B68FF225A62032003F06AFB7B6999
:10253000BB60BB6883F3108800BF00BF1837BD467F
:1025400080BD00BFBC0400208403002014040020D0
:1025500000280040000800581504002080B586B00F
:1025600000AF03463960FB71FA793B4913465B00C3
:102570001344DB000B440C331B78DBB2022B03D17A
:10258000FB791846FFF766FFEFF31083FB60FB68EB
:102590007B6172B600BF032003F041FB2F4B1B6829
:1025A000CA225A622D4B1B6853225A62FA792A4971
:1025B00013465B001344DB000B440C3302221A70F9
:1025C000FA79254913465B001344DB000B440833BA
:1025D0003A681A60FA79204913465B001344DB001D
:1025E0000B4404333A681A60FB791846FFF730FB56
:1025F00003467B821A4B1B787B741A4B1B78DBB229
:102600007A7C9A4202D0FFF7E9FC13E0FA7912498A
:1026100013465B001344DB000B44083319687B8AC4
:10262000FA79C91A0C4813465B001344DB000344D3
:1026300008331960094B1B68FF225A62032003F01C
:10264000E0FA7B69BB60BB6883F3108800BF00BF02
:102650001837BD4680BD00BF84030020BC040020A5
:10266000140400201504002080B584B000AFF86089
:102670000B467A60FB727B68984700BF1037BD46F7
:1026800080BD000080B584B000AFB9607B600346B8
:10269000FB731346BB81FB7B002B0CD1084A7B6884
:1026A0001360084B084A1A60BB891A46B968054886
:1026B00007F07EF900E000BF00BF1037BD4680BDC7
:1026C00024040020900500200038014080B586B029
:1026D00000AFB9607B600346FB731346BB810023E8
:1026E000FB750023BB75FB7B002B0ED1174A7B6863
:1026F0001360174B174A1A60BB891A46B968144809
:1027000007F0A2F90346FB7500E000BFFB7D032B39
:1027100016D801A252F823F0292700082F27000815
:10272000352700083B2700080023BB7509E001237B
:10273000BB7506E00223BB7503E00323BB7500E015
:1027400000BFBB7D18461837BD4680BD2804002059
:10275000900500200038014080B582B000AF78605D
:102760007B681B681A46094B9A4207D1084B1B68C5
:10277000002B05D0064B1B68984701E000BF00E026
:1027800000BF00BF0837BD4680BD00BF0038014014
:102790002404002080B582B000AF78607B681B689D
:1027A0001A46094B9A4207D1084B1B68002B05D0EB
:1027B000064B1B68984701E000BF00E000BF00BF68
:1027C0000837BD4680BD00BF003801402804002006
:1027D00080B483B000AF78604FF0B043D3F890304E
:1027E00023F018024FF0B0417B681343C1F89030DA
:1027F00000BF0C37BD465DF8047B704780B485B0E0
:1028000000AF78604FF0B0439A6C4FF0B0417B68F6
:1028100013438B644FF0B0439A6C7B681340FB60AA
:10282000FB6800BF1437BD465DF8047B704780B479
:1028300085B000AF78604FF0B043DA6C4FF0B04134
:102840007B681343CB644FF0B043DA6C7B68134072
:10285000FB60FB6800BF1437BD465DF8047B704722
:1028600080B584B000AF02F0D9FFFEF7CFFD00F0D5
:1028700073F800F0CDF800F02BF900F073FA00F0D7
:102880005FFA00F041F900F0E3F800F0AFF900F072
:102890006FF900F031F900F087FB00F0A8FD00218E
:1028A000002000F0EBFC01222749284800F07AFDC7
:1028B00000F03EFCFEF7B8FD0023FB6041F28833D8
:1028C0007B600023FB72FEF7F0FF214801F0FEFD64
:1028D000FB7A002B04D103F00FF8F8600123FB72A0
:1028E0001B4B1B78002B0FD0FB7A002B0CD003F076
:1028F00003F80246FB68D31A7A689A4204D800F0BB
:1029000091FA0023FB721DE0114B1B78002BDAD1EA
:10291000FB7A002BD7D002F0EFFF0246FB68D31AF8
:102920007A689A42CFD800F062FD0021002000F0C2
:10293000A5FC01220449074800F034FD00F0F8FB33
:102940000023FB72BFE700BF08000020A01B0108A6
:1029500084060020B41B010880B59AB000AF07F1CF
:1029600020034822002118460CF0B6FE3B1D002231
:102970001A605A609A60DA601A615A619A6104F0CA
:102980008DFC0020FFF724FF204B1B6823F4C0635D
:102990001E4A43F4007313601C4B1B6803F4C063AE
:1029A0003B603B6807233B624FF480337B6201232B
:1029B000BB624FF48073FB6240233B630023FB64E4
:1029C00007F12003184604F0FDFF0346002B01D059
:1029D00000F0E2FA6F237B600223BB600023FB6000
:1029E00000233B6100237B610023BB610023FB616B
:1029F0003B1D0121184605F059FB0346002B01D071
:102A000000F0CAFA00BF6837BD4680BD0004005818
:102A100080B594B000AF3B465022002118460CF020
:102A20005BFE4FF440533B604FF480437B640223D2
:102A3000BB641023FB643B46184605F074FF034655
:102A4000002B01D000F0A8FA00BF5037BD4680BD72
:102A500080B500AF1B4B1C4A1A601A4B1B4A5A60C8
:102A6000184B00229A60174B0122DA60154B0022A6
:102A70001A61144B00225A61124B00229A61114BC9
:102A80000022DA610F4B00221A620E4803F016FE94
:102A90000346002B01D000F07FFA0021094804F022
:102AA000DFFA0346002B01D000F076FA002105483A
:102AB00004F021FB0346002B01D000F06DFA00BFAB
:102AC00080BD00BF2C040020005400402F11600086
:102AD00080B500AF064B074A1A60054804F058FB62
:102AE0000346002B01D000F057FA00BF80BD00BFA5
:102AF00080040020000C005880B400AF00BFBD4629
:102B00005DF8047B7047000080B500AF164B174A94
:102B10001A60154B00225A60134B0F229A60124B19
:102B200047F6FF72DA60104B00221A610E4B00224A
:102B30009A610D4B0022DA610B4B00225A610A4860
:102B400006F078F90346002B01D000F025FA0022A8
:102B50000021054806F07AFA0346002B01D000F068
:102B60001BFA00BF80BD00BFBC040020002800404D
:102B700080B500AF1B4B1C4A1A601A4B4FF482728F
:102B80005A60184B00229A60164B4FF44072DA607C
:102B9000144B00221A61134B00225A61114B4FF45F
:102BA00080229A610F4B0022DA610E4B00221A62DA
:102BB0000C4B00225A620B4B00229A62094B0722EF
:102BC000DA62084B00221A63064B08225A63054852
:102BD00006F03EFB0346002B01D000F0DDF900BFFC
:102BE00080BD00BFE00400200030014080B588B007
:102BF00000AF07F10C0300221A605A609A60DA6095
:102C00001A613B4600221A605A609A60234B244A9C
:102C10001A60224B00225A60204B00229A601F4B00
:102C20004FF6FF72DA601D4B00221A611B4B002227
:102C30005A611A4B00229A61184806F0ACFB034611
:102C4000002B01D000F0A8F90723FB6070233B6143
:102C500000237B610023BB610023FB6107F10C03B0
:102C600019460E4806F0EEFB0346002B01D000F09B
:102C700093F900233B6000237B600023BB603B464D
:102C80001946064806F0C4FD0346002B01D000F0AB
:102C900083F900BF2037BD4680BD00BF440500203A
:102CA000002C014080B500AF234B244A1A60224B10
:102CB0004FF4E1325A60204B00229A601E4B0022F2
:102CC000DA601D4B00221A611B4B0C225A611A4B11
:102CD00000229A61184B4FF40042DA61164B002231
:102CE0001A62154B00225A62134B00229A62124854
:102CF00006F00EFE0346002B01D000F04DF9002136
:102D00000D4808F06EFE0346002B01D000F044F998
:102D10000021094808F0A3FE0346002B01D000F073
:102D20003BF9054808F024FE0346002B01D000F0D3
:102D300033F900BF80BD00BF90050020003801407E
:102D400080B500AF0420FFF759FD0220FFF756FDC4
:102D500000220F213A2002F03AFF3A2002F051FF00
:102D600000BF80BD80B586B000AF3B1D00221A6059
:102D70005A609A60DA601A610420FFF758FD022059
:102D8000FFF755FD0120FFF752FD00224FF40171BE
:102D90004FF0904003F03EFC00224021204803F019
:102DA00039FC4FF401737B600123BB600023FB609F
:102DB00000233B613B1D19464FF0904003F0BAFAE7
:102DC00008237B600223BB600023FB6003233B617D
:102DD00008237B613B1D19464FF0904003F0AAFA8F
:102DE0004FF480737B604FF48813BB600023FB605B
:102DF0003B1D19464FF0904003F09CFA40237B6046
:102E00000123BB600023FB6000233B613B1D19468F
:102E1000034803F08FFA00BF1837BD4680BD00BFDE
:102E20000008004880B584B002AF4D4BB3F90430C0
:102E300007EE903AB8EEE77ADFED4A6AC7EE267AF7
:102E40009FED497A67EE877A9FED487A77EEC77AE9
:102E5000C7ED007A424B5B8807EE903AB8EE677A8E
:102E6000DFED406AC7EE267A9FED417A67EE877AFA
:102E7000B1EE087A77EEC77AC7ED017AD7ED017A1D
:102E8000F5EEC07AF1EE10FA02D54FF000037B6048
:102E9000D7ED017A9FED377AF4EEC77AF1EE10FAAA
:102EA00001DD354B7B603868FDF736FB02460B468B
:102EB000CDE90023314A182131480CF001FB00F024
:102EC00096FA0021002000F0D9F901222D492E4860
:102ED00000F068FA0E21002000F0D0F90122294903
:102EE000274800F05FFA7868FDF716FB02460B46AC
:102EF000CDE90023254A182121480CF0E1FA1B21D5
:102F0000002000F0BBF901221E491D4800F04AFADA
:102F1000134BB3F904301E4A182119480CF0D0FAAB
:102F20002821002000F0AAF901221649144800F0D7
:102F300039FA0B4B5B88174A182111480CF0C0FA7C
:102F40003521002000F09AF901220E490C4800F0CA
:102F500029FA00F0EDF800BF0837BD4680BD00BF7C
:102F60008406002000FF7F4700002F43000034420A
:102F70000000FA420000C8420000C842C41B010819
:102F80009406002008000020D41B0108E41B01085F
:102F9000F41B0108001C010880B400AF00BFBD464F
:102FA0005DF8047B7047000080B582B000AF00F090
:102FB00027FA44F62063012278215B4803F032FDB2
:102FC0000346002B01D00023A9E040F6C4137B6028
:102FD00002E07B68013B7B607B68002BF9D1AE226D
:102FE0000021782000F088FA20220021782000F0CB
:102FF00083FA10220021782000F07EFAB02200210E
:10300000782000F079FAC0220021782000F074FACC
:1030100000220021782000F06FFA10220021782091
:1030200000F06AFA40220021782000F065FA81223F
:103030000021782000F060FAFF220021782000F0C3
:103040005BFAA0220021782000F056FAA622002187
:10305000782000F051FAA8220021782000F04CFAE4
:103060003F220021782000F047FAA4220021782096
:1030700000F042FAD3220021782000F03DFA00222D
:103080000021782000F038FAD5220021782000F0C5
:1030900033FAF0220021782000F02EFAD922002104
:1030A000782000F029FA22220021782000F024FA6A
:1030B000DA220021782000F01FFA12220021782065
:1030C00000F01AFADB220021782000F015FA202205
:1030D0000021782000F010FA8D220021782000F0E5
:1030E0000BFA14220021782000F006FAAF2200210A
:1030F000782000F001FA2E220021782000F0FCF95F
:10310000002000F043F800F013F8084B00221A806A
:10311000064B00225A80054B01225A7101231846A2
:103120000837BD4680BD00BF2C040020AC0A00203B
:1031300080B582B000AF0023FB711DE0FB79503BEE
:10314000DBB21A460021782000F0D6F900220021D7
:10315000782000F0D1F910220021782000F0CCF97D
:10316000FB79DB01084A1A4480234021782000F0D3
:103170005DF9FB790133FB71FB79072BDED900BFC9
:1031800000BF0837BD4680BDAC06002080B582B0C8
:1031900000AF0346FB71FB79002B01D1002300E057
:1031A000FF234FF48062194603480CF095FA00BFE4
:1031B0000837BD4680BD00BFAC06002080B483B098
:1031C00000AF0346FB800B46BB801346FB70FB88B9
:1031D0007F2B48D8BB883F2B45D8264B1B79002B2B
:1031E00006D0FB78002B0CBF01230023DBB2FB7061
:1031F000FB78012B1AD1FA88BB88DB0898B203460A
:10320000DB0113441C4AD35C5AB2BB8803F00703AA
:10321000012101FA03F35BB2134359B2FA88034662
:10322000DB011344C9B2144AD1541DE0FA88BB88AB
:10323000DB0898B20346DB0113440F4AD35C5AB251
:10324000BB8803F00703012101FA03F35BB2DB4300
:103250005BB2134059B2FA880346DB011344C9B28A
:10326000054AD15400E000BF0C37BD465DF8047B31
:10327000704700BFAC0A0020AC06002080B483B0C9
:1032800000AF03460A46FB801346BB80054AFB8815
:103290001380044ABB88538000BF0C37BD465DF8DD
:1032A000047B7047AC0A002080B586B000AF0346AF
:1032B0003960FB711346BB71394B1B881A463B685A
:1032C0001B7813447F2B07DC354B5B881A463B6821
:1032D0005B7813443F2B01DD00235DE000237B611D
:1032E0004BE03B685A68FB79203B3968497801FB21
:1032F00003F319467B690B445B0013441B88FB6096
:1033000000233B6130E0FA683B6902FA03F303F4FF
:103310000043002B10D0224B1A883B699BB2134408
:1033200098B21F4B5A887B699BB213449BB2BA79FF
:103330001946FFF743FF14E0194B1A883B699BB20B
:10334000134498B2164B5A887B699BB2134499B2C6
:10335000BB79002B0CBF01230023DBB21A46FFF719
:103360002DFF3B6901333B613B681B781A463B6983
:103370009342C8D37B6901337B613B685B781A4613
:103380007B699342ADD3064B1B883A68127813448D
:103390009AB2034B1A80FB7918461837BD4680BD98
:1033A000AC0A002080B584B000AFF860B960134665
:1033B000FB7112E0FB681B78FA79B9681846FFF7D1
:1033C00073FF03461A46FB681B789A4202D0FB68DB
:1033D0001B7808E0FB680133FB60FB681B78002B5F
:1033E000E8D1FB681B7818461037BD4680BD80B514
:1033F00000AF0020FFF7CAFEFFF79AFE00BF80BDB6
:1034000080B483B000AF084B7B6002E07B68013B77
:103410007B607B68002BF9D100BF00BF0C37BD4635
:103420005DF8047B704700BF90D0030090B5C7B033
:1034300002AF0446084607F58871A1F588710A6055
:10344000194607F58873A3F2091322461A7007F587
:103450008873A3F5857302461A7007F58873A3F580
:1034600086730A461A8007F58873A3F5827307F5F9
:103470008872A2F5857212781A70002387F80F31CE
:1034800015E097F80F3107F58872A2F58872126877
:103490001A4497F80F310133117807F58872A2F5B5
:1034A0008272D15497F80F31013387F80F3197F8B2
:1034B0000F319BB207F58872A2F5867212889A4284
:1034C000DFD807F58873A3F209131B7899B207F5C3
:1034D0008873A3F586731B8801339BB207F10C0236
:1034E0000A200090034803F085F900BF07F58A77AA
:1034F000BD4690BD2C04002080B586B002AF0346C7
:10350000FB710B46BB7113467B71BB793B737B79B7
:103510007B73FB7999B207F10C020A230093022313
:10352000034803F067F900BF1037BD4680BD00BFF8
:103530002C04002080B400AF4FF0B043D3F890309B
:103540004FF0B04243F40043C2F8903000BFBD4694
:103550005DF8047B704780B485B000AF78604FF0B1
:10356000B043DA6C4FF0B0417B681343CB644FF04B
:10357000B043DA6C7B681340FB60FB6800BF143714
:10358000BD465DF8047B704780B485B000AF7860BD
:103590004FF0B0431A6D4FF0B0417B6813430B6599
:1035A0004FF0B0431A6D7B681340FB60FB6800BFAF
:1035B0001437BD465DF8047B704780B485B000AF1A
:1035C00078604FF0B0439A6D4FF0B0417B68134381
:1035D0008B654FF0B0439A6D7B681340FB60FB68CE
:1035E00000BF1437BD465DF8047B704780B485B0DA
:1035F00000AF78604FF0B0431A6E4FF0B0417B6877
:1036000013430B664FF0B0431A6E7B681340FB60A8
:10361000FB6800BF1437BD465DF8047B704780B57A
:1036200000AF4FF40020FFF7AFFF002200212E2053
:1036300002F0CDFA2E2002F0E4FA00BF80BD0000B7
:1036400080B59CB000AF786007F15C0300221A607F
:103650005A609A60DA601A6107F10C035022002167
:1036600018460CF039F87B681B68174A934226D13C
:103670000423FB604FF44033FB6207F10C03184650
:1036800005F051F90346002B01D0FFF785FC02201D
:10369000FFF761FF4FF44073FB6512233B66002385
:1036A0007B660023BB660423FB6607F15C031946B7
:1036B000064802F03FFE4FF40010FFF77EFF00BF08
:1036C0007037BD4680BD00BF005400400004004874
:1036D00080B582B000AF78607B681B680D4A93426A
:1036E00013D14FF48010FFF74FFF002200212C2050
:1036F00002F06DFA2C2002F084FA002200212D2025
:1037000002F065FA2D2002F07CFA00BF0837BD46B2
:1037100080BD00BF000C005880B596B000AF786047
:1037200007F108035022002118460BF0D5FF7B68F3
:103730001B68144A934220D14FF40063BB604FF4DE
:103740008073BB6407F10803184605F0ECF80346E4
:10375000002B01D0FFF720FCFFF7ECFE4FF4806058
:10376000FFF72BFF00220021032002F030FA032094
:1037700002F047FA786805F035FD00BF5837BD46BE
:1037800080BD00BF0028004080B588B000AF7860E1
:1037900007F10C0300221A605A609A60DA601A611D
:1037A0007B681B680F4A934217D14FF48050FFF794
:1037B0001DFF0120FFF7CFFEF023FB6002233B61DA
:1037C00000237B610023BB610523FB6107F10C0330
:1037D00019464FF0904002F0ADFD00BF2037BD46C6
:1037E00080BD00BF0030014080B588B000AF786078
:1037F00007F10C0300221A605A609A60DA601A61BD
:103800007B681B680F4A934218D14FF40060FFF7A2
:10381000EDFE0120FFF79FFE4FF48053FB60022373
:103820003B6100237B610023BB610123FB6107F146
:103830000C0319464FF0904002F07CFD00BF20378A
:10384000BD4680BD002C014080B59CB000AF7860C3
:1038500007F15C0300221A605A609A60DA601A610C
:1038600007F10C035022002118460BF035FF7B684E
:103870001B682E4A934255D10123FB6000237B62D3
:1038800007F10C03184605F04EF80346002B01D053
:10389000FFF782FB4FF48040FFF7A8FE0220FFF7FE
:1038A0005AFEC023FB6502233B6601237B6603238C
:1038B000BB660723FB6607F15C0319461C4802F050
:1038C00039FD1C4B1C4A1A601A4B0F225A60194BC7
:1038D00010229A60174B0022DA60164B80221A6180
:1038E000144B00225A61134B00229A61114B0022A3
:1038F000DA61104B00221A620E4802F0C7F9034643
:10390000002B01D0FFF748FB7B680A4ADA67094AB7
:103910007B68936200220021242002F058F92420C1
:1039200002F06FF900BF7037BD4680BD003801401E
:1039300000040048240600204404024080B400AF84
:1039400000BFBD465DF8047B704780B400AF00BF88
:10395000FDE780B400AF00BFFDE780B400AF00BF5B
:10396000FDE780B400AF00BFFDE780B400AF00BF4B
:10397000BD465DF8047B704780B400AF00BFBD4614
:103980005DF8047B704780B400AF00BFBD465DF8B2
:10399000047B704780B500AF01F09AFF00BF80BD87
:1039A00080B500AFFEF7B4FB00BF80BD80B500AFAF
:1039B000024806F0C9F800BF80BD00BF9005002096
:1039C00080B500AF01F0CCFB00BF80BD80B500AF7B
:1039D00001F0FCFB00BF80BD80B500AF02F04AFEE5
:1039E00000BF80BD80B500AF024802F030FB00BFD1
:1039F00080BD00BF2406002080B500AF102002F07B
:103A000021FE00BF80BD80B500AF012002F01AFE8C
:103A100000BF80BD80B500AF022002F013FE00BFE2
:103A200080BD80B400AF01231846BD465DF8047B1D
:103A3000704780B582B000AF786039600BF09EFEB1
:103A4000034616221A604FF0FF3318460837BD466A
:103A500080BD80B582B000AF78604FF0FF317868EC
:103A6000FFF7E7FF00BFFDE780B586B000AFF86065
:103A7000B9607A6000237B610AE0AFF30080014601
:103A8000BB685A1CBA60CAB21A707B6901337B6189
:103A90007A697B689A42F0DB7B6818461837BD4626
:103AA00080BD80B483B000AF78604FF0FF3318461C
:103AB0000C37BD465DF8047B704780B483B000AF1F
:103AC000786039603B684FF400525A600023184612
:103AD0000C37BD465DF8047B704780B483B000AFFF
:103AE0007860012318460C37BD465DF8047B7047AB
:103AF00080B485B000AFF860B9607A6000231846E2
:103B00001437BD465DF8047B7047000080B586B071
:103B100000AF7860144A154BD31A7B617B693B6117
:103B2000134B1B68002B02D1114B124A1A60104B29
:103B30001A687B6813443A699A4207D20BF01EFE5A
:103B400003460C221A604FF0FF3309E0084B1B6854
:103B5000FB60074B1A687B681344054A1360FB68D7
:103B600018461837BD4680BD000003200010000035
:103B7000B40A0020001E002080B400AF034B1B6875
:103B80001846BD465DF8047B704700BF8075FF1F77
:103B900080B400AF034B1B68DBB21846BD465DF82E
:103BA000047B70478475FF1F80B400AF034B1B6814
:103BB0001B0A1846BD465DF8047B70478475FF1FDD
:103BC00080B592B000AF3B1D4322002118460BF098
:103BD00083FD44233B8308237B834FF4A863BB838B
:103BE0000223BB770123FB77122387F82030292398
:103BF00087F821309C237B844FF4FA73BB844FF009
:103C0000FF33BB624FF4A473BB85012387F82E30CA
:103C1000202387F83130D82387F83230062387F8FD
:103C20003330032387F8353040F27263FB860D236F
:103C300087F83C30042387F83E3000F093F90121E7
:103C400002200AF0A9FB174A002110200AF056FDB5
:103C50003B1D184609F016F9034687F8473097F8D8
:103C60004730002B08D097F8473019460E480BF024
:103C7000AFFBFFF791F902E00C480BF0A9FB00F055
:103C800087F90AF061F80A4A002101200AF036FD9E
:103C9000084B002283F8742000F0A8FC00BF4837CE
:103CA000BD4680BDF5CA00080C1C0108441C010873
:103CB00069420008CC0A002080B58CB000AF786063
:103CC0007B680133BB62BB6A02337B620023FB6209
:103CD000BB6A1B78FF2B07D0FF2B00F3D480052B8A
:103CE00026D03E2B42D0CEE06B4B01221A70BB6A2D
:103CF00002333B623B6A1B889BB21A4640F2074381
:103D00009A4213D1654B1B78DBB2002B07D0644875
:103D10000BF0CEFB002101200AF012FD02E0614809
:103D20000BF0C6FB3B6A0233FB6100E000BFADE075
:103D30007B6AB3F801309AB25B4B9B899A4240F0A0
:103D4000A480594B00229A81574B002283F874209B
:103D500056480BF03DFB504B01221A70524B9A898A
:103D60004D4B5A804C4800F087FC8EE0BB6A023312
:103D7000BB61BB691B78012B00F08380022B00D054
:103D800080E0BB6901337B617B695B78FB747B6995
:103D90005B7ABB747B6909330133FB600023FB62F0
:103DA0006AE0FB6AFA6813441B78FB72FB6A013312
:103DB000FA6813441B78BB72BB7AFF2B0AD0FF2B27
:103DC0004EDC162B40D0162B4ADC012B4AD00A2B96
:103DD0004AD045E0FB7A062B48D9FB6A0233FA68E1
:103DE00013441B78012B41D131480BF0F1FAFB6AE7
:103DF0000333FA6813441B78832B23D12D480BF02F
:103E0000E7FA294B012283F876207B699A782A4BBE
:103E10001A707B69DA78294B1A707B691A79274BFB
:103E20005A707B695A79254B9A707B699A79234B32
:103E3000DA707B69DA79214B1A717B691A7A1F4B28
:103E40005A7100E000BF11E0FB6A0233FA681A44BD
:103E5000FB7A013BDBB21946104600F079FA06E026
:103E600000BF04E000BF02E000BF00E000BFFB7A3B
:103E70000133FA6A1344FB62BB7CFA6A9A4290DB14
:103E800000E000BF02E000BF00E000BF01231846D1
:103E90003037BD4680BD00BFC80A0020540B00204B
:103EA0006C1C0108A01C0108CC0A0020C41C0108DD
:103EB000F01C0108101D0108C60A0020C00A0020DD
:103EC00080B483B000AF0346FB80084B9B89FA881F
:103ED0009A4203D1054B93F8743000E00023184652
:103EE0000C37BD465DF8047B704700BFCC0A00204C
:103EF00080B500AF114B1B78DBB283F00103DAB25F
:103F00000E4B1A700D4B1B78DBB2002B0AD00C48FD
:103F10000BF0CEFA002101200AF012FC002001F083
:103F200063FB08E007480BF0C3FA022008F0A1F891
:103F3000002001F073FB00BF80BD00BF540B0020C8
:103F4000341D0108501D010880B400AF00BFBD46FC
:103F50005DF8047B704780B400AF00BFBD465DF8DC
:103F6000047B704780B582B000AF064B3B60064BC8
:103F70007B603B461946054808F0A0FD00BF0837A6
:103F8000BD4680BD28000320B54500087D450008DA
:103F9000B0B58CB006AF00233B809223FB759748E9
:103FA0000BF086FA08F0B0FC0346FB75FB7D002B96
:103FB00005D0FB7D194692480BF00AFA02E09148C1
:103FC0000BF076FA00F080F938613A69062100209A
:103FD00008F0AEFB0346FB75FB7D002B05D0FB7D97
:103FE000194689480BF0F4F921E088480BF060FA93
:103FF0003B6905331B7818463B6904331B781C4624
:104000003B6903331B781D463B6902331B781A4614
:104010003B6901331B7819463B691B780293019178
:1040200000922B462246014679480BF0D1F9794A95
:104030001021182008F07CFB0346FB75FB7D002B4C
:1040400005D0FB7D194674480BF0C2F902E07348B5
:104050000BF02EFA724A1021082008F069FB034683
:10406000FB75FB7D002B05D0FB7D19466D480BF0E1
:10407000AFF902E06C480BF01BFA1821012008F0A0
:10408000DCFB0346FB75FB7D002B05D0FB7D194651
:1040900066480BF09DF902E065480BF009FA08F05C
:1040A0003CF80346FB75FB7D002B05D0FB7D1946D4
:1040B00060480BF08DF902E05F480BF0F9F900233E
:1040C000FB73FB7B43F00403FB73FB7B002B2BD0C8
:1040D0005A4BBB60BA1DF87BBB1C01933B1D009380
:1040E00013460722002107F05FFE0346FB75FB7DA8
:1040F000002B05D0FB7D194651480BF069F902E011
:1041000050480BF0D5F9FC88BD88B868FCF798F8E2
:104110000346DAB2BB6800931346002229462046C4
:1041200008F020F80346FB75F88879883B46009331
:104130000223002208F016F80346FB75424B0122C9
:104140001A70414B1B78184607F016FD0346FB75A5
:10415000FB7D002B05D0FB7D19463C480BF038F960
:1041600002E03B480BF0A4F9374B01225A70364B62
:104170000822DA70344B10221A71334B01229A70E4
:10418000314B9878304B59782F4BDB782E4A127987
:1041900000240494002403940124029401920093C7
:1041A0000023012207F03CFD0346FB75FB7D002B3D
:1041B00005D0FB7D194627480BF00AF902E0264896
:1041C0000BF076F9204B9B78002B0FD007F099FE6F
:1041D0000346FB75FB7D002B05D0FB7D19461F4870
:1041E0000BF0F6F802E01E480BF062F91D480BF0E8
:1041F000EFF800BF1837BD46B0BD00BF6C1D010809
:10420000981D0108C81D0108E81D01084C1E010881
:10421000A01E01081C300108DC1E0108341F010823
:104220002C3001087C1F0108D41F01081C20010844
:104230005C2001088C200108C0200108E42001084E
:10424000EC2001081C210108CC0A00203C210108B7
:104250007C210108AC210108F82101083422010861
:1042600074220108A422010880B582B000AF114B6E
:104270001B78DBB2002B03D10F480BF019F916E0C5
:104280000E480BF015F9012300224FF448714FF44A
:10429000487007F05AFE0346FB71FB79002B03D1EF
:1042A00007480BF005F902E006480BF001F9083762
:1042B000BD4680BD540B0020D0220108F822010821
:1042C000202301083823010880B586B000AFFFF72E
:1042D00053FC38613B69B3F1FF3F23D0FFF764FC27
:1042E000B860FFF755FC78603B69DAB2164B1A707C
:1042F0003B691B0ADAB2144B5A707B68DAB2124B74
:104300009A70BB68DAB2104BDA70BB681B0ADAB27B
:104310000D4B1A71BB681B0CDAB20B4B5A710A4B6E
:104320007B610BE0002008F085FDF860FB68002B46
:1043300002D0FB687B6101E0044B7B617B6918461E
:104340001837BD4680BD00BFB80A002014300108F0
:1043500080B586B000AF78600B46FB707B68002BA1
:1043600000F09A80FB780F2B40F296807B681B78D8
:10437000AA2B40F093807B6801331B78FE2B40F022
:104380008D807B6802331B78202B40F089807B680E
:1043900004331B781BB21B021AB27B6805331B78EF
:1043A0001BB213431BB2FB827B6806331B781BB224
:1043B0001B021AB27B6807331B781BB213431BB274
:1043C000BB827B6808331B781A067B6809331B782D
:1043D0001B041A437B680A331B781B0213437A6859
:1043E0000B32127813433B617B680C331B781A063F
:1043F0007B680D331B781B041A437B680E331B78D4
:104400001B0213437A680F3212781343FB607B68F8
:10441000DA78254B5A70244AFB8A5380B7F9142066
:10442000214B9A80204A3B6993601F4AFB68D36006
:104430001D4B01221A701D480BF03AF87B680333BC
:104440001B7819461A480AF0C3FFFB8AFA8A1946F4
:1044500018480AF0BDFFBB8ABA8A194616480AF006
:10446000B7FF396915480AF0B3FFFB68144AA2FB8D
:104470000323D808F968124BA3FB0123DA0813467B
:104480009B0013445B00CA1A01460E480AF0A0FFC5
:104490000D480BF00DF804E000BF02E000BF00E0A3
:1044A00000BF1837BD4680BD440B002050230108D3
:1044B000782301088C230108A8230108C8230108D8
:1044C000CDCCCCCCE42301080824010880B483B00F
:1044D00000AF78607B68002B04D0154B1B78DBB2F3
:1044E000002B03D17B6800221A701BE0114B1B7854
:1044F000DAB27B681A700F4B5B78DAB27B685A705D
:104500000C4B5B889AB27B685A800A4B9B881AB224
:104510007B689A80074B9A687B689A60054BDA68DB
:104520007B68DA600C37BD465DF8047B704700BFDE
:10453000540B0020440B002080B582B000AF78609F
:10454000002110200AF0FCF800BF0837BD4680BDEE
:1045500080B582B000AF786001200AF05DF900BF3D
:104560000837BD4680BD80B582B000AF78600120BD
:104570000AF072F900BF0837BD4680BD80B584B02F
:1045800000AF78607B68FB60FB685B6808331846A7
:1045900009F02CFC0346FB72FB7A002B03D0FB686E
:1045A00001221A7003E0FB6800221A7000BF103766
:1045B000BD4680BD80B584B000AF0346FB71FB797A
:1045C000002B02D0012B06D00BE0FF23FB60F86824
:1045D0000AF0E2F805E0FF23FB60F8680AF0FCF857
:1045E00000BF00BF1037BD4680BD000080B582B05F
:1045F00000AF0023FB711A4A002104200AF07EF864
:10460000184A002120200AF079F8174B00221A706E
:10461000154B0022DA80144B00225A70124B0022F4
:104620009A70114B0122DA700F4B00221A7100238D
:10463000FB7108E0FB790D4A1B01134400221A703C
:10464000FB790133FB71FB79002BF3D0084809F0AB
:10465000B3FB08480AF02CFF00BF0837BD4680BDF9
:10466000B14D0008694D0008680B0020580B002070
:10467000E54600083024010880B584B000AF7860BA
:104680007B681B78002B02D0012B05D022E07B68D1
:104690005A88124BDA801DE00023FB730F4B002277
:1046A000DA8005E0FB7B0E4A1B01134400221A70DE
:1046B000FB7B002B06D1FB7B094A1B0113441B78B3
:1046C000002BEFD1002000F0A9FF002102200AF00A
:1046D00037F800BF00BF1037BD4680BD680B002013
:1046E000580B002080B594B000AF7860002387F8A5
:1046F00045307B6801333B643B6C1B78FF2B40F0FB
:10470000AD823B6C0233FB63FB6B1B889BB2A3F651
:1047100004430C2B00F2968201A252F823F000BF52
:104720004B4A0008454C000805490008454C000864
:10473000454C0008454C000855470008454C00080A
:10474000454C0008454C0008454C0008734B0008D8
:10475000EF4B0008FB6B02333B633B6B1A785B78D3
:104760001B021343FB85002387F84D302EE097F89A
:104770004D30B94A1B01134402331B881846FFF71A
:104780009FFB034687F82D3097F84D30B24A1B0146
:1047900013441B78062B14D197F82D30002B10D121
:1047A00097F84D30AC4A1B01134400221A7097F859
:1047B0004D30A94A1B01134402334FF6FF721A8091
:1047C00010E097F84D30013387F84D3097F84D30B1
:1047D000002B07D197F84D309F4A1B0113441B78DB
:1047E000002BC4D197F84D30002B40F02D8297F864
:1047F0004D30994A1B0113440233FA8D1A803B6BEA
:10480000DA783B6B9B78B2FBF3F387F82C303B6B89
:104810009B78142B40F01882102387F84E30002329
:1048200087F84F3067E097F84E303A6B13441B79A6
:10483000194697F84E303A6B1344043301331B7812
:104840001B029BB20B437B857B8D4FF640629342EC
:1048500047D197F84D30804A1B01134402331B881F
:1048600019467E480AF0B4FD97F84E30103B3A6B7B
:1048700013441B79194697F84E30103B3A6B13449A
:10488000043301331B781B029AB297F84D300A4368
:1048900091B2714A1B01134404330A461A8097F8F7
:1048A0004E300E3B3A6B13441B79194697F84E3045
:1048B0000E3B3A6B1344043301331B781B029AB24C
:1048C00097F84D300A4391B2634A1B0113440633F3
:1048D0000A461A8097F84D305F4A1B01134408229C
:1048E0001A7097F84E30063387F84E3097F84F30ED
:1048F000013387F84F3097F84F2097F82C309A42C1
:1049000091D3A1E1FB6B02337B62002387F84B302C
:1049100004E097F84B30013387F84B3097F84B3071
:10492000002B0BD197F84B304B4A1B011344023339
:104930001A887B6A1B889BB29A42EAD197F84B305F
:10494000002B40F08381112387F84C307B6A9B78E1
:10495000152B40F07B817B6ADB78013BDAB27B6A06
:10496000DA706DE097F84C307A6A13441B79194677
:1049700097F84C307A6A1344043301331B781B02D6
:104980009BB20B437B8497F84C300E3B7A6A1344FE
:104990001B79194697F84C300E3B7A6A134404335E
:1049A00001331B781B029BB20B433B847B8C4FF67D
:1049B000416293421AD197F84B30274A1B011344A6
:1049C00002331B88194626480AF002FD97F84B303F
:1049D000214A1B01134409221A7097F84B301E4AD2
:1049E0001B01134408333A8C1A801EE07B8C4FF66F
:1049F0004262934219D197F84B30174A1B01134476
:104A000002331B88194617480AF0E2FC97F84B302E
:104A1000114A1B0113440A221A7097F84B300E4AB0
:104A20001B0113440C333A8C1A807B6ADB78153BEC
:104A3000DAB27B6ADA7097F84C30153387F84C306D
:104A40007B6ADB78002B8DD100E1FB6B0233FB61CD
:104A5000002387F848300CE0580B00204C24010854
:104A600088240108C024010897F84830013387F8EA
:104A7000483097F84830002B0BD197F848307B4AE4
:104A80001B01134402331A88FB691B889BB29A42AC
:104A9000EAD197F84830002B40F0DA80FB69DB78E8
:104AA0009B08FB76002387F84A30FB699B78012B33
:104AB00040F0CE80002387F8493054E097F84A3020
:104AC000FA6913441B79194697F84A30FA69134476
:104AD000043301331B781B029BB20B433B8397F8D3
:104AE0004A300233FA6913441B79194697F84A3061
:104AF0000233FA691344043301331B781B029BB25F
:104B00000B43FB82FB8A42F60212934221D197F8B3
:104B10004830564A1B01134402331B881946544837
:104B20000AF056FC97F84830504A1B0113441B7892
:104B30000A2B0ED197F848304C4A1B0113440E3310
:104B40003A8B1A8097F84830484A1B0113440B22CD
:104B50001A7097F84A30043387F84A3097F849308A
:104B6000013387F8493097F84920FB7E9A42A5D354
:104B70006EE0FB6B02337B63002387F8473004E071
:104B800097F84730013387F8473097F84730002BC4
:104B90000BD197F84730354A1B01134402331A886A
:104BA0007B6B1B889BB29A42EAD197F84730002B67
:104BB00050D17B6B5B889AB297F847302B491B0129
:104BC0000B440C331B889A4244D17B6B1B79022B1C
:104BD00040D102233B727B6B1B793B747B6B0533AB
:104BE000FB6007F10803184600F046F832E0FB6B63
:104BF0000233BB631F480AF05BFC0A200AF0FAFB91
:104C0000002387F8463004E097F84630013387F8F0
:104C1000463097F84630002B0BD197F84630134AB0
:104C20001B01134402331A88BB6B1B889BB29A4248
:104C3000EAD197F84630002B0ED10021042009F06C
:104C40007FFD09E000BF0AE000BF08E000BF06E00A
:104C500000BF04E000BF02E000BF00E000BF97F823
:104C6000453018465037BD4680BD00BF580B002068
:104C7000042501084C25010880B582B000AF78609A
:104C80007B681B78022B27D17B685B681A78154BF1
:104C90005A70144B5B78012B1CD17B685B685A7887
:104CA000104B9A700F4B9B78002B09D1002000F01D
:104CB000B5FC0D480AF08CFB0C480AF089FB0AE0B1
:104CC0000B480AF085FB09480AF082FB002000F03F
:104CD0008BFC00E000BF00E000BF00BF0837BD460E
:104CE00080BD00BF680B00207C250108BC250108A1
:104CF000C025010880B584B000AF03463A60FB8050
:104D00000B467B719223FB730023BB731BE0FB8874
:104D10004FF64162934212D1BB7B124A1B011344EE
:104D200002331888BB7B0F4A1B01134408331988D0
:104D30003B68022207F060FC0346FB7300E000BF03
:104D4000BB7B0133BB73BB7B002B06D1BB7B054A0E
:104D50001B0113441B78002BD9D1FB7B184610375D
:104D6000BD4680BD580B002080B500AF0C480AF04E
:104D70002FFB0C480AF02CFB0B4B1B79002B03D1AB
:104D8000094B01221A7102E0074B00221A71074AEF
:104D900000214FF64160FFF7ADFF00BF80BD00BFAF
:104DA00000260108BC250108680B00206B0B0020C1
:104DB00080B582B000AF0123BB8000237B8000233D
:104DC000FB71A5E0FB795A4A1B0113441B78073B92
:104DD000052B00F2998001A252F823F0F54D00084E
:104DE000FD4D00082F4E0008654E00089B4E000840
:104DF000D54E00084F480AF05BFB86E04E480AF0AB
:104E000057FBFB794A4A1B01134402331888FB798C
:104E1000474A1B01134404331988FB79444A1B0198
:104E2000134406331B881A4607F045FA6DE04348E1
:104E30000AF03EFBFB793E4A1B01134402331888FB
:104E4000FB793B4A1B01134408331988FB79384A24
:104E50001B01134408331B8802339BB21A4607F028
:104E6000ABFA52E036480AF023FBFB79304A1B01CB
:104E7000134402331888FB792D4A1B0113440C3369
:104E80001988FB792A4A1B0113440C331B8802330F
:104E90009BB21A4607F090FA37E02A480AF008FB5E
:104EA000FB79234A1B01134402331888FB79204AFB
:104EB0001B0113440E3319883B1D022207F0FDFA33
:104EC000FB791B4A1B01134406221A70022000F0D2
:104ED000A5FB1AE01C480AF0EBFAFB79144A1B0107
:104EE000134402331888FB79114A1B0113440E3313
:104EF0001988BB1C022207F0E0FAFB790C4A1B015F
:104F0000134406221A7000E000BFFB790133FB71E5
:104F1000FB79002B08D1FB79054A1B0113441B7850
:104F2000002B7FF44FAF00BF00BF0837BD4680BDE8
:104F3000580B002040260108582601088026010849
:104F4000BC260108002701082427010880B400AF0F
:104F5000054BDB68044A43F40043D36000BFBD4601
:104F60005DF8047B704700BF0004005880B483B034
:104F700000AF7860064BD3F8D42005497B68134313
:104F8000C1F8D43000BF0C37BD465DF8047B7047D4
:104F90000008005880B483B000AF7860054B1A6AEF
:104FA00004497B6813430B6200BF0C37BD465DF8B4
:104FB000047B70470008005880B485B000AF78606B
:104FC0004FF0B0431A6D4FF0B0417B6813430B654F
:104FD0004FF0B0431A6D7B681340FB60FB6800BF65
:104FE0001437BD465DF8047B704780B485B000AFD0
:104FF00078604FF0B043D3F850214FF0B0417B6858
:105000001343C1F850314FF0B043D3F850217B68BF
:105010001340FB60FB6800BF1437BD465DF8047B9E
:10502000704780B483B000AF78607B681B6843F43E
:1050300080327B681A6000BF0C37BD465DF8047B88
:10504000704780B483B000AF78607B681B6843F022
:1050500001027B681A6000BF0C37BD465DF8047B17
:10506000704780B483B000AF786039607B685A685D
:105070003B681B04DB431A407B685A6000BF0C3757
:10508000BD465DF8047B704780B483B000AF7860A4
:1050900039607B685A683B681B041A437B685A6016
:1050A00000BF0C37BD465DF8047B704780B483B009
:1050B00000AF786039607B685A683B68DB431A4010
:1050C0007B685A6000BF0C37BD465DF8047B7047B3
:1050D00080B483B000AF786039607B683A689A60CA
:1050E00000BF0C37BD465DF8047B704780B483B0C9
:1050F00000AF786039603B681A047B689A6000BF33
:105100000C37BD465DF8047B704780B483B000AFB8
:10511000786039607B68DA683B6813403A689A4285
:1051200001D1012300E0002318460C37BD465DF88D
:10513000047B704780B483B000AF786039607B68CF
:10514000DA693B6813403A689A4201D1012300E0D2
:10515000002318460C37BD465DF8047B70470000FD
:1051600080B500AF02211848FFF7E4FF0346002B8B
:1051700008D0154B5B6803F00203002B02D100F04E
:1051800025F91EE001211048FFF7D4FF0346002B4C
:1051900008D00D4B5B6803F00103002B02D100F037
:1051A00099F80EE008210848FFF7C4FF0346002BDA
:1051B00008D0054B5B6803F00803002B02D100F018
:1051C0007DF900BF00BF80BD000C005880B500AF66
:1051D00002211848FFF799FF0346002B08D1154B11
:1051E0005B6803F40033002B02D100F0D3F81EE01B
:1051F00008211048FFF789FF0346002B08D10D4B0B
:105200005B6803F40023002B02D100F019F90EE0D3
:1052100020210848FFF779FF0346002B08D1054BF2
:105220005B6803F40013002B02D100F05FF800BFAD
:1052300000BF80BD000C005880B500AF4FF4801057
:10524000FFF7D3FE4FF40070FFF7A4FE4FF4007099
:10525000FFF78CFE40BF20BFFFF778FE00BF80BD88
:1052600080B500AF4FF48010FFF7A6FE0648FFF7A9
:10527000E8FE0548FFF7D5FE2C2000F0C2FC2D20EB
:1052800000F0BFFC00BF80BD000C005880B584B0AA
:1052900000AFEFF310837B607B68FB6072B600BFEA
:1052A00001210648FFF702FFFB68BB60BB6883F380
:1052B000108800BF00BF1037BD4680BD000C0058ED
:1052C00080B500AF01210248FFF710FF00BF80BD8D
:1052D000000C005880B500AF08F088FE012102489C
:1052E000FFF7F6FE00BF80BD000C005880B584B00B
:1052F00000AFEFF310837B607B68FB6072B600BF8A
:1053000020210748FFF7C0FEFB68BB60BB6883F342
:10531000108800BF08F09AFE00BF1037BD4680BD60
:10532000000C005880B584B000AFEFF310837B60B1
:105330007B68FB6072B600BF02210648FFF7B6FE2D
:10534000FB68BB60BB6883F3108800BF00BF1037E9
:10535000BD4680BD000C005880B584B000AF02216E
:105360000B48FFF7C3FEEFF310837B607B68FB60A5
:1053700072B600BF02210648FFF773FEFB68BB60F0
:10538000BB6883F3108800BF00BF1037BD4680BDE7
:10539000000C005880B584B000AFEFF310837B6041
:1053A0007B68FB6072B600BF02210748FFF76CFE06
:1053B000FB68BB60BB6883F3108800BF08F09AFEEF
:1053C00000BF1037BD4680BD000C005880B500AF4F
:1053D00008F0A6FE02210248FFF77AFE00BF80BD5A
:1053E000000C005880B586B000AF786008211248E4
:1053F000FFF78BFE0346002B13D0104A7B68136027
:10540000EFF31083FB60FB687B6172B600BF08217D
:105410000948FFF726FE7B693B613B6983F31088EF
:1054200005E07B68984708210348FFF75FFE00BF4F
:105430001837BD4680BD00BF000C0058700B00201F
:1054400080B584B000AFEFF310837B607B68FB60B6
:1054500072B600BF08210A48FFF716FEFB68BB6062
:10546000BB6883F3108800BF064B1B689847082170
:105470000348FFF73BFE00BF1037BD4680BD00BFAD
:10548000000C0058700B002080B584B000AFEFF323
:1054900010837B607B68FB6072B600BF0821064802
:1054A000FFF704FEFB68BB60BB6883F3108800BF96
:1054B00000BF1037BD4680BD000C005880B500AF5E
:1054C00008F0D6FE08210248FFF702FE00BF80BDAB
:1054D000000C0058D458C4500433C4188C42F9D37B
:1054E0007047036004308842FBD370470C48854600
:1054F00000F01EF90B480C490C4A0023FFF7EDFFA2
:105500000B480C490023FFF7EEFF0B480B49002323
:10551000FFF7E9FF0AF038F9FDF7A2F9FEE700000E
:105520000000032008000020040200209C34010831
:1055300054020020FC1D0020E4010320670A032020
:10554000FEE780B485B000AF78604FF0B043DA6C0E
:105550004FF0B0417B681343CB644FF0B043DA6C3B
:105560007B681340FB60FB6800BF1437BD465DF8E5
:10557000047B704780B588B000AF0346FB7107F12C
:105580000C0300221A605A609A60DA601A610220E5
:10559000FFF7D7FFFB79124A32F81330FB60012383
:1055A0003B6100237B610223BB61FB790D4A52F80A
:1055B000233007F10C021146184600F0BBFEFB79C0
:1055C000084A52F82300FB79054A32F813300022CA
:1055D000194601F01FF800BF2037BD4680BD00BF4F
:1055E0003C3001081000002080B582B000AF0346B7
:1055F000FB71FB79074A52F82300FB79064A32F81F
:1056000013300122194601F005F800BF0837BD46E6
:1056100080BD00BF100000203C30010880B582B082
:1056200000AF0346FB71FB79074A52F82300FB7970
:10563000064A32F813300022194600F0EBFF00BF93
:105640000837BD4680BD00BF100000203C30010877
:1056500080B588B000AF03460A46FB711346BB71A4
:1056600007F10C0300221A605A609A60DA601A612E
:10567000FB79002B03D10420FFF763FF0CE0FB79DB
:10568000012B03D10820FFF75CFF05E0FB79022B1B
:1056900002D10820FFF755FFBB79002B17D1FB790A
:1056A000204A32F81330FB6000233B6101237B6109
:1056B0000223BB61FB791C4A52F8233007F10C022C
:1056C0001146184600F036FE0120FCF7C9F8BB79F8
:1056D000012B23D1FB79134A32F81330FB600123ED
:1056E0007B614FF404133B61FB790F4A52F823307E
:1056F00007F10C021146184600F01CFEFB790B4A1C
:10570000D35C5BB200220F21184600F060FAFB79EF
:10571000064AD35C5BB2184600F073FA00BF20372C
:10572000BD4680BD443001081C0000204C300108FB
:1057300080B400AF264B00229A60254BD3F8883006
:10574000234A43F47003C2F888304FF0B0431B681B
:105750004FF0B04243F0010313604FF0B0434FF4F9
:10576000E0229A604FF0B0431A684FF0B041194BF5
:1057700013400B604FF0B043D3F894304FF0B04279
:1057800023F00503C2F894304FF0B043D3F89830BB
:105790004FF0B04223F00103C2F898304FF0B0430D
:1057A0000D4ADA604FF0B0430B4A1A614FF0B04334
:1057B0001B684FF0B04223F4802313604FF0B043D6
:1057C00000229A6100BFBD465DF8047B704700BFB0
:1057D00000ED00E0FBFEF6FA0010042280B400AFFA
:1057E000054B5B68044A43F00103536000BFBD46AC
:1057F0005DF8047B704700BF002004E080B400AF78
:10580000054B5B68044A43F00203536000BFBD468A
:105810005DF8047B704700BF002004E080B582B0D3
:1058200000AF0023FB710C4B1B680B4A43F48073E1
:105830001360032000F0C0F9002000F00FF80346C9
:10584000002B02D00123FB7101E0FDF7E8FEFB799C
:1058500018460837BD4680BD0040005880B584B06A
:1058600000AF78600023FB73174B1B78002B24D00C
:1058700002F0C8FD0246144B1B7819464FF47A73A8
:10588000B3FBF1F3B2FBF3F3184600F0D6F903468D
:10589000002B0FD17B680F2B09D8002279684FF0BD
:1058A000FF3000F094F9094A7B68136007E0012398
:1058B000FB7304E00123FB7301E00123FB73FB7B1B
:1058C00018461037BD4680BD300000202C00002057
:1058D00080B400AF064B1B781A46064B1B68134476
:1058E000044A136000BFBD465DF8047B704700BFEB
:1058F00030000020740B002080B400AF034B1B6805
:105900001846BD465DF8047B704700BF740B00204D
:1059100080B400AF034B1B681846BD465DF8047B9E
:10592000704700BF2C00002080B400AF034B1B78F1
:105930001846BD465DF8047B704700BF300000206C
:1059400080B500AFFFF74AFF00BF80BD80B500AF54
:10595000FFF754FF00BF80BD80B485B000AF786012
:105960007B6803F00703FB600C4BDB68BB60BA6825
:105970004FF6FF031340BB60FB681A02BB6813437A
:1059800043F0BF6343F40033BB60044ABB68D36099
:1059900000BF1437BD465DF8047B704700ED00E0A2
:1059A00080B400AF044BDB681B0A03F00703184602
:1059B000BD465DF8047B704700ED00E080B483B025
:1059C00000AF0346FB7197F90730002B0BDBFB7927
:1059D00003F01F02074997F907305B09012000FA1D
:1059E00002F241F8232000BF0C37BD465DF8047B6E
:1059F000704700BF00E100E080B483B000AF034611
:105A0000FB7197F90730002B12DBFB7903F01F02C3
:105A10000A4997F907305B09012000FA02F22033A6
:105A200041F82320BFF34F8F00BFBFF36F8F00BF3C
:105A300000BF0C37BD465DF8047B704700E100E015
:105A400080B483B000AF0346FB7197F90730002B99
:105A50000CDBFB7903F01F02074997F907305B095C
:105A6000012000FA02F2403341F8232000BF0C3736
:105A7000BD465DF8047B704700E100E080B483B070
:105A800000AF0346FB7197F90730002B0CDBFB7965
:105A900003F01F02074997F907305B09012000FA5C
:105AA00002F2603341F8232000BF0C37BD465DF899
:105AB000047B704700E100E080B483B000AF034690
:105AC0003960FB7197F90730002B0ADB3B68DAB2CB
:105AD0000C4997F907301201D2B20B4483F8002326
