:020000041004E6
:10000000006000201D2704105922041061220410F2
:1000100000000000000000000000000000000000E0
:100020000000000000000000000000006922041031
:100030000000000000000000732204107D22041064
:1000400081270410812704108127041081270410C0
:1000500000000000000000000000000081270410E4
:1000600081270410812704108127041081270410A0
:10007000812704108127041000000000812704104C
:100080008127041081270410A7220410000000001B
:100090009922041000000000C32204108B220410D7
:1000A00081270410B5220410812704108127041031
:1000B0000000000000000000000000000000000040
:1000C00010B5904216D98AB2030C090C0C4659435C
:1000D00080B25343444350431B191A041B0C10189D
:1000E000594180225203002312184B41520DD8026D
:1000F000104310BD4843802252031218520D10467F
:1001000010BDC0468B0707D0013A22D30B780131CE
:10011000037001308B07F7D1830730D0DB4219D051
:100120000138043A08D308C943701B0A43801B0CEA
:1001300003710430043AF6D2D20707D30B88437018
:1001400001D08A78C2701B0A8370704701D00B7887
:1001500043707047043A06D308C903801B0C4380E0
:100160000430043AF8D2D20705D30B88038005D0B7
:100170008B788370704701D00B780370704770B430
:10018000103A03D378C978C0103AFBD2530701D391
:1001900018C918C001D508C908C0D20704D30B88F4
:1001A000038002300231002A01D50B78037070BC45
:1001B0007047C046EFF31482EFF30981154880F3CE
:1001C0001488BFF36F8FF0B543464C4655465E46E4
:1001D0006746F8B4104CEFF30883636006B4BFF3CE
:1001E0004F8F30BFC046C0460B4C646884F308880C
:1001F00082B003BCF8BC9846A146AA46B346BC46AA
:10020000F0BC04BC80F3098881F31488BFF36F8FBE
:100210001047C046000000000400002003B47146EF
:10022000490840004900095E49008E4403BC7047FC
:10023000002243088B4274D303098B425FD3030A25
:100240008B4244D3030B8B4228D3030C8B420DD338
:10025000FF22090212BA030C8B4202D312120902C6
:1002600065D0030B8B4219D300E0090AC30B8B4204
:1002700001D3CB03C01A5241830B8B4201D38B03B2
:10028000C01A5241430B8B4201D34B03C01A524157
:10029000030B8B4201D30B03C01A5241C30A8B429A
:1002A00001D3CB02C01A5241830A8B4201D38B0285
:1002B000C01A5241430A8B4201D34B02C01A524129
:1002C000030A8B4201D30B02C01A5241CDD2C3099B
:1002D0008B4201D3CB01C01A524183098B4201D317
:1002E0008B01C01A524143098B4201D34B01C01A02
:1002F000524103098B4201D30B01C01A5241C3087A
:100300008B4201D3CB00C01A524183088B4201D3E8
:100310008B00C01A524143088B4201D34B00C01AD4
:100320005241411A00D20146524110467047FFE740
:1003300001B5002000F006F802BDC0460029F7D044
:1003400076E770477047C0469140030090409C4656
:10035000203A9340194352426346D34019437047B1
:100360001C2101231B04984201D3000C10391B0AE5
:10037000984201D3000A08391B09984201D30009A9
:10038000043902A2105C40187047C0460403020200
:10039000010101010000000000000000F0B5CE46A0
:1003A0009946030C9C46130447461B0C1D000E0087
:1003B00061460404240C80B50700100C4B436543D0
:1003C000414360432C0CC01824188C46A34203D927
:1003D00080235B029846C444494679435643230C24
:1003E0002D042D0C8919634424046019C918C0BC5C
:1003F000B946B046F0BDC0464A02F8B5530ACE46EB
:1004000099464B00C90F4746884646004502360EBE
:100410001B0E80B5C40F6F0A9209AD09F11A44454D
:100420004BD0002938DD002B00D174E0FF2E00D125
:10043000BEE08023DB041A431B2900DCFDE0013D04
:100440006B0100D4AFE001256D42AD01AF0938006A
:10045000FFF786FF3B0005388340864200DCD3E08F
:10046000B94D311A1D405A0700D19EE00F221340AA
:10047000042B00D199E004356B0100D495E0481CB1
:10048000FE2951D1FF200023C0051843E407204373
:10049000C0BCB946B046F8BD002949D0991B002E12
:1004A00072D1002D00D133E14C1E012900D159E158
:1004B000FF2900D14CE121006CE0002900DC81E043
:1004C000002B55D1002A70D04B1E012900D12BE101
:1004D000FF296DD01B2B50DC190020235B1A100064
:1004E0009A40C840531E9A410243AD188023DB0452
:1004F0001D4200D1ADE0711CFE2EC3D001206A0860
:100500002840924D154005436A0700D08BE01D42FC
:10051000B5D1EF0834E0002A47D04B1E012966D040
:10052000FF2945D0190087E7C0B2AB015B0AABE7F2
:10053000FE239C46701C03006046184200D092E0E7
:10054000002E00D0E7E0002D00D119E1002A17D0DD
:100550008023AF1ADB041F4200D142E14446551B01
:1005600000D187E001201D42DFD10021EF0807E024
:10057000FF2E1DD01B2900DC94E031000535EF086B
:100580007B025B0AC8B27FE7FF2B00D1E0E080204E
:10059000C00405431B2900DC88E0551E44461E00AC
:1005A000690100D54FE731000435EF08FF29E7D195
:1005B000002F00D166E78023DB033B435B02FF2073
:1005C0005B0A61E7002958D0991B002E00D089E012
:1005D000002D00D19DE04E1E012900D1A4E0FF298D
:1005E00000D1B6E01B2E00DDB8E0310081E0AA1A90
:1005F000530100D4AFE09701BF093800FFF7B0FE08
:100600003B000538834001261D00811B202001315D
:10061000CD40411A8B40591E8B411D432AD00021E9
:100620006B0700D1F0E00F232B40042B00D022E712
:100630006B0100D523E7EF08A2E720235B1A100027
:100640009A40C840531E9A410243AD1A6B0100D52F
:10065000FBE66B0700D1D5E00F2331002B40042BC4
:1006600000D008E7A1E7AF1A7B014ED4002F00D0DD
:10067000EDE600240020002306E7FE23711C0B4258
:1006800021D1002E00D081E0002D00D19FE0002A72
:1006900000D1B2E0AB185A0100D4B0E09B010120B8
:1006A0005B0AF1E68023DB041A4316E720242800C6
:1006B000C840611A8D4029004C1EA14101434446A7
:1006C0001E00551AC2E7FF2900D1DBE6AF187F08EC
:1006D0007B0705D00F233D1D3B40042B00D064E772
:1006E000FF084DE7FF2B34D01B2937DC8020C004E6
:1006F000054328002026C840711A8D4029004D1E50
:10070000A94101431E008D18F0E64446571B9EE6A2
:100710004446150049E7002D46D1002A66D18023C2
:100720000024FF20DB03AFE6AA18530113D5074FBF
:1007300052081740530744D00F231340042B40D0D6
:1007400002213D1D31E7C046FFFFFFFBFFFFFF7D9C
:1007500044464F462CE70121D70811E7053219001E
:10076000D7080DE7571B7B0137D5BF01BF093800FC
:10077000FFF7F6FD3B00053883404446013643E76A
:10078000002A00D175E744464F46F9E6002DE0D037
:100790008023DB03002A17D09F4200D20BE7994544
:1007A00000D308E74F4606E78023DB03002A0BD07F
:1007B0009F4200D2FFE6994500D3FCE644464F46EF
:1007C000F9E60221FF08DBE6FF203B435CE6002A56
:1007D00000D14FE70021D708D2E644460121FF08A7
:1007E000CEE6002F00D07BE7002443E780234A4673
:1007F000DB034446FF20134346E60021C0E6002108
:10080000DF08BDE63100D0E601206A0100D58BE6A5
:100810002A00DFE7F0B546464F46D6464502C0B54A
:10082000C30F470098460E1C6D0A3F0E5BD0FF2F8A
:1008300021D08023ED00DB041D43002399469A4616
:100840007F3F74027300640A1B0EF60F002B20D04A
:10085000FF2B43D080220020E400D20414437F3BCE
:100860004246FF1A4B4672400F2B00D99DE071495A
:100870009B00CB589F46002D5AD108239946063B32
:1008800074029A467300FF27640A1B0EF60F002BB2
:10089000DED1002C3BD10123424649467240194328
:1008A0000E2918D86448890041588F465346022BB8
:1008B00000D1B8E0032B6ED042462C00012B40D172
:1008C00000200024C0052043D2071043E0BCBA46F4
:1008D000B146A846F0BDFF200024F3E7002C20D14C
:1008E0000223FF3FD8E7002D05D104239946033B9F
:1008F00000279A46A5E72800FFF732FD7627431F19
:100900009D4000237F4299469A463F1A99E720006E
:10091000FFF726FD431F9C4076235B421B1A0020F5
:100920009EE703234A461A4391460320FC3397E788
:100930000C239946093BFF279A4682E703282CD0CF
:10094000320038007F30002847DD630704D00F23D2
:100950002340042B00D00434230103D53800374B47
:1009600080301C40FE28B6DCA401640AC0B2A9E7AE
:1009700080240022FF20E403A4E78023DB031D4240
:1009800001D01C420BD08024E4032C436402424675
:10099000FF20640A96E746462C008023DB031C43B5
:1009A00064023200FF20640A8CE76D016001854219
:1009B0002DD21B230024013F0126290064006D0075
:1009C000002901DB854201D32D1A3443013B002B62
:1009D000F3D16B1E9D412C43B3E701231B1A1B2B44
:1009E00000DD6DE721009E37D940BC400B00611E41
:1009F0008C412343590704D00F211940042900D00A
:100A00000433590113D49B0100205C0A5AE71A23CE
:100A100001242D1AD0E7981E43425841404232002B
:100A20000024C0B24EE74246FF2000244AE70120DE
:100A3000002447E7800C0510C00C0510FFFFFFF7EE
:100A4000F0B54F464646D6464502C0B546000F1C97
:100A50006D0A360EC40F002E00D1CDE0FF2E72D0ED
:100A60008023ED00DB041D43002399469A467F3E18
:100A70007B025B0A98467B001B0EFF0F002B72D097
:100A8000FF2B00D1A9E07F3BF6184B460A2B00DD77
:100A900085E043468022DB00D2041A434B46904651
:100AA0007C400022022B0FDD494601238B40A6210A
:100AB000C9000B4200D072E0902189000B4200D0A7
:100AC000DAE08821194267D1280C42462D042D0C0A
:100AD0004346290012041B0C120C51435D43424350
:100AE0005843AD180B0C5B199A4203D9802252026D
:100AF0009446604409041A04090C52189501691EB1
:100B00008D411B0C920E1B1815439B011D431B01AD
:100B100000D5CFE030007F30002800DCB1E06B076B
:100B20000BD00F2332002B40042B06D004352B01B1
:100B300003D5803210006A4B1D40FE2864DCAB01F7
:100B40005B0AC0B21FE0002D00D08FE00823994659
:100B5000063B9A467B025B0A98467B00FF261B0EEB
:100B6000FF0F002B8CD14346002B5CD14A4601334A
:100B70001A43914613000A2A11DC01227C40022B01
:100B800092DC00200023C0051843E4072043E0BCAA
:100B9000BA46B146A846F0BD3C004546924653468B
:100BA000022B31D0032B11D0012BEAD03000803042
:100BB000721C002866DD6B07B9D00F232B40042B75
:100BC000B4D1B4E70F2A7AD03C0045468023DB033A
:100BD0002B435B02FF205B0AD5E74346FF36002B21
:100BE00034D14A46023313430A2BD8DC7C40002A16
:100BF0000AD09946022257E7002D08D104239946CE
:100C0000033B00269A4633E7FF200023BBE728007A
:100C1000FFF7A6FB7626431F9D40002376429946A8
:100C20009A46361A24E74046FFF79AFB4B46361A97
:100C3000763E0A2BB3DC43460538834098464B4644
:100C400000227C40022B00DD2EE73DE703234A46CD
:100C50001A4313000A2AB5DC01229A4088211300A6
:100C60007C400322194200D12EE795E70C239946D8
:100C7000093BFF269A46FBE680230024FF20DB0386
:100C800081E7320001231B1A1B2B00DD79E79E321E
:100C900029009540D9406A1E95410D436B0704D049
:100CA0000F232B40042B00D004356B0113D50120FA
:100CB000002368E701236A081D40154376E7802377
:100CC000DB031D4282D042461A4200D07EE73C0040
:100CD000FF20134357E7AB0100205B0A53E7C046F0
:100CE000FFFFFFF7F8B54746CE464B02460080B5FA
:100CF000C40F4702580A844648007A0A360EBF09D4
:100D0000000ECD0F9B09FF286DD001214D40311AF7
:100D1000AC423AD0002900DC9CE1002800D19EE0E2
:100D2000FF2E00D188E08022D20413431B2900DC6F
:100D3000F6E0013F7A0100D479E001277F42BF014C
:100D4000BB0998464046FFF70BFB434605388340F6
:100D5000864200DCCCE0B44F311A1F405A0768D0FD
:100D60000F221340042B64D004377B0161D5481C4B
:100D7000FE2900D081E0FF200023C0051843E407CE
:100D80002043C0BCB946B046F8BD002900DC79E17B
:100D9000002876D1002B4CD0481E012900D147E114
:100DA000FF2949D01B2871DC01001A002020CA400D
:100DB000411A8B40591E8B411343FF188023DB04DB
:100DC0001F4200D1B8E0711CFE2ED4D001229748FA
:100DD0003A407F08074017437A0700D096E01F4249
:100DE000C5D1FA0855E03100FF398946002B2CD1D6
:100DF00001214D40AC4200D1B4E0494600294CD01D
:100E0000002E00D0F9E0FF21002F00D108E14A1E9A
:100E1000012900D156E1FF2900D142E11B2A00DC63
:100E200024E15F1E2C0006007A0100D585E7310021
:100E30000437FA08FF292CD1002A9CD08023DB0339
:100E400013435B02FF205B0A97E7AC4200D1A7E0A7
:100E5000002922D0002ED6D062462C00EEE7002BCF
:100E6000E7D0481E012936D0FF29E5D001005DE713
:100E700001203B007A0100D457E1C0B2BB015B0AFC
:100E80007BE7FF2ED8D01B2900DC9FE0310005371F
:100E9000FA0853025B0AC8B26FE7FE20711C0842D1
:100EA00054D1002E00D0B1E0002F00D102E1002B80
:100EB00000D1F9E08021FA1AC9040A4200D13BE1CD
:100EC0000124DF1B2C40002F49D001200F42D5D137
:100ED0000021FA08DDE7FF1A7B0100D4DEE0BD0146
:100EE000AD092800FFF73CFA2B00053883400126A6
:100EF0002022811B0131521A1F009340CF405A1EFD
:100F000093411F432BD000217B07B1D00F233B40DF
:100F1000042B00D028E77B0100D528E7FA08B8E7C2
:100F20001A002020CA40411A8B40591E8B4113439E
:100F3000FF1A7B0100D502E77B0700D10DE10F23EB
:100F400031003B40042B00D00EE772E7FA1A9046BE
:100F5000520156D44346002B00D0F3E60024002073
:100F600000230AE7494600291CD0002E00D002E7E2
:100F7000FF21002F55D04A1E012959D0FF2900D149
:100F800090E01B2A00DD91E011003A002025CA40C4
:100F9000691A8F40791E8F4117430600FF180DE72D
:100FA000002926D1FE20711C084213D1002E00D04A
:100FB00096E0002F00D1B4E0002B75D0FB185A0149
:100FC00000D4B2E09B015B0AFD38D6E68022D20451
:100FD0001343EAE6FF2900D1CDE6FA185208530779
:100FE00005D00F23171D1340042B00D021E7D20892
:100FF0004FE7002EBCD0624620E72C00FF200023E4
:10100000BBE60124DB1B98462C409BE6002F75D1E4
:10101000002B00D096E080230024FF20DB03ACE609
:101020002C001F0005E7C046FFFFFFFBFFFFFF7D11
:10103000FB185A0100D48DE04A4A5B081A40590750
:1010400000D18CE00F210B400D39042BCFD00221B1
:10105000171DEEE6002900D11FE7821B1100002EAC
:1010600000D1D1E68021C9040F43D7E639002024FE
:10107000D140A21A97407A1E97410F432C000600D8
:10108000DF1B56E700298DD0811B002E00D170E7B1
:101090001B290BDC8022D204174376E70121FA08D2
:1010A000F7E62C006246C7E60021F2E605330100B0
:1010B000DA08EEE6002B00D150E701240021624659
:1010C0002C40E6E6DA1B530132D592019409200048
:1010D000FFF746F92300053883402C00012607E777
:1010E000002FDFD0002B17D08023DB039A4200D2E1
:1010F000A4E69C4500D3A1E662469FE6002B0BD0F8
:101100008023DB039A4200D298E69C4500D395E603
:10111000012462462C4091E68023DB03FF20134329
:101120002BE60020002B00D127E60021DA08B0E6EC
:101130002C000121D208ACE6002A00D10EE70021E4
:10114000D208A6E6802362460124DB03FF20134376
:101150002C4012E60121DA089BE6310069E6022103
:10116000D20896E6FFFFFF7D41024200C30F490A05
:101170000020120E7E2A03DD9D2A02DD094A9818FE
:101180007047802000040143952A07DC9620821ACC
:10119000D1404842002BF3D10800F1E7963A914044
:1011A000F7E7C046FFFFFF7F70B5002812D0C317D6
:1011B000C5185D40C40F2800FFF7D2F89E231B1A04
:1011C000962B0FDC082838D0083885406D026D0A50
:1011D000D8B202E0002400200025C0052843E4071F
:1011E000204370BD992B14DC421F95402A001549FD
:1011F000114055071CD00F252A40042A18D004316D
:10120000CA08490115D59F235202181A550AC0B2BF
:10121000E3E7020029001B3291404A1E914105225A
:10122000121AD5402A000A43064911405507E2D157
:10123000CA085202550AD8B2CFE76D026D0A8E3045
:10124000CBE7C046FFFFFFFB80B582B000AF786000
:10125000002009F0F1FC06F043FD031E01D000F070
:1012600042FB06F0E1FB06F0D3FC08F00BFB00208C
:1012700009F0ECFC00231800BD4602B080BD80B52B
:1012800000AF01235B42180009F0F0FCC046BD46E8
:1012900080BD80B500AFC046BD4680BD80B500AF03
:1012A000C046BD4680BD80B582B000AF78607B6827
:1012B0001B691800BD4602B080BD000080B584B037
:1012C00000AF7860074B196D064B7A680A431A65C0
:1012D000044B1B6D7A681340FB60FB68C046BD463B
:1012E00004B080BD0000404880B584B000AF786095
:1012F000074B196E064B7A680A431A66044B1B6E3D
:101300007A681340FB60FB68C046BD4604B080BDF0
:101310000000404880B582B000AF7860064B1B6E7D
:101320007A6813407A689A4201D1012300E00023D1
:101330001800BD4602B080BD0000404880B582B0B4
:1013400000AF7860044B196C034B7A680A431A6447
:10135000C046BD4602B080BD0000404880B582B0A6
:1013600000AF7860054B1A6C7B68D943034B0A4089
:101370001A64C046BD4602B080BDC0460000404869
:1013800080B58AB000AF00237B6201F0FAF900F06B
:1013900075F800F0A7F800F099FA00F0C1F800F035
:1013A00071F900F015FA00F0C1F900F0DDF900F074
:1013B000A9F900F021FA00F043FA2A4B18000EF0C8
:1013C0006FFB0020FFF740FFFFF759FF01F04AFADB
:1013D00002007B6AD31A244A9342F5D901F042FAFB
:1013E00003007B6200F0F0F8031C3B62386AFFF7F1
:1013F000BBFE0300FB61F869FFF7D6FE031C191C56
:10140000386AFFF76FFC031C1849181CFFF718FB1C
:10141000031C181CFFF7A8FE0300BB61BB69FA6937
:101420001349381D0EF0ACFB00F064FA0A210A20C3
:1014300000F0E0FB0F493B1D0122180000F074FC96
:101440001E210A2000F0D6FB0A490B4B012218008E
:1014500000F06AFC00F012FB3B6A181C08F0AAFAC4
:10146000B2E7C046000C05100F2700000000204125
:101470000C0C0510480A00201C0C051090B589B012
:1014800000AF08243B19180018231A0000210EF0A1
:101490008FFC3B00180008231A0000210EF088FC86
:1014A0003B1901221A603B19802252025A603B19F3
:1014B000180005F05DFC031E01D000F014FA3B009B
:1014C00000221A603B0000225A603B0010211800E5
:1014D00005F098FD031E01D000F005FAC046BD4698
:1014E00009B090BD80B586B000AF3B00180018234E
:1014F0001A0000210EF05CFC3B0002221A603B0047
:10150000802252015A613B00180005F09DFE031E27
:1015100001D000F0E8F9C046BD4606B080BD00002D
:1015200080B586B000AF3B00180018231A000021D8
:101530000EF03EFC224B234A1A60214B00225A60D7
:101540001F4B0122DA601E4B00221A611C4B002245
:101550005A611B4B00221A62194B00225A62184B27
:1015600000221A72164B00229A61154B0022DA6192
:10157000134B180001F0F4FB031E01D000F0B3F987
:101580003B000D221A603B0000225A603B00002203
:101590009A603B000322DA603B0000225A613B0064
:1015A00000221A613A00064B1100180001F07AFD82
:1015B000031E01D000F097F9C046BD4606B080BDBD
:1015C000AC0100200060004190B585B000AF0A2456
:1015D0003B1900221A800023FB60234B7B60234AC7
:1015E000234B1100180001F05DFD031E36D1204B86
:1015F000180001F07FFC1E4B0221180001F0F6FCE0
:10160000031E27D11A4B180001F03EFD02003B19C2
:101610001A803B191B881800FFF7C6FD031C796868
:10162000181CFFF70DFA031C1249181CFFF7F2F8FB
:10163000031C3B6010493868FFF754FB031C0F493B
:10164000181CFFF7E7F8031C0D49181CFEF7D4FE21
:10165000031CFB60064B180001F08CFCFB68181C97
:10166000BD4605B090BDC0463333534094010020C1
:10167000AC01002000F07F456666A63F04E78C3B86
:101680000000704180B500AF1C4B8222D2051A6069
:101690001A4B1B4A5A60194B00229A60174B0122C1
:1016A000DA60164B00221A61144B00225A61134B68
:1016B00000229A61114B0022DA61104B00221A625B
:1016C0000E4B180002F0D8F9031E01D000F00BF900
:1016D0000A4B0021180002F0F3FE031E01D000F0B7
:1016E00002F9064B0021180002F036FF031E01D05C
:1016F00000F0F9F8C046BD4680BDC046E4010020B8
:101700001A06100080B500AF064B074A1A60054B59
:10171000180002F06DFF031E01D000F0E4F8C0468F
:10172000BD4680BD380200200000304880B582B040
:1017300000AF00237B600120FFF7ECFD031E08D102
:101740000120FFF7FBFD0120FFF708FE0120FFF756
:10175000CBFDC023DB057B603B1D180003F0A6F921
:10176000C046BD4602B080BD80B582B000AF3B0030
:10177000180008231A0000210EF01AFB0120FFF7C1
:10178000C9FD031E08D10120FFF7D8FD0120FFF796
:10179000E5FD0120FFF7A8FDC0460C4B1800FFF740
:1017A00082FD03000F2BF8D93B00A02252001A80C3
:1017B0003B0000229A703B0000225A603B00180058
:1017C00003F068FEC046BD4602B080BD0018006050
:1017D00080B500AF064B074A1A60054B180005F0AC
:1017E0006EFD031E01D000F07EF8C046BD4680BDF0
:1017F000440200200000604880B500AF0E4B0F4A45
:101800001A600D4B00225A600B4B7F229A600A4BE4
:10181000FF22DA60084B00221A61074B00225A614E
:10182000054B180005F086FD031E01D000F05BF8A3
:10183000C046BD4680BDC046580200200040004062
:1018400080B586B000AF3B1D180014231A0000219C
:101850000EF0AEFA1B4B1C4A1A601A4B00225A605B
:10186000184B00229A60174B01225242DA60154B46
:1018700000221A61134B00229A61124B180005F0E6
:101880006DFE031E01D000F02EF83B1D07221A60EA
:101890003B1D70225A603B1D00229A603B1D0022B6
:1018A000DA603B1D00221A613A1D064B1100180038
:1018B00005F098FE031E01D000F015F8C046BD46A5
:1018C00006B080BD740200200020004080B500AF4B
:1018D0000820FFF7F3FC0420FFF7F0FC09F0C0F943
:1018E000C046BD4680BD80B500AF72B6C046C0469A
:1018F000FDE7000080B582B000AF00F03BFA5B4B23
:101900005B480122782102F087FA031E01D00023F0
:10191000A8E0584B7B6002E07B68013B7B607B6802
:10192000002BF9D1AE220021782000F0A3FA20226A
:101930000021782000F09EFA10220021782000F08B
:1019400099FAB0220021782000F094FAC0220021F8
:10195000782000F08FFA00220021782000F08AFA27
:1019600010220021782000F085FA40220021782002
:1019700000F080FA81220021782000F07BFAFF221B
:101980000021782000F076FAA0220021782000F0D3
:1019900071FAA6220021782000F06CFAA82200211A
:1019A000782000F067FA3F220021782000F062FAE8
:1019B000A4220021782000F05DFAD32200217820B3
:1019C00000F058FA00220021782000F053FAD522C6
:1019D0000021782000F04EFAF0220021782000F05B
:1019E00049FAD9220021782000F044FA222200216D
:1019F000782000F03FFADA220021782000F03AFA4D
:101A000012220021782000F035FADB220021782014
:101A100000F030FA20220021782000F02BFA8D22ED
:101A20000021782000F026FA14220021782000F00E
:101A300021FAAF220021782000F01CFA2E2200218A
:101A4000782000F017FA002000F04CF800F016F8AB
:101A5000094B00221A80084B00225A80064B0122B3
:101A60005A7101231800BD4602B080BD204E00000F
:101A7000E4010020C4090000B006002080B582B057
:101A800000AFFB1D00221A7021E0FB1D1B78503BAC
:101A9000DBB21A000021782000F0ECF900220021CE
:101AA000782000F0E7F910220021782000F0E2F918
:101AB000FB1D1B78DA010A4BD218802340217820C5
:101AC00000F06CF9FB1D1A78FB1D01321A70FB1D2A
:101AD0001B78072BD9D9C046C046BD4602B080BD91
:101AE000B002002080B582B000AF0200FB1D1A706A
:101AF000FB1D1B78002B01D1002300E0FF23802277
:101B0000D200044819000EF053F9C046BD4602B099
:101B100080BDC046B002002090B583B000AF040085
:101B200008001100BB1D221C1A803B1D021C1A80DC
:101B3000FB1C0A1C1A70BB1D1B887F2B52D83B1D37
:101B40001B883F2B4ED8294B1B79002B06D0FB1C42
:101B50001B785A425341DAB2FB1C1A70FB1C1B78EB
:101B6000012B1ED1BB1D1A883B1D1B88DB0898B2B8
:101B70000300DB01D3181E4AD35C5AB23B1D1B88FD
:101B800007210B40012199400B005BB2134359B26E
:101B9000BB1D1A880300DB01D318C9B2144AD15403
:101BA00021E0BB1D1A883B1D1B88DB0898B203008F
:101BB000DB01D3180E4AD35C5BB23A1D12880721B1
:101BC0000A40012191400A0052B2D24352B213405E
:101BD00059B2BB1D1A880300DB01D318C9B2044AED
:101BE000D15400E0C046BD4603B090BDB006002011
:101BF000B002002080B582B000AF0200BB1D1A8089
:101C00003B1D0A1C1A80064BBA1D12881A80044B11
:101C10003A1D12885A80C046BD4602B080BDC046FB
:101C2000B006002080B586B000AF39601100FB1D02
:101C3000021C1A70BB1D0A1C1A703A4B1B881A0032
:101C40003B681B78D3187F2B07DC364B5B881A0068
:101C50003B685B78D3183F2B01DD00235DE0002358
:101C60007B614AE03B685A68FB1D1B78203B396862
:101C700049784B4319007B69CB185B00D3181B884C
:101C8000FB6000233B612FE0FA683B699A408023A8
:101C90001B02134011D0234B1A883B699BB2D31807
:101CA00098B2204B5A887B699BB2D31899B2BB1D5E
:101CB0001B781A00FFF730FF13E01A4B1A883B69B4
:101CC0009BB2D31898B2174B5A887B699BB2D31832
:101CD00099B2BB1D1B785A425341DBB21A00FFF781
:101CE0001BFF3B6901333B613B681B781A003B6972
:101CF0009342C9D37B6901337B613B685B781A00EF
:101D00007B699342AED3074B1B883A6812789B18C5
:101D10009AB2044B1A80FB1D1B781800BD4606B012
:101D200080BDC046B006002080B584B000AFF8602A
:101D3000B960FB1D1A7013E0FB681878FB1D1A7858
:101D4000BB681900FFF76EFF03001A00FB681B78E1
:101D50009A4202D0FB681B7808E0FB680133FB6005
:101D6000FB681B78002BE7D1FB681B781800BD4689
:101D700004B080BD80B582B000AF074B7B6002E04D
:101D80007B68013B7B607B68002BF9D1C046C04675
:101D9000BD4602B080BDC04690D00300B0B5C6B00D
:101DA00002AF040008003A6019002D4B88256D0031
:101DB0005B19DB19221C1A702A4B2C001B19DB192A
:101DC000021C1A70284B20001B18DB190A1C1A80F1
:101DD000264B1B18DB19234A1218D21912781A70D5
:101DE0001023FF33FB1800221A7014E01020FF307C
:101DF0003B181B783A68D2183B181B7801331178CE
:101E00001A4A882464001219D219D1543B181A783E
:101E10003B1801321A701023FF33FB181B789BB25A
:101E2000114A882149005218D21912889A42DDD8E5
:101E30000B4B0A009B18DB191B7899B20A4B9B18B5
:101E4000DB191B8801339BB20C22BA1808480A24FC
:101E5000009401F0B7FEC046BD4644B0B0BDC046D8
:101E6000F7FEFFFFF6FEFFFFF4FEFFFFFCFEFFFFA5
:101E7000E401002090B587B002AF04000800110013
:101E8000FB1D221C1A70BB1D021C1A707B1D0A1C34
:101E90001A700C203B18BA1D12781A703B187A1D64
:101EA00012785A70FB1D1B7899B23A1804480A231D
:101EB0000093022301F086FEC046BD4605B090BDEA
:101EC000E401002080B584B000AF7860074B196D45
:101ED000064B7A680A431A65044B1B6D7A681340F7
:101EE000FB60FB68C046BD4604B080BD00004048B2
:101EF00080B584B000AF7860074B596D064B7A68A7
:101F00000A435A65044B5B6D7A681340FB60FB68BB
:101F1000C046BD4604B080BD0000404880B584B0D6
:101F200000AF7860074B996D064B7A680A439A6553
:101F3000044B9B6D7A681340FB60FB68C046BD464E
:101F400004B080BD0000404880B584B000AF786028
:101F5000074B196E064B7A680A431A66044B1B6ED0
:101F60007A681340FB60FB68C046BD4604B080BD84
:101F70000000404880B582B000AF7860064B1B6E11
:101F80007A6813407A689A4201D1012300E0002365
:101F90001800BD4602B080BD0000404880B582B048
:101FA00000AF7860044B196C034B7A680A431A64DB
:101FB000C046BD4602B080BD0000404880B582B03A
:101FC00000AF7860054B1A6C7B68D943034B0A401D
:101FD0001A64C046BD4602B080BDC04600004048FD
:101FE00080B500AF80235B001800FFF781FFC0467B
:101FF000BD4680BD80B582B000AF78607B681B684D
:10200000064A934205D12020FFF788FF1020FFF7F2
:1020100085FFC046BD4602B080BDC046006000419D
:1020200090B589B000AF78600C243B1918001423D8
:102030001A0000210DF0BCFE7B681A688223DB05C4
:102040009A4225D10820FFF73DFF21007B18C022CE
:102050001A607B1812225A607B1800229A607B1843
:102060000022DA607B1800221A617B180A4A1900E4
:10207000100001F05BFBC021012002F015FBC02124
:10208000012002F03FFB80239B031800FFF746FF6F
:10209000C046BD4609B090BD0000104880B582B072
:1020A00000AF78607B681B68054A934204D18023A7
:1020B0005B021800FFF706FFC046BD4602B080BDB8
:1020C0000000304890B589B000AF786008243B1913
:1020D000180018231A0000210DF06AFE7B681A68A8
:1020E000C023DB059A4235D13B1901221A603B1906
:1020F00000221A613B19180005F0A6F8031E01D052
:10210000FFF7F1FB0120FFF735FF031E08D1012087
:10211000FFF744FF0120FFF751FF0120FFF714FFF5
:1021200008F09EFD00220021122001F06BF9122020
:1021300001F07DF900220021192001F063F9192036
:1021400001F075F900220021162001F05BF916203C
:1021500001F06DF9C046BD4609B090BD80B582B0B2
:1021600000AF78607B681B68054A934204D18023E6
:10217000DB021800FFF7A6FEC046BD4602B080BDD8
:102180000000604890B589B000AF786008243B1922
:10219000180018231A0000210DF00AFE7B681B6846
:1021A0000D4A934213D13B1920221A603B19C022D9
:1021B00052029A603B19180005F046F8031E01D040
:1021C000FFF791FB80235B011800FFF791FEC046EB
:1021D000BD4609B090BDC0460040004090B589B0F2
:1021E00000AF78600C243B19180014231A0000215A
:1021F0000DF0DEFD7B681B68154A934223D1012058
:10220000FFF776FE0820FFF75DFE21007B18022213
:102210001A607B1802225A607B1800229A607B1891
:102220000022DA607B1803221A617B18094A190020
:10223000100001F07BFA0221012002F035FA0221A0
:10224000012002F05FFAC046BD4609B090BDC0460D
:10225000002000400000104880B500AFC046FDE7F8
:1022600080B500AFC046FDE780B500AFC046BD46B3
:1022700080BD80B500AFC046BD4680BD80B500AF13
:1022800000F0DEFAC046BD4680BD80B500AF04F068
:1022900079FBC046BD4680BD80B500AF04F07BFB36
:1022A000C046BD4680BD80B500AF02F04DFFC046C0
:1022B000BD4680BD80B500AF02F07EFFC046BD4682
:1022C00080BD80B500AF02F061FFC046BD4680BD55
:1022D00080B586B000AFF860B9607A6000237B619A
:1022E0000AE000E000BF0100BB685A1CBA60CAB235
:1022F0001A707B6901337B617A697B689A42F0DBF3
:102300007B681800BD4606B080BD80B586B000AFC2
:10231000F860B9607A6000237B6109E0BB685A1CF1
:10232000BA601B78180000E000BF7B6901337B6155
:102330007A697B689A42F1DB7B681800BD4606B07B
:1023400080BD80B582B000AF786001235B42180089
:10235000BD4602B080BD80B582B000AF7860396004
:102360003B68802292015A6000231800BD4602B0EB
:1023700080BD80B582B000AF786001231800BD46F3
:1023800002B080BD80B584B000AFF860B9607A60FB
:1023900000231800BD4604B080BD000080B586B0A3
:1023A00000AF7860144A154BD31A7B617B693B619F
:1023B000134B1B68002B02D1114B124A1A60104BB1
:1023C0001A687B68D3183A699A4207D20DF046FD25
:1023D00003000C221A6001235B4209E0084B1B68D2
:1023E000FB60074B1A687B68D218054B1A60FB68C4
:1023F0001800BD4606B080BD00600020000C000043
:10240000B8060020481F002090B583B000AF02003E
:102410003960FB1D1A70FB1D1B787F2B28D82F4AB3
:10242000FB1D1B785BB29B08C0339B009B58FA1DB9
:102430001278110003220A40D200FF2191400A00C5
:10244000D2431A4011003B689B01FF221A40FB1D3A
:102450001B78180003230340DB009A401F48FB1D34
:102460001B785BB29B080A43C0339B001A5031E0D3
:102470001B4AFB1D1B7819000F230B40083B9B08D0
:1024800006339B00D31804331B68FA1D1278110021
:1024900003220A40D200FF2191400A00D2431A4091
:1024A00011003B689B01FF221A40FB1D1B7818009E
:1024B00003230340DB009A400948FB1D1B781C00E6
:1024C0000F232340083B9B080A4306339B00C31895
:1024D00004331A60C046BD4603B090BD00E100E081
:1024E00000ED00E080B500AFBFF34F8FC046044B56
:1024F000044ADA60BFF34F8FC046C046FDE7C046CE
:1025000000ED00E00400FA0590B587B000AF5E4A28
:102510009423D358002B0ED15C4B1B69002B03D1A5
:102520005A4B9B6B002B06D0594B01229A60FDF74A
:102530005BFEFFF7D7FF574B574A9A60554B9A6897
:10254000534B1A61514B5A68504B20210A435A6031
:102550004E4B5A684D4B51490A405A60C0464B4B4E
:102560005B6904221340042BF9D1484BDB6930220C
:1025700093431A00454B20210A43DA61434BDA6941
:10258000424B47490A40DA61404BDA693F4B8021B0
:1025900049000A43DA61434B1B68434A934255D0D2
:1025A0001F233B610823FB600A23BB6003237B607E
:1025B000354BDB681E2293431900FB685A00324BEF
:1025C0000A43DA60304BDA682F4B01210A43DA60A4
:1025D0002D4BDB68354A134019003B691A062A4B1C
:1025E0000A43DA60284BDA68274B802109040A4342
:1025F000DA60264A9423D3582D4A1A40BB689901C1
:10260000F0239B000B402149134394228B501F4A17
:102610009423D3581D492022134394228B501B4AE4
:102620009423D358234A1A407B68D902E0239B01A4
:102630000B401649134394228B50144A9423D358C9
:1026400012498022D200134394228B501723FB1887
:1026500000221A700DE017243B191B785BB203218E
:102660001800FFF7D1FE21007B181A787B18013281
:102670001A701723FB181B781F2BECD962B6C046C3
:10268000C046BD4607B090BD00004048000050481D
:102690000400002000ED00E000000410FFFEFFFF3A
:1026A000FFFBFFFFF81E0010CCECBCFCFFFFFFC0DF
:1026B0003FFCFFFFFFC7FFFF80B582B000AF134BA9
:1026C0009B685B08DAB2FB1D01210A401A700F4BB0
:1026D0009B681B0ADAB2BB1D07210A401A70FB1D5A
:1026E0001B78002B07D0BB1D1B78013B084ADA4042
:1026F000084B1A6005E0BB1D1B78074ADA40054B02
:102700001A60C046BD4602B080BDC04600004048C9
:102710000048E801500A00200090D0031048854688
:10272000FFF7F2FE002103E00E4B5B5843500431EB
:102730000D480E4B42189A42F6D30D4A02E0002390
:10274000136004320B4B9A42F9D30B4A02E0002388
:1027500013600432094B9A42F9D3FEF711FEFEE7EB
:1027600000600020FC150510480A0020E40A002043
:1027700094010020480A0020C0000020940100209D
:10278000FEE780B582B000AFFB1D00221A70032067
:1027900000F00EF8031E03D0FB1D01221A7001E0A9
:1027A000FFF71EFCFB1D1B781800BD4602B080BD64
:1027B00090B585B000AF78600F23FB1800221A7027
:1027C0001D4B1B78002B2CD004F0C8FC04001A4BC6
:1027D0001B781900FA239800FDF72AFD0300190061
:1027E0002000FDF725FD0300180000F030FE031E59
:1027F00012D17B68032B0AD8796801235B4200223F
:10280000180000F0FFFD0D4B7A681A600DE00F23F1
:10281000FB1801221A7008E00F23FB1801221A701E
:1028200003E00F23FB1801221A700F23FB181B78FB
:102830001800BD4605B090BD580A0020540A00207B
:1028400080B500AF054B1B781A00054B1B68D218EA
:10285000034B1A60C046BD4680BDC046580A0020E2
:10286000BC06002080B500AF024B1B681800BD46B7
:1028700080BDC046BC06002080B500AF024B1B687F
:102880001800BD4680BDC046540A002080B582B005
:1028900000AF786039607B685B68054A1A403B6826
:1028A0001A437B685A60C046BD4602B080BDC04630
:1028B000FFFFF7FF80B582B000AF78607B685B6890
:1028C0008022D2021A437B685A60C046BD4602B0DD
:1028D00080BD000080B582B000AF78607B685B6827
:1028E000034A1A407B685A60C046BD4602B080BDAC
:1028F000FFFFFBFF80B582B000AF78607B685B684C
:10290000802292021A437B685A60C046BD4602B0DC
:1029100080BD000080B582B000AF78607B685B68E6
:10292000034A1A407B685A60C046BD4602B080BD6B
:10293000FFFFFDFF80B582B000AF786039607B6833
:102940005B68054A1A403B681A437B685A60C04678
:10295000BD4602B080BDC046FF7FFFFF80B582B09C
:1029600000AF786039607B685B68054A1A403B6855
:102970001A437B685A60C046BD4602B080BDC0465F
:10298000FFE71FFF80B582B000AF786039607B68D9
:102990005B683C2293431A003B68013B9B001A434F
:1029A0007B685A60C046BD4602B080BD80B582B02B
:1029B00000AF78607B685B6801221A437B685A60CD
:1029C000C046BD4602B080BD80B582B000AF786021
:1029D0007B685B68012293431A007B685A60C0469B
:1029E000BD4602B080BD80B582B000AF78607B6824
:1029F0009B6820221A437B689A60C046BD4602B09D
:102A000080BD80B582B000AF78607B689B68202273
:102A10001340202B01D1012300E000231800BD4604
:102A200002B080BD80B582B000AF78607B689B68E3
:102A300004221A437B689A60C046BD4602B080BD3E
:102A400080B582B000AF78607B689B6802221A4331
:102A50007B689A60C046BD4602B080BD80B582B03A
:102A600000AF78607B689B6801221340012B01D185
:102A7000012300E000231800BD4602B080BD80B5F0
:102A800082B000AF78607B689B6801221A437B6844
:102A90009A60C046BD4602B080BD80B582B000AF2E
:102AA00078607B689B68012293431A007B689A6078
:102AB000C046BD4602B080BD80B582B000AF786030
:102AC0007B689B6801221340012B01D1012300E0A8
:102AD00000231800BD4602B080BD000080B584B060
:102AE00000AFF860B9607A60FB685B690B49BA684F
:102AF0008A181278110003228A40D2431A400749EB
:102B0000BB68CB181B7819007B688B401A43FB68A5
:102B10005A61C046BD4604B080BDC0466814051069
:102B200080B584B000AFF860B9607A60FB68DB699B
:102B30003F2293431A00BB68D9007B680B431A43BA
:102B4000FB68DA61C046BD4604B080BD80B586B082
:102B500000AFF860B9607A60FB6820331900BB6889
:102B60001B0A9B0004221340CB187B617B691B6806
:102B7000BA68FF210A400F2191400A00D2431A404F
:102B8000BB68FF210B40796899400B001A437B69B1
:102B90001A60C046BD4606B080BD80B586B000AFA5
:102BA000F860B9607A603B60FB6828331A00BB6844
:102BB0009B00D3187B617B691B681B0D1A057B6822
:102BC0001B05190D3B681803FF231B0303400B4330
:102BD0001A437B691A60C046BD4606B080BD00003E
:102BE00080B584B000AFF860B9607A607B68002B74
:102BF0000AD1FB689B6B302293431A00BB681B0110
:102C00001A43FB689A6315E07B68022B09D1FB68C5
:102C10009B6B0A4A1A40BB689B021A43FB689A6383
:102C200008E0FB689B6B064A1A40BB681B041A430A
:102C3000FB689A63C046BD4604B080BDFFF3FFFF4A
:102C4000FFFFFCFF80B584B000AFF860B9607A6028
:102C50007B68002B0AD1FB689B6B0C2293431A0004
:102C6000BB689B001A43FB689A6315E07B68022BE4
:102C700009D1FB689B6B0A4A1A40BB681B021A43C6
:102C8000FB689A6308E0FB689B6B064A1A40BB68C6
:102C90009B031A43FB689A63C046BD4604B080BDDF
:102CA000FFFCFFFFFF3FFFFF80B584B000AFF8607F
:102CB000B9607A607B68002B09D1FB689B6B0322AB
:102CC00093431A00BB681A43FB689A6316E07B685B
:102CD000022B0AD1FB689B6BC02293431A00BB688E
:102CE0009B011A43FB689A6308E0FB689B6B054AEB
:102CF0001A40BB681B031A43FB689A63C046BD4673
:102D000004B080BDFFCFFFFF80B582B000AF786018
:102D10007B685B6C1B041B0C1800BD4602B080BDB9
:102D200080B582B000AF786039607B683A68DA6459
:102D3000C046BD4602B080BD80B582B000AF7860AD
:102D400039607B68DB6C3A6813403A689A4201D17B
:102D5000012300E000231800BD4602B080BD000042
:102D600080B584B000AF78600F23FB1800221A7082
:102D70007B68002B01D10123B5E07B681B6B002B26
:102D80000AD17B681800FFF735F97B6800225A6387
:102D90007B682C22002199547B681B681800FFF780
:102DA00030FE031E04D17B681B681800FFF71BFE72
:102DB0007B681B6B1022134000D087E07B681B6888
:102DC0001800FFF74BFE031E00D07FE07B681B6BF3
:102DD000474A134002221A437B681A637B681A68C9
:102DE0007B685B6919001000FFF7B8FD7B681A6803
:102DF0007B681B6919001000FFF748FD7B681B7A90
:102E0000012B05D17B681B681800FFF7CFFD04E09C
:102E10007B681B681800FFF7D7FD7B681A687B6822
:102E20005B6A19001000FFF785FD7B681B6A002BA9
:102E30000AD17B681B681800FFF74CFD7B681B6894
:102E40001800FFF767FD27E07B681B6A012B0AD19A
:102E50007B681B681800FFF72DFD7B681B68180056
:102E6000FFF758FD18E07B681B6A022B0AD17B68CC
:102E70001B681800FFF72EFD7B681B681800FFF722
:102E800039FD09E07B681B681800FFF713FD7B68BC
:102E90001B681800FFF72EFD7B6818687B6899692E
:102EA0007B68DB691A00FFF73BFE7B681A687B686A
:102EB000DB6819001000FFF765FD7B681B6B0322C0
:102EC000934301221A437B681A6309E07B681B6BFA
:102ED00010221A437B681A630F23FB1801221A7011
:102EE0000F23FB181B781800BD4604B080BDC046F8
:102EF000FDFEFFFFB0B584B000AF78607B682C2288
:102F00009B5C012B01D102232DE07B682C22012147
:102F100099540F257C197B68180000F09DF9030077
:102F200023707B191B78002B0BD17B681B6B104A1D
:102F30001340802252001A437B681A637B68002288
:102F40005A637B681B682A211800FFF7E9FE7B683B
:102F50002C22002199547B681B681800FFF770FD34
:102F60000F23FB181B781800BD4604B0B0BDC04647
:102F7000FEF8FFFFB0B584B000AF78607B682C220C
:102F80009B5C012B01D1022329E07B682C220121CB
:102F900099540F257C197B68180000F045F903004F
:102FA00023707B191B78002B12D17C197B681800C9
:102FB00000F067F9030023707B191B78002B07D101
:102FC0007B681B6B084A134001221A437B681A6313
:102FD0007B682C22002199540F23FB181B781800C2
:102FE000BD4604B0B0BDC046FEFEFFFF80B584B054
:102FF00000AF78603960FFF735FC0300FB6019E033
:103000003B68013316D0FFF72DFC0200FB68D31A92
:103010003A689A4202D33B68002B0BD17B681B6B4A
:1030200004221A437B681A637B682C22002199547E
:10303000032323E07B681B6802211800FFF77CFE56
:10304000031EDDD07B681B6B802292001A437B68D5
:103050001A637B681B6808211800FFF76DFE031ECA
:1030600005D07B681B6B074A1A407B681A637B6834
:103070001B680A211800FFF753FE00231800BD4605
:1030800004B080BDFFFEFFFF80B582B000AF786066
:103090007B681B681800FFF737FE03001800BD4669
:1030A00002B080BD80B584B000AF786039600F2376
:1030B000FB1800221A707B682C229B5C012B01D12B
:1030C0000223A4E07B682C22012199547B681B68B1
:1030D0001800FFF7C3FC031E1AD17B6818683B6811
:1030E00059683B681B681A00FFF730FD3B681B6896
:1030F0000D2B17D03B681B680C2B13D07B6818680E
:103100003B6819683B689B681A00FFF7E7FC09E019
:103110007B681B6B20221A437B681A630F23FB1802
:1031200001221A703B68DB68032B68D03B685B693F
:10313000002B03D03B685B69BB6013E03B689B6876
:10314000002B03D03B681B680D2B02D1324BBB60B8
:1031500008E03B689B68022B02D1304BBB6001E06A
:103160002F4BBB607B6818683B68D9683B681B695C
:10317000BA68FFF712FD3B681B680D2B34D89A0024
:10318000284BD3181B689F467B6818683B68D96832
:103190003B689B681A00FFF787FD31E07B68186881
:1031A0003B68D9683B689B681A00FFF74BFD27E036
:1031B0007B6818683B68D9683B689B681A00FFF712
:1031C0000FFD1DE07B6818683B68DB68032219006F
:1031D000FFF76AFD14E07B6818683B68DB68002233
:1031E0001900FFF72FFD0BE07B681B6B20221A43B1
:1031F0007B681A630F23FB1801221A7000E0C04697
:103200007B682C22002199540F23FB181B7818008F
:10321000BD4604B080BDC046FF0F0000FF070000A0
:10322000550500007414051080B584B000AF7860B7
:103230007B681B681800FFF711FC0300FB60FB684C
:10324000002B04D07B681B681800FFF7EBFB002302
:103250001800BD4604B080BD80B582B000AF786074
:103260007B681B681800FFF727FC031E04D17B68EE
:103270001B681800FFF703FC00231800BD4602B0CE
:1032800080BD80B582B000AF78607B681B68180095
:10329000FFF712FC031E04D07B681B681800FFF7C1
:1032A000FCFB00231800BD4602B080BD80B582B093
:1032B00000AF0200FB1D1A70FB1D1B787F2B09D885
:1032C000FB1D1B781A001F231A40044B012191405B
:1032D0000A001A60C046BD4602B080BD00E100E0B1
:1032E00090B583B000AF02003960FB1D1A70FB1D62
:1032F0001B787F2B28D82F4AFB1D1B785BB29B08BD
:10330000C0339B009B58FA1D1278110003220A401B
:10331000D200FF2191400A00D2431A4011003B68BD
:103320009B01FF221A40FB1D1B781800032303405A
:10333000DB009A401F48FB1D1B785BB29B080A43C9
:10334000C0339B001A5031E01B4AFB1D1B7819004B
:103350000F230B40083B9B0806339B00D318043314
:103360001B68FA1D1278110003220A40D200FF21C7
:1033700091400A00D2431A4011003B689B01FF2292
:103380001A40FB1D1B78180003230340DB009A4002
:103390000948FB1D1B781C000F232340083B9B089A
:1033A0000A4306339B00C31804331A60C046BD4667
:1033B00003B090BD00E100E000ED00E080B582B018
:1033C00000AF78607B685A1E80235B049A4201D369
:1033D000012310E00A4B7A68013A5A6001235B42EC
:1033E00003211800FFF77CFF054B00229A60044B75
:1033F00007221A6000231800BD4602B080BDC046F7
:1034000010E000E080B584B000AFB9607A600F21B1
:103410007B18021C1A70BA687B181B785BB211000B
:103420001800FFF75DFFC046BD4604B080BD80B503
:1034300082B000AF0200FB1D1A70FB1D1B785BB24F
:103440001800FFF733FFC046BD4602B080BD80B50F
:1034500082B000AF78607B681800FFF7AFFF030011
:103460001800BD4602B080BDB0B586B000AFF860B0
:10347000B9607A601723FB1800221A701D4B1B7865
:10348000012B01D1022331E01A4B01221A70194B92
:1034900000225A6017257C19FA239B00180000F0BF
:1034A0002BF8030023707B191B78002B18D1FB68C5
:1034B000002B06D17A68BB681100180000F056F89E
:1034C00005E07A68BB681100180000F071F8172356
:1034D000FC18FA239B00180000F00EF8030023707C
:1034E000044B00221A701723FB181B781800BD46E6
:1034F00006B0B0BDC006002080B584B000AF7860D3
:10350000FFF7B0F90300FB600CE07B68013309D0E2
:10351000FFF7A8F90200FB68D31A7A689A4201D82B
:1035200003231BE00F4B1B6901221340012BECD13D
:103530000C4B1B690C2213400C2B0ED1094B9A68C3
:10354000094B5B681A43084B5A60064B1A69054BD6
:103550000C210A431A61012300E000231800BD4634
:1035600004B080BD00100040C006002080B582B0CD
:1035700000AF786039600C4B1A690B4B0F210A437E
:103580001A617B68094A944663449A08064B120400
:10359000120C9A61044B3A681A64034B33221A6086
:1035A000C046BD4602B080BD001000400000FCEFE8
:1035B00080B584B000AF786039603B68FB60174B22
:1035C0001A69164B0F210A431A617B68144A944604
:1035D00063449A08114B1204120C9A610F4AFB685B
:1035E0001B681364FB680433FB600C4AFB681B68B0
:1035F0005364FB680433FB60084AFB681B689364F0
:10360000FB680433FB60054AFB681B68D364034B0B
:10361000CC221A60C046BD4604B080BD00100040F8
:103620000000FCEFB0B584B000AF786039600F23C4
:10363000FB1800221A70274B1B78012B01D10223A3
:1036400043E0244B01221A70224B00225A607B680F
:103650001B68FF2B0BD100F03FF80F23FC18FA2357
:103660009B001800FFF748FF0300237027E03B682A
:10367000012252421A607B685B68BB6017E0BB683E
:10368000180000F039F80F257C19FA239B00180068
:10369000FFF732FF030023707B191B78002B03D048
:1036A0003B68BA681A600AE0BB680133BB607B689C
:1036B0005A687B689B68D318BA689A42DFD3054B77
:1036C00000221A700F23FB181B781800BD4604B0A7
:1036D000B0BDC046C006002080B500AF054B1A69DA
:1036E000044B0F210A431A61024B22221A60C04682
:1036F000BD4680BD0010004080B582B000AF78604C
:10370000094B1A69084B0F210A431A617B68DB02D7
:103710009A08054B1204120C9A61034B11221A608D
:10372000C046BD4602B080BD0010004080B586B0E6
:1037300000AF7860396000237B6190E13B681B68D3
:1037400001217A6991400A001340FB60FB68002B5D
:1037500000D181E13B685B6803221340012B05D057
:103760003B685B6803221340022B30D17B689B6867
:103770003B617B695B0003229A401300DA433B699B
:1037800013403B613B68DA687B695B009A40130039
:103790003A6913433B617B683A699A607B685B686E
:1037A0003B6101227B699A401300DA433B69134075
:1037B0003B613B685B681B0901221A407B699A40A8
:1037C00013003A6913433B617B683A695A603B686E
:1037D0005B6803221340032B17D07B68DB683B61D7
:1037E0007B695B0003229A401300DA433B69134074
:1037F0003B613B689A687B695B009A4013003A69B9
:1038000013433B617B683A69DA603B685B6803227B
:103810001340022B23D17B69DA087B6808329200BF
:10382000D3583B617B69072213409B000F229A40CB
:103830001300DA433B6913403B613B681A697B69BB
:1038400007210B409B009A4013003A6913433B61E8
:103850007B69DA087B68083292003969D1507B684D
:103860001B683B617B695B0003229A401300DA43CB
:103870003B6913403B613B685B6803221A407B69EC
:103880005B009A4013003A6913433B617B683A69D5
:103890001A603B685A68C0239B02134000D1DBE0EA
:1038A0003B685A688023DB02134030D08023DB055D
:1038B000DB683B617A689023DB059A4211D10122D3
:1038C0007B699A401300DB431A003B6913403B615C
:1038D00001227B699A4013001A003B6913433B6144
:1038E00011E001227B699A4013001B04DB431A009C
:1038F0003B6913403B6101227B699A4013001B0422
:103900003A6913433B618023DB053A69DA603B681F
:103910005A6880235B03134030D08023DB051B698A
:103920003B617A689023DB059A4211D101227B69C1
:103930009A401300DB431A003B6913403B610122AC
:103940007B699A4013001A003B6913433B6111E005
:1039500001227B699A4013001B04DB431A003B6978
:1039600013403B6101227B699A4013001B043A69B2
:1039700013433B618023DB053A691A613B685A684F
:103980008023DB03134030D08023DB055B693B6180
:103990007A689023DB059A4211D101227B699A4013
:1039A0001300DB431A003B6913403B6101227B6932
:1039B0009A4013001A003B6913433B6111E0012256
:1039C0007B699A4013001B04DB431A003B691340D8
:1039D0003B6101227B699A4013001B043A6913433F
:1039E0003B618023DB053A695A613B685A68802352
:1039F0005B02134030D08023DB059B693B617A6812
:103A00009023DB059A4211D101227B699A40130071
:103A1000DB431A003B6913403B6101227B699A40FA
:103A200013001A003B6913433B6111E001227B69DB
:103A30009A4013001B04DB431A003B6913403B61AF
:103A400001227B699A4013001B043A6913433B61CE
:103A50008023DB053A699A617B6901337B613B68AE
:103A60001A687B69DA40131E00D067E6C046C0467C
:103A7000BD4606B080BD000080B582B000AF786062
:103A80007B68002B01D101238FE07B6841229B5C86
:103A9000DBB2002B07D17B684022002199547B6860
:103AA0001800FEF7BDFA7B684122242199547B68F7
:103AB0001B681A687B681B6801218A431A607B684F
:103AC0005A687B681B683B490A401A617B681B681F
:103AD0009A687B681B6838490A409A607B68DB6893
:103AE000012B08D17B689A687B681B6880210902DA
:103AF0000A439A6007E07B689A687B681B688421A8
:103B000009020A439A607B68DB68022B09D17B6853
:103B10001B685A687B681B68802109010A435A6048
:103B200007E07B681B685A687B681B6823490A406A
:103B30005A607B681B685A687B681B6820490A4387
:103B40005A607B681B68DA687B681B681A490A4000
:103B5000DA607B681A697B685B691A4311007B68CD
:103B60009B691A027B681B680A43DA607B68D96923
:103B70007B681A6A7B681B680A431A607B681B684B
:103B80001A687B681B6801210A431A607B6800225F
:103B90005A647B684122202199547B6800221A6371
:103BA0007B6842220021995400231800BD4602B0D0
:103BB00080BDC046FFFFFFF0FF7FFFFFFFF7FFFF65
:103BC0000080000290B589B002AFF86008007A600A
:103BD00019000A23FB18021C1A800823FB180A1C70
:103BE0001A80FB6841229B5CDBB2202B00D00AE1EB
:103BF000FB6840229B5C012B01D1022304E1FB689E
:103C0000402201219954FEF72DFE03003B618023E1
:103C10001902F8683B6900931923012200F03CFA6D
:103C2000031E01D00123EFE0FB68412221219954BA
:103C3000FB68422210219954FB6800225A64FB68F9
:103C40007A685A62FB680822BA1812885A85FB689B
:103C500000225A63FB685B8D9BB2FF2B06D9FB6881
:103C6000FF221A8580235B047B6107E0FB685B8D84
:103C70009AB2FB681A8580239B047B61FB681B8DCD
:103C8000002B27D0FB685B6A1A78FB681B689A6276
:103C9000FB685B6A5A1CFB685A62FB685B8D9BB2CF
:103CA000013B9AB2FB685A85FB681B8D013B9AB2B7
:103CB000FB681A85FB681B8DDBB20133DAB27C69C5
:103CC0000A23FB181988F868514B0093230000F071
:103CD000BDFB6FE0FB681B8DDAB27C690A23FB1821
:103CE0001988F8684A4B0093230000F0AFFB61E0AD
:103CF0003A69B96AFB68180000F026FA031E01D081
:103D0000012381E0FB685B6A1A78FB681B689A6292
:103D1000FB685B6A5A1CFB685A62FB685B8D9BB24E
:103D2000013B9AB2FB685A85FB681B8D013B9AB236
:103D3000FB681A85FB685B8D9BB2002B3AD0FB6851
:103D40001B8D002B36D1BA6AF8683B6900931300CB
:103D50000022802100F0A0F9031E01D0012353E0CE
:103D6000FB685B8D9BB2FF2B11D9FB68FF221A8584
:103D7000FB681B8DDAB280235C040A23FB181988C8
:103D8000F86800230093230000F060FB12E0FB685A
:103D90005B8D9AB2FB681A85FB681B8DDAB28023B3
:103DA0009C040A23FB181988F86800230093230059
:103DB00000F04CFBFB685B8D9BB2002B98D13A69FD
:103DC000B96AFB68180000F005FA031E01D0012350
:103DD0001AE0FB681B682022DA61FB681B685A68DE
:103DE000FB681B680B490A405A60FB68412220218E
:103DF0009954FB68422200219954FB68402200211B
:103E00009954002300E002231800BD4607B090BD7E
:103E10000020008000E800FE80B58AB002AFF860A4
:103E20007A603B600A23FB180A1C1A8000237B611E
:103E30001F23FB1800221A70FB6841229B5CDBB237
:103E4000202B00D0FDE0FB681B689A6980231B02D1
:103E50001A4080231B029A4201D10223F2E0FB6840
:103E600040229B5C012B01D10223EBE0FB68402246
:103E700001219954FB68412224219954FB680022B6
:103E80005A64FB68DB68012B07D10A23FB181B88E7
:103E90009B059B0D6D4A1A4306E00A23FB181B88FD
:103EA0009B059B0D6A4A1A43FB681B685A60FEF724
:103EB000D9FC0300BB61FB681B689B69202213408F
:103EC000203B5A425341DAB21E23FB181A70FB689A
:103ED0001B689B6910221340103B5A425341DAB2CF
:103EE0001D23FB181A7035E03B6801331AD0FEF72A
:103EF000B9FC0200BB69D31A3A689A4202D33B6804
:103F0000002B0FD1FB68412220219954FB685B6C88
:103F100020221A43FB685A64FB684022002199540E
:103F200001238FE0FB681B689B6920221340203B24
:103F30005A425341DAB21E23FB181A70FB681B6801
:103F40009B6910221340103B5A425341DAB21D23A1
:103F5000FB181A701E23FB181B78002B04D11D239D
:103F6000FB181B78002BBFD0FB681B689B691022D5
:103F70001340102B29D03A68F868BB6900931300EE
:103F80000022202100F088F8031E10D0FB685B6C33
:103F9000042B07D1FB681B682022DA61FB68002232
:103FA0005A642AE01F23FB1801221A7025E0FB68DF
:103FB0001B682022DA61FB68412220219954FB68AA
:103FC00040220021995400233CE0FB681B6810222A
:103FD000DA613A68F868BB69009313000022202177
:103FE00000F05AF8031E04D01F23FB1801221A7098
:103FF00003E0FB681B682022DA617B6901337B6187
:104000007B697A689A4207D91F22BB181B78012B5B
:1040100002D1BB1800221A707B697A689A4200D9D3
:104020002FE7FB68412220219954FB685B6C20221A
:104030001A43FB685A64FB6840220021995401230B
:1040400000E002231800BD4608B080BD0020000239
:104050000028000280B582B000AF78607B681B68E2
:104060009B6902221340022B03D17B681B6800224C
:104070009A627B681B689B6901221340012B07D061
:104080007B681B689A697B681B6801210A439A61F7
:10409000C046BD4602B080BD80B584B000AFF860B8
:1040A000B9603B60FB1D1A703AE0BA693968FB6879
:1040B000180000F0D3F8031E01D0012340E03B6854
:1040C00001332DD0FEF7CEFB0200BB69D31A3A684C
:1040D0009A4202D33B68002B22D1FB681B689B6984
:1040E000BA681340BA68D31A5A425341DBB21A0075
:1040F000FB1D1B789A4213D1FB685B6C20221A438C
:10410000FB685A64FB68412220219954FB684222D3
:1041100000219954FB6840220021995401230FE0AB
:10412000FB681B689B69BA681340BA68D31A5A4285
:104130005341DBB21A00FB1D1B789A42B5D0002315
:104140001800BD4604B080BD80B584B000AFF860F3
:10415000B9607A6032E07A68B968FB68180000F0EC
:104160007DF8031E01D0012330E0BB68013325D068
:10417000FEF778FB02007B68D31ABA689A4202D332
:10418000BB68002B1AD1FB681B689B690222134095
:10419000022B13D0FB685B6C20221A43FB685A6425
:1041A000FB68412220219954FB6842220021995446
:1041B000FB68402200219954012307E0FB681B683B
:1041C0009B6902221340022BC5D100231800BD4673
:1041D00004B080BD80B584B000AFF860B9607A608B
:1041E0002FE07A68B968FB68180000F037F8031E02
:1041F00001D001232DE0FEF735FB02007B68D31AC6
:10420000BA689A4202D3BB68002B1AD1FB681B68BC
:104210009B6920221340202B13D0FB685B6C20226B
:104220001A43FB685A64FB68412220219954FB68B9
:10423000422200219954FB68402200219954012315
:1042400007E0FB681B689B6920221340202BC8D124
:1042500000231800BD4604B080BD000080B58AB0C0
:1042600000AFF860B9607A602723FB1800221A704B
:10427000FB681B689B69BB6100233B627B68FB6139
:10428000BB691022134000D179E0FB681B68102243
:10429000DA6157E02722BB18BA1812781A70BB6887
:1042A00001334FD0FEF7DEFA0200FB69D31ABA6879
:1042B0009A4202D3BB68002B44D1FB681B685A6842
:1042C0008023DB0113407B6113203B18FA684221F5
:1042D000525C1A70FB681B689A6980231B021A40A3
:1042E00080231B029A4226D17A698023DB019A42FD
:1042F00021D03B181B78202B1DD0FB681B685A6807
:10430000FB681B688021C9010A435A60FEF7AAFABC
:104310000300FB610FE0FEF7A5FA0200FB69D31A68
:10432000192B08D93B6A202213433B622723FB1831
:1043300001221A7006E0FB681B689B69202213406B
:10434000202BE8D1FB681B689B6920221340202B9F
:1043500004D02723FB181B78002B9BD02723FB18A6
:104360001B78002B03D1FB681B682022DA613B6AB3
:10437000042213433B622723FB1801221A70FB68B7
:104380001B689B69BB61BA6980235B0013400CD03A
:104390003B6A012213433B62FB681B688022520088
:1043A000DA612723FB1801221A70BA698023DB0027
:1043B00013400CD03B6A082213433B62FB681B6826
:1043C0008022D200DA612723FB1801221A70BA6911
:1043D00080239B0013400CD03B6A022213433B62B4
:1043E000FB681B6880229200DA612723FB180122F8
:1043F0001A702723FB181B78002B1DD0FB681800B0
:10440000FFF728FEFB681B685A68FB681B680E49AB
:104410000A405A60FB685A6C3B6A1A43FB685A644C
:10442000FB68412220219954FB68422200219954C3
:10443000FB684022002199542723FB181B781800A1
:10444000BD460AB080BDC04600E800FE90B587B00A
:1044500000AFF860080011007B600A243B19021CC1
:104460001A8009203B180A1C1A703B191B889B05EF
:104470009A0D3B181B781904FF231B040B401A43A9
:104480007B681A43BB6A13435B005B087B61FB6874
:104490001B685B68BA6A510D8022D2000A40074946
:1044A0000A43D2431A401100FB681B687A690A4329
:1044B0005A60C046BD4607B090BDC046FF63FF03CB
:1044C00080B582B000AF786039607B6841229B5C28
:1044D000DBB2202B38D17B6840229B5C012B01D1C1
:1044E000022332E07B684022012199547B684122FB
:1044F000242199547B681B681A687B681B6801211A
:104500008A431A607B681B681A687B681B681149BC
:104510000A401A607B681B6819687B681B683A68E8
:104520000A431A607B681B681A687B681B68012154
:104530000A431A607B684122202199547B684022FB
:1045400000219954002300E002231800BD4602B068
:1045500080BDC046FFEFFFFF80B584B000AF78603C
:1045600039607B6841229B5CDBB2202B39D17B68B0
:1045700040229B5C012B01D1022333E07B68402267
:10458000012199547B684122242199547B681B683E
:104590001A687B681B6801218A431A607B681B6864
:1045A0001B68FB60FB68114A1340FB603B681B0201
:1045B000FA681343FB607B681B68FA681A607B68C3
:1045C0001B681A687B681B6801210A431A607B68B4
:1045D0004122202199547B684022002199540023D4
:1045E00000E002231800BD4604B080BDFFF0FFFFCD
:1045F00080B584B000AF78600F23FB1800221A70DA
:104600007B68002B45D07B681B79DBB2002B03D184
:104610007B681800FDF742FDFEF724F90300BB603C
:104620007B6802221A7111E07B681B6801221A6004
:10463000FEF718F90200BB68D21AFA239B009A42CF
:1046400004D90F23FB1803221A7006E07B681B684D
:104650001B6801221340012BE6D10F23FB181B78A6
:10466000002B0FD17B681B689A687B681B68D02180
:1046700049030A439A607B6800229A607B680122A2
:104680001A710AE07B6804229A607B6803221A711F
:1046900003E00F23FB1801221A700F23FB181B786D
:1046A0001800BD4604B080BD80B584B000AF78600E
:1046B00039600F23FB1800221A707B68002B03D08F
:1046C0007B68012B08D00FE00D4B1A6A3B68D94379
:1046D0000B4B0A401A620CE0094B9A6A3B68D943BB
:1046E000074B0A409A6204E00F23FB1801221A705C
:1046F000C0460F23FB181B781800BD4604B080BDD0
:104700000000504880B584B000AF786039600F2356
:10471000FB1800221A707B68002B03D07B68012BEA
:1047200008D00FE00D4B5A6A3B68D9430B4B0A4047
:104730005A620CE0094BDA6A3B68D943074B0A40DE
:10474000DA6204E00F23FB1801221A70C0460F231F
:10475000FB181B781800BD4604B080BD000050480F
:1047600080B582B000AF7860044B1B68034B7A6859
:104770001A60C046BD4602B080BDC046C0000020E1
:1047800080B582B000AF7860074B5B68074A134082
:1047900019007B681B021B041A0C034B0A435A6066
:1047A000C046BD4602B080BDC0000020FF00FFFF34
:1047B00080B582B000AF7860084B5B68084A134050
:1047C00019007B681A04FF231B041A40034B0A4399
:1047D0005A60C046BD4602B080BDC046C000002041
:1047E000FFFF00FF80B582B000AF7860064B5B68CA
:1047F0001B02190A7B681A06034B0A435A60C0461B
:10480000BD4602B080BDC046C000002080B582B069
:1048100000AF7860074B9B68FF22934319007B68C9
:10482000FF221A40034B0A439A60C046BD4602B0BD
:1048300080BDC046C000002080B582B000AF786067
:10484000074B9B68074A134019007B681B021B0437
:104850001A0C034B0A439A60C046BD4602B080BDA5
:10486000C0000020FF00FFFF80B582B000AF78607D
:10487000084B9B68084A134019007B681A04FF2301
:104880001B041A40034B0A439A60C046BD4602B05F
:1048900080BDC046C0000020FFFF00FF80B582B091
:1048A00000AF7860064B9B681B02190A7B681A06EA
:1048B000034B0A439A60C046BD4602B080BDC04665
:1048C000C000002080B582B000AF7860074BDB6885
:1048D000FF22934319007B68FF221A40034B0A43CF
:1048E000DA60C046BD4602B080BDC046C0000020B0
:1048F00080B582B000AF7860074BDB68074A134091
:1049000019007B681B021B041A0C034B0A43DA6074
:10491000C046BD4602B080BDC0000020FF00FFFFC2
:1049200080B582B000AF7860084BDB68084A13405E
:1049300019007B681A04FF231B041A40034B0A4327
:10494000DA60C046BD4602B080BDC046C00000204F
:10495000FFFF00FF80B582B000AF7860084BDB68D6
:10496000084A134019007B681A06FC239B051A406D
:10497000034B0A43DA60C046BD4602B080BDC04664
:10498000C0000020FFFFFFC080B582B000AF78609C
:10499000074B1B69FF22934319007B68FF221A40D3
:1049A000034B0A431A61C046BD4602B080BDC046F3
:1049B000C000002080B500AF044B5A69034B0421AE
:1049C0000A435A61C046BD4680BDC046C0000020B3
:1049D00080B500AF044B5A69034B802109040A4398
:1049E0005A61C046BD4680BDC000002080B500AF02
:1049F000044B5A69034B802189050A435A61C0461A
:104A0000BD4680BDC000002080B500AF044B5A6990
:104A1000034B8021C9050A435A61C046BD4680BD8B
:104A2000C000002080B582B000AF7860074B9B6962
:104A30007F22934319007B687F221A40034B0A436D
:104A40009A61C046BD4602B080BDC046C00000208D
:104A500080B582B000AF78607B68DB680322934347
:104A60001A007B68DA60C046BD4602B080BD80B5E2
:104A700082B000AF78607B68DB68032293431A0042
:104A80007B68DA60C046BD4602B080BD80B582B0AA
:104A900000AF78607B689B6A034A1A407B689A6221
:104AA000C046BD4602B080BDFFFFFFBF90B58DB0D0
:104AB00000AF7860144B7B61144B1B68144A93421F
:104AC0002AD1144B1B681B0A0F221340FB62114BA7
:104AD0001B681B0B0F221340BB620E4B1B681B0C89
:104AE0000F2213407B620B4B1B681B0D07221340E8
:104AF0003B62084B1B681B0E07221340FB611B2304
:104B0000FB1801221A7018E0E8060020F81E0010B9
:104B1000CCECBCFCE81E00100823FB620723BB6240
:104B200008237B621B217B1800221A7003233B623F
:104B30000323FB617B1801221A70FC4B00221A71BF
:104B40007B68002B03D07B681800FDF7BBFAC023FD
:104B5000DB051800FFF77CFFC023DB051800FFF71B
:104B600086FFF34B1800FFF791FFF24A9E239B004C
:104B7000D3580F2293431A007B6A0F210B40ED4953
:104B80001A439E239B00CA50EA4A9D239B00D35898
:104B9000F02293431A00BB6A1B01FF210B40E54939
:104BA0001A439D239B00CA50E24A9D239B00D35881
:104BB0000F2293431A00FB6A0F210B40DD491A4371
:104BC0009D239B00CA501B23FB181B78002B1ED073
:104BD000D84A92239B00D358072293431A003B6A7A
:104BE00007210B40D3491A4392239B00CA50D14A54
:104BF00092239B00D358382293431A00FB69DB00B1
:104C000038210B40CB491A4392239B00CA50C94A12
:104C1000A4235B00D358FF229343C64955221A436D
:104C2000A4235B00CA50C34AAA235B00D358FF22C7
:104C30009343C04966221A43AA235B00CA50BD4A67
:104C4000B4235B00D358FF229343BA4955221A4339
:104C5000B4235B00CA50B74AC4235B00D358FF2279
:104C60009343B4491D221A43C4235B00CA50B14A7E
:104C7000C2235B00D358FF229343AE4959221A4303
:104C8000C2235B00CA50AB4AC6235B00D358FF2245
:104C90009343A84932221A43C6235B00CA50A54A4F
:104CA000B6235B00D358A34901221A43B6235B0005
:104CB000CA50A04AD0239B00D358FF2293439D495A
:104CC0001F221A43D0239B00CA509A4AD1239B002B
:104CD000D358FF229343974909221A43D1239B00BB
:104CE000CA504020FFF74CFD3F20FFF761FD09202F
:104CF000FFF778FD5A20FFF7B7FD3220FFF7CEFD12
:104D00005A20FFF783FD3220FFF796FD1020FFF7B2
:104D100007FE1820FFF71EFE0420FFF735FE1420C3
:104D2000FFF7D0FD0520FFF7E3FDFFF743FEFFF798
:104D30004FFEFFF75BFE0020FFF774FE13203B18C9
:104D400000221A703B181B783A18591C11701A006F
:104D50007B699B1801221A703B181B783A18591C62
:104D600011701A007B699B185E221A70714A9E238B
:104D70009B00D1583B181B7804003A18581C10703F
:104D80001A007B699B18CAB21A7020003B181B7866
:104D90003A18591C11701A007B699B1801221A706D
:104DA0003B181B783A18591C11701A007B699B1824
:104DB0005D221A705F4A9D239B00D1583B181B78D7
:104DC00004003A18581C10701A007B699B18CAB26C
:104DD0001A7020003B181B783A18591C11701A00E1
:104DE0007B699B1801221A703B181B783A18591CD2
:104DF00011701A007B699B1852221A704D4A922337
:104E00009B00D1583B181B7804003A18581C1070AE
:104E10001A007B699B18CAB21A7020003B181B78D5
:104E20003A18591C11701A007B699B1801221A70DC
:104E30003B181B783A18591C11701A007B699B1893
:104E400012221A703B4AA4235B00D1583B181B78EE
:104E500004003A18581C10701A007B699B18CAB2DB
:104E60001A7020003B181B783A18591C11701A0050
:104E70007B699B1801221A703B181B783A18591C41
:104E800011701A007B699B1815221A70294AAA23EF
:104E90005B00D1583B181B7804003A18581C10705E
:104EA0001A007B699B18CAB21A7020003B181B7845
:104EB0003A18591C11701A007B699B1801221A704C
:104EC0003B181B783A18591C11701A007B699B1803
:104ED0001A221A70174AB4235B00D1583B181B786A
:104EE00004003A18581C10701A007B699B18CAB24B
:104EF0001A7020003B181B783A18591C11701A00C0
:104F00007B699B1801221A703B181B783A18591CB0
:104F100011701A007B699B1822221A70054AC4235B
:104F20005B00D1583B181B78040005E0C00000204E
:104F300000180060001400603A18581C10701A0025
:104F40007B699B18CAB21A7020003B181B783A186C
:104F5000591C11701A007B699B1801221A703B18AA
:104F60001B783A18591C11701A007B699B18212272
:104F70001A70704AC2235B00D1583B181B7804009A
:104F80003A18581C10701A007B699B18CAB21A7024
:104F900020003B181B783A18591C11701A007B69C5
:104FA0009B1801221A703B181B783A18591C117073
:104FB0001A007B699B1823221A705E4AC6235B0085
:104FC000D1583B181B7804003A18581C10701A006E
:104FD0007B699B18CAB21A7020003B181B783A18DC
:104FE000591C11701A007B699B1801221A703B181A
:104FF0001B783A18591C11701A007B699B181B22E8
:105000001A704C4AB6235B00D1583B181B78040039
:105010003A18581C10701A007B699B18CAB21A7093
:1050200020003B181B783A18591C11701A007B6934
:105030009B1801221A703B181B783A18591C1170E2
:105040001A007B699B1890221A703A4AD0239B0061
:10505000D1583B181B7804003A18581C10701A00DD
:105060007B699B18CAB21A7020003B181B783A184B
:10507000591C11701A007B699B1801221A703B1889
:105080001B783A18591C11701A007B699B189122E1
:105090001A70284AD1239B00D1583B181B78040072
:1050A0003A18581C10701A007B699B18CAB21A7003
:1050B0003B191B783A19591C11701A007B699B180F
:1050C00000221A701C4A1D4B1A601B4A1B4B5A6067
:1050D0001B4A1A4B9A60194B0022DA60174B1B6867
:1050E0001800FFF73DFB134B01221A61FFF78CFC00
:1050F000104B9A6A0F4B01210A439A62C023DB05C9
:105100005B68FB60C023DB05FA685A600D4B5A6C84
:105110000C4B01210A435A640A4B1A6C094B0121BA
:105120000A431A64C023DB055B68FB60C046BD46CA
:105130000DB090BD00140060E8060020D8060020E5
:10514000E40600200018006080B582B000AFC023E4
:10515000DB05DB697B60C023DB055B683B60C0234C
:10516000DB053A685A6000F0A3FC7A683B68134399
:10517000180004F064FB00F095FCC023DB055B68BD
:105180003B60C046BD4602B080BD000080B582B025
:1051900000AF084BDB6A7B60064B7A68DA627B689B
:1051A000180004F05CFB034BDB6A7B60C046BD4625
:1051B00002B080BD0014006080B500AF04F0DCF9DF
:1051C000C046BD4680BD000080B582B000AF020081
:1051D000FB1D1A70FB1D1B787F2B09D8FB1D1B784C
:1051E0001A001F231A40044B012191400A001A6043
:1051F000C046BD4602B080BD00E100E080B582B08F
:1052000000AF78607B68DB680322934302221A4375
:105210007B68DA60C046BD4602B080BD80B582B012
:1052200000AF78607B68DB68032293431A007B68D9
:10523000DA60C046BD4602B080BD80B582B000AF26
:1052400078607B68DB68032293431A007B68DA602E
:10525000C046BD4602B080BD80B582B000AF786068
:1052600039607B683A681A61C046BD4602B080BDAD
:1052700080B582B000AF78607B689B6A8022D205DF
:105280001A437B689A62C046BD4602B080BD0000EA
:1052900080B582B000AF78607B689B6A034A1A4091
:1052A0007B689A62C046BD4602B080BDFFFFFFBF6B
:1052B00080B582B000AF78607B681B6B8022D2051E
:1052C0001A437B681A63C046BD4602B080BD000029
:1052D00080B582B000AF78607B681B6B034A1A40D0
:1052E0007B681A63C046BD4602B080BDFFFFFFBFAA
:1052F00080B582B000AF78600A00FB1C1A70FB1CFE
:105300001A787B689A60C046BD4602B080BD80B501
:1053100082B000AF786039607B683A685A62C046F4
:10532000BD4602B080BD80B582B000AF7860396004
:105330007B683A68DA62C046BD4602B080BD80B57F
:1053400082B000AF78607B681B691800BD4602B070
:1053500080BD80B582B000AF78607B689B6A802298
:1053600092051A437B689A62C046BD4602B080BD72
:1053700080B582B000AF78600A00FB1C1A70084B41
:105380009B6A072293431900FB1C1B7807221A40D3
:10539000034B0A439A62C046BD4602B080BDC04678
:1053A0000018006080B582B000AF78607B689B6CAD
:1053B00001221A437B689A64C046BD4602B080BD94
:1053C00080B582B000AF78607B68DB6C01221A4345
:1053D0007B68DA64C046BD4602B080BD80B582B04D
:1053E00000AF78607B68DB6C01221340012B01D198
:1053F000012300E000231800BD4602B080BD80B547
:1054000082B000AF786039607B683A685A60C04605
:10541000BD4602B080BD80B582B000AF78607B68C9
:1054200000229A60C046BD4602B080BD80B582B001
:1054300000AF78607B689B681800BD4602B080BDF5
:1054400080B582B000AF78607B68DB681800BD462D
:1054500002B080BD80B582B000AF78607B681B6908
:1054600001221A437B681A61C046BD4602B080BD66
:1054700080B582B000AF78607B681B690122134061
:10548000012B01D1012300E000231800BD4602B02A
:1054900080BD0000F0B583B000AF78606D4B1800A0
:1054A000FFF78EFF6B4B1800FFF77CFF1720FFF70D
:1054B0008BFE1420FFF788FE7B685B685A1E9341C1
:1054C000DBB21A00644B1A70634B1B78002B03D1BC
:1054D0007B689B78002B02D000F0FCFB10E05E4B59
:1054E000C82252031A625C4BC8225203DA615A4B3B
:1054F0005A4A9A61584B5A4A1A61574B594A5A614B
:105500007B685B68002B08D1A023DB05180000F046
:10551000E3FA0200504B5A601DE07B685B681B0396
:105520000A211800FAF784FE03001A004A4B5A6059
:10553000494B5E684C4B180000F0CEFA03009E42C7
:1055400002D2454B5A6804E0474B180000F0C4FAF9
:105550000200414B5A60404B00221A737B681B8843
:105560001A003D4B9A663C4B9B6E9AB23A4B9B6934
:105570001900100000F022FD374B8C2200219954B5
:105580003549002200230A674B67324B1800FFF7AA
:10559000D6FE0200304B9A672F4B80331900002251
:1055A00000230A604B602C4B3022002199542A4B77
:1055B0005868294B9B6919002C4B1A00FAF780FD9B
:1055C0000200254B9A60244B1978234B9C22995456
:1055D000214B9422002199501F4B9822012199546C
:1055E0001D4B9B22002199541B4B99220021995459
:1055F000194B9A2200219954174B6122002199548A
:10560000154B622200219954134B632200219954B7
:105610001149002200238A65CB650F4B144A9A6416
:105620000D4B00225A6500F06DFA02000B000A498A
:1056300049680C0000210D0012196B410D4908004A
:1056400000F012FD012000F0F5FBC046BD4603B09E
:10565000F0BDC0460018006010070020C2F5280009
:105660008D5B0000ECEB6501FFEFFFFF2603000000
:105670001960041050070020B0B588B000AFFB1DC2
:1056800000221A7069E0714B9922995C6F4B9A2243
:105690009A5C1B23FB188A1A1A706C4B94229B5835
:1056A0003A001100180000F0BBFE0200674B942185
:1056B0005A503B68FB6110E0FB691B693B61FB6969
:1056C00000221A73FB699B68002B04D0FB699B685E
:1056D000FA69100098473B69FB61FB69002BEBD12D
:1056E0005A4B94229B58FA1D1100180000F084FDBB
:1056F0000200564B94215A50FB1D1B78012B21D1DF
:10570000EFF31083FB60FB687B6172B6C0464F4BC2
:1057100099229B5C01334D4A9A21525C934203D1FA
:105720004A4B99229B5C04E0484B99229B5C0133D5
:10573000DBB2464A992153547B69BB60BB6883F353
:105740001088C046414B9A229A5C1B23FB181B7899
:10575000D318D9B23D4B9A2299543C4B99229A5C6A
:105760003A4B9A215B5C9A420AD3384B99229A5C55
:10577000364B9A215B5CD31A5A1E9341DBB20CE084
:10578000324B99229B5C1900304B9A229B5CCB1ABE
:105790000133FF335A1E9341DBB2002B00D072E776
:1057A0002A4B1B7B002B30D0294B1800FFF760FEE3
:1057B000031E46D0254B00221A73244B9C229B5C6F
:1057C000002B09D1214B9B229B5C002B04D01F4B4B
:1057D0009B220021995401E000F06CFE012000F0B2
:1057E0002BFF1C4B180000F0B5F900F08BF90200FC
:1057F0000B00164949680C0000210D0012196B417D
:105800001449080000F030FC1BE0104B1B78002B03
:1058100017D000F077F90D4B1A6F5B6FFA24640311
:10582000002512196B41994203D80AD1904200D841
:1058300007E0084B180000F08DF9064B180000F047
:10584000EBFBC046BD4608B0B0BDC0461007002007
:10585000001000605007002080B582B000AF786073
:10586000C023DB055B697A681100180001F04EF86F
:1058700002000B0010001900BD4602B080BD000000
:10588000B0B588B000AF786008001100FB1C021CA6
:105890001A70BB1C0A1C1A701F23FB1800221A70F6
:1058A000FB1C1B785A1E9341D9B22D4B642299548C
:1058B000BB1C1B785A1E9341D9B2294B60229954C4
:1058C000274B612200219954254B632200219954D2
:1058D000234B622201219954EFF310837B617B6992
:1058E000BB6172B6C0467B68180000F0BDF90200CB
:1058F0000B001B498A65CB65194B986DD96D184B08
:1059000080331A685B68801A994102000B00002BF3
:1059100003D10ED113498A420BD9114B62220021C7
:105920009954BB693B613B6983F31088C0460123EE
:1059300011E01F257C19002000F07EFE030023707B
:10594000BB69FB60FB6883F31088C046012000F050
:105950000FFD7B191B781800BD4608B0B0BDC046CE
:105960001007002065FEFFFFB0B588B000AFC02370
:10597000DB051800FFF752FCC023DB051800FFF71A
:105980005CFC314B1800FFF783FC304B6122002197
:1059900099542E4B6222002199542C4B63220021F2
:1059A0009954EFF31083BB60BB68BB6172B6C0460D
:1059B000264B9C6DDD6D00F0A5F802000B00A41ACB
:1059C0009D4122002B0021498C20095C3960002177
:1059D000796038687968121A8B413A617B61BB69DA
:1059E000FB60FB6883F31088C0467B69002B0CDCEE
:1059F0007B69002B02D13B69002B06D117230822BB
:105A00009B18DB1901221A7015E07B69002B0CDC56
:105A10007B69002B02D13B690E2B06D81723082285
:105A20009B18DB1902221A7005E0172308229B1825
:105A3000DB1900221A70172308229B18DB191B7828
:105A40001800BD4608B0B0BD001800601007002067
:105A500080B584B000AFEFF310833B603B68FB6020
:105A600072B6C0460E4B1800FFF769FC0300BB601E
:105A7000BB681A1DC023DB0511001800FFF7ECFB03
:105A8000C023DB051800FFF7B9FBFB687B607B6870
:105A900083F31088C046C046BD4604B080BDC046F2
:105AA0000018006080B500AFC046BD4680BD000054
:105AB00080B500AF074B61229B5C002B03D0054BE8
:105AC000612200219954034B632200219954C0465E
:105AD000BD4680BD1007002080B582B000AF786061
